{
  "_format": "hh-sol-artifact-1",
  "contractName": "NFTStake",
  "sourceName": "contracts/NFTStake.sol",
  "abi": [
    {
      "anonymous": false,
      "inputs": [
        {
          "indexed": false,
          "internalType": "address",
          "name": "previousAdmin",
          "type": "address"
        },
        {
          "indexed": false,
          "internalType": "address",
          "name": "newAdmin",
          "type": "address"
        }
      ],
      "name": "AdminChanged",
      "type": "event"
    },
    {
      "anonymous": false,
      "inputs": [
        {
          "indexed": true,
          "internalType": "address",
          "name": "beacon",
          "type": "address"
        }
      ],
      "name": "BeaconUpgraded",
      "type": "event"
    },
    {
      "anonymous": false,
      "inputs": [
        {
          "indexed": true,
          "internalType": "address",
          "name": "previousOwner",
          "type": "address"
        },
        {
          "indexed": true,
          "internalType": "address",
          "name": "newOwner",
          "type": "address"
        }
      ],
      "name": "OwnershipTransferred",
      "type": "event"
    },
    {
      "anonymous": false,
      "inputs": [
        {
          "indexed": true,
          "internalType": "address",
          "name": "implementation",
          "type": "address"
        }
      ],
      "name": "Upgraded",
      "type": "event"
    },
    {
      "inputs": [],
      "name": "ERC20_CONTRACT",
      "outputs": [
        {
          "internalType": "address",
          "name": "",
          "type": "address"
        }
      ],
      "stateMutability": "view",
      "type": "function"
    },
    {
      "inputs": [],
      "name": "ERC721_CONTRACT",
      "outputs": [
        {
          "internalType": "address",
          "name": "",
          "type": "address"
        }
      ],
      "stateMutability": "view",
      "type": "function"
    },
    {
      "inputs": [],
      "name": "accPerShare",
      "outputs": [
        {
          "internalType": "uint256",
          "name": "",
          "type": "uint256"
        }
      ],
      "stateMutability": "view",
      "type": "function"
    },
    {
      "inputs": [],
      "name": "claimRewards",
      "outputs": [],
      "stateMutability": "nonpayable",
      "type": "function"
    },
    {
      "inputs": [
        {
          "internalType": "address",
          "name": "userAddress",
          "type": "address"
        }
      ],
      "name": "claimableRewards",
      "outputs": [
        {
          "internalType": "uint256",
          "name": "",
          "type": "uint256"
        }
      ],
      "stateMutability": "view",
      "type": "function"
    },
    {
      "inputs": [
        {
          "internalType": "uint256[]",
          "name": "tokenIds",
          "type": "uint256[]"
        }
      ],
      "name": "deposit",
      "outputs": [],
      "stateMutability": "nonpayable",
      "type": "function"
    },
    {
      "inputs": [
        {
          "internalType": "address",
          "name": "account",
          "type": "address"
        }
      ],
      "name": "depositsOf",
      "outputs": [
        {
          "internalType": "uint256[]",
          "name": "",
          "type": "uint256[]"
        }
      ],
      "stateMutability": "view",
      "type": "function"
    },
    {
      "inputs": [
        {
          "internalType": "uint256",
          "name": "_amount",
          "type": "uint256"
        }
      ],
      "name": "emergencyWithdrawRewardTokens",
      "outputs": [],
      "stateMutability": "nonpayable",
      "type": "function"
    },
    {
      "inputs": [
        {
          "internalType": "address",
          "name": "_erc20Token",
          "type": "address"
        },
        {
          "internalType": "address",
          "name": "_erc721Token",
          "type": "address"
        }
      ],
      "name": "initialize",
      "outputs": [],
      "stateMutability": "nonpayable",
      "type": "function"
    },
    {
      "inputs": [],
      "name": "lastRewardBalance",
      "outputs": [
        {
          "internalType": "uint256",
          "name": "",
          "type": "uint256"
        }
      ],
      "stateMutability": "view",
      "type": "function"
    },
    {
      "inputs": [],
      "name": "lastRewardBlock",
      "outputs": [
        {
          "internalType": "uint256",
          "name": "",
          "type": "uint256"
        }
      ],
      "stateMutability": "view",
      "type": "function"
    },
    {
      "inputs": [],
      "name": "lastTotalReward",
      "outputs": [
        {
          "internalType": "uint256",
          "name": "",
          "type": "uint256"
        }
      ],
      "stateMutability": "view",
      "type": "function"
    },
    {
      "inputs": [
        {
          "internalType": "address",
          "name": "",
          "type": "address"
        },
        {
          "internalType": "address",
          "name": "",
          "type": "address"
        },
        {
          "internalType": "uint256",
          "name": "",
          "type": "uint256"
        },
        {
          "internalType": "bytes",
          "name": "",
          "type": "bytes"
        }
      ],
      "name": "onERC721Received",
      "outputs": [
        {
          "internalType": "bytes4",
          "name": "",
          "type": "bytes4"
        }
      ],
      "stateMutability": "pure",
      "type": "function"
    },
    {
      "inputs": [],
      "name": "owner",
      "outputs": [
        {
          "internalType": "address",
          "name": "",
          "type": "address"
        }
      ],
      "stateMutability": "view",
      "type": "function"
    },
    {
      "inputs": [],
      "name": "proxiableUUID",
      "outputs": [
        {
          "internalType": "bytes32",
          "name": "",
          "type": "bytes32"
        }
      ],
      "stateMutability": "view",
      "type": "function"
    },
    {
      "inputs": [],
      "name": "renounceOwnership",
      "outputs": [],
      "stateMutability": "nonpayable",
      "type": "function"
    },
    {
      "inputs": [
        {
          "internalType": "address",
          "name": "",
          "type": "address"
        }
      ],
      "name": "rewardDebt",
      "outputs": [
        {
          "internalType": "uint256",
          "name": "",
          "type": "uint256"
        }
      ],
      "stateMutability": "view",
      "type": "function"
    },
    {
      "inputs": [],
      "name": "totalReward",
      "outputs": [
        {
          "internalType": "uint256",
          "name": "",
          "type": "uint256"
        }
      ],
      "stateMutability": "view",
      "type": "function"
    },
    {
      "inputs": [],
      "name": "totalStaked",
      "outputs": [
        {
          "internalType": "uint256",
          "name": "",
          "type": "uint256"
        }
      ],
      "stateMutability": "view",
      "type": "function"
    },
    {
      "inputs": [
        {
          "internalType": "address",
          "name": "newOwner",
          "type": "address"
        }
      ],
      "name": "transferOwnership",
      "outputs": [],
      "stateMutability": "nonpayable",
      "type": "function"
    },
    {
      "inputs": [
        {
          "internalType": "address",
          "name": "newImplementation",
          "type": "address"
        }
      ],
      "name": "upgradeTo",
      "outputs": [],
      "stateMutability": "nonpayable",
      "type": "function"
    },
    {
      "inputs": [
        {
          "internalType": "address",
          "name": "newImplementation",
          "type": "address"
        },
        {
          "internalType": "bytes",
          "name": "data",
          "type": "bytes"
        }
      ],
      "name": "upgradeToAndCall",
      "outputs": [],
      "stateMutability": "payable",
      "type": "function"
    },
    {
      "inputs": [
        {
          "internalType": "address",
          "name": "",
          "type": "address"
        }
      ],
      "name": "userAmount",
      "outputs": [
        {
          "internalType": "uint256",
          "name": "",
          "type": "uint256"
        }
      ],
      "stateMutability": "view",
      "type": "function"
    },
    {
      "inputs": [
        {
          "internalType": "uint256[]",
          "name": "_tokenId",
          "type": "uint256[]"
        },
        {
          "internalType": "bool",
          "name": "_status",
          "type": "bool"
        }
      ],
      "name": "whiteListNFT",
      "outputs": [],
      "stateMutability": "nonpayable",
      "type": "function"
    },
    {
      "inputs": [
        {
          "internalType": "uint256",
          "name": "",
          "type": "uint256"
        }
      ],
      "name": "whiteListNFTs",
      "outputs": [
        {
          "internalType": "bool",
          "name": "",
          "type": "bool"
        }
      ],
      "stateMutability": "view",
      "type": "function"
    },
    {
      "inputs": [
        {
          "internalType": "uint256[]",
          "name": "tokenIds",
          "type": "uint256[]"
        }
      ],
      "name": "withdraw",
      "outputs": [],
      "stateMutability": "nonpayable",
      "type": "function"
    }
  ],
  "bytecode": "0x60a06040523060601b60805234801561001757600080fd5b5060805160601c61242f6100526000396000818161087f0152818161090401528181610dbc01528181610e410152610f27015261242f6000f3fe6080604052600436106101a15760003560e01c80636b9f69b4116100e1578063a9f8d1811161008a578063e1ad418e11610064578063e1ad418e1461049c578063e3a9db1a146104c9578063f2fde38b146104f6578063fa4caa741461051657600080fd5b8063a9f8d18114610450578063d2890a0114610466578063dc01f60d1461047c57600080fd5b8063817b1cd2116100bb578063817b1cd2146103fc5780638da5cb5b14610412578063983d95ce1461043057600080fd5b80636b9f69b4146103b1578063715018a6146103d1578063750142e6146103e657600080fd5b8063372500ab1161014e5780634f1ef286116101285780634f1ef2861461033c57806352d1902d1461034f5780635873eb9b14610364578063598b8e711461039157600080fd5b8063372500ab146102c7578063485cc955146102dc5780634eba61cd146102fc57600080fd5b80632a28ba041161017f5780632a28ba04146102655780632f79e10d146102875780633659cfe6146102a757600080fd5b8063150b7a02146101a657806316c2acb2146102095780632505b1bc14610241575b600080fd5b3480156101b257600080fd5b506101eb6101c1366004611f73565b7f150b7a020000000000000000000000000000000000000000000000000000000095945050505050565b6040516001600160e01b031990911681526020015b60405180910390f35b34801561021557600080fd5b5060d454610229906001600160a01b031681565b6040516001600160a01b039091168152602001610200565b34801561024d57600080fd5b5061025760d15481565b604051908152602001610200565b34801561027157600080fd5b50610285610280366004612119565b61052c565b005b34801561029357600080fd5b506102856102a2366004612207565b610696565b3480156102b357600080fd5b506102856102c2366004611f27565b610874565b3480156102d357600080fd5b506102856109f0565b3480156102e857600080fd5b506102856102f7366004611f41565b610ca3565b34801561030857600080fd5b5061032c610317366004612207565b60cc6020526000908152604090205460ff1681565b6040519015158152602001610200565b61028561034a366004612009565b610db1565b34801561035b57600080fd5b50610257610f1a565b34801561037057600080fd5b5061025761037f366004611f27565b60ca6020526000908152604090205481565b34801561039d57600080fd5b506102856103ac3660046120a9565b610fdf565b3480156103bd57600080fd5b5060d354610229906001600160a01b031681565b3480156103dd57600080fd5b506102856111e9565b3480156103f257600080fd5b5061025760d05481565b34801561040857600080fd5b5061025760d25481565b34801561041e57600080fd5b506097546001600160a01b0316610229565b34801561043c57600080fd5b5061028561044b3660046120a9565b61124f565b34801561045c57600080fd5b5061025760cf5481565b34801561047257600080fd5b5061025760cd5481565b34801561048857600080fd5b50610257610497366004611f27565b611453565b3480156104a857600080fd5b506102576104b7366004611f27565b60cb6020526000908152604090205481565b3480156104d557600080fd5b506104e96104e4366004611f27565b611556565b604051610200919061223b565b34801561050257600080fd5b50610285610511366004611f27565b61162e565b34801561052257600080fd5b5061025760ce5481565b6097546001600160a01b0316331461058b5760405162461bcd60e51b815260206004820181905260248201527f4f776e61626c653a2063616c6c6572206973206e6f7420746865206f776e657260448201526064015b60405180910390fd5b60005b82518110156106915781151560cc60008584815181106105be57634e487b7160e01b600052603260045260246000fd5b60209081029190910181015182528101919091526040016000205460ff161515141561062c5760405162461bcd60e51b815260206004820152601660248201527f416c726561647920696e2073616d6520737461747573000000000000000000006044820152606401610582565b8160cc600085848151811061065157634e487b7160e01b600052603260045260246000fd5b6020026020010151815260200190815260200160002060006101000a81548160ff02191690831515021790555080806106899061237d565b91505061058e565b505050565b6097546001600160a01b031633146106f05760405162461bcd60e51b815260206004820181905260248201527f4f776e61626c653a2063616c6c6572206973206e6f7420746865206f776e65726044820152606401610582565b60d3546040516370a0823160e01b81523060048201526000916001600160a01b0316906370a082319060240160206040518083038186803b15801561073457600080fd5b505afa158015610748573d6000803e3d6000fd5b505050506040513d601f19601f8201168201806040525081019061076c91906121ef565b90508082111561081a5760d3546001600160a01b031663a9059cbb6107996097546001600160a01b031690565b6040516001600160e01b031960e084901b1681526001600160a01b039091166004820152602481018490526044015b602060405180830381600087803b1580156107e257600080fd5b505af11580156107f6573d6000803e3d6000fd5b505050506040513d601f19601f8201168201806040525081019061069191906121d3565b60d3546001600160a01b031663a9059cbb61083d6097546001600160a01b031690565b6040516001600160e01b031960e084901b1681526001600160a01b039091166004820152602481018590526044016107c8565b5050565b306001600160a01b037f00000000000000000000000000000000000000000000000000000000000000001614156109025760405162461bcd60e51b815260206004820152602c60248201527f46756e6374696f6e206d7573742062652063616c6c6564207468726f7567682060448201526b19195b1959d85d1958d85b1b60a21b6064820152608401610582565b7f00000000000000000000000000000000000000000000000000000000000000006001600160a01b031661095d7f360894a13ba1a3210667c828492db98dca3e2076cc3735a920a3ca505d382bbc546001600160a01b031690565b6001600160a01b0316146109c85760405162461bcd60e51b815260206004820152602c60248201527f46756e6374696f6e206d7573742062652063616c6c6564207468726f7567682060448201526b6163746976652070726f787960a01b6064820152608401610582565b6109d18161170d565b604080516000808252602082019092526109ed91839190611767565b50565b60d3546040516370a0823160e01b81523060048201526000916001600160a01b0316906370a082319060240160206040518083038186803b158015610a3457600080fd5b505afa158015610a48573d6000803e3d6000fd5b505050506040513d601f19601f82011682018060405250810190610a6c91906121ef565b90506000610a91610a8860ce548461191690919063ffffffff16565b60d0549061192b565b60ce83905560d081905560d25490915080610ace575050600060cd81905560d181905533815260ca6020526040812081905560ce81905560d05550565b6000610ae560d1548461191690919063ffffffff16565b9050610b09610b0083610afa84612710611937565b90611943565b60cd549061192b565b60cd81905560d184905533600090815260ca602090815260408083205460cb9092528220549192610b4b92610b459161271091610afa91611937565b90611916565b60d3546040517fa9059cbb000000000000000000000000000000000000000000000000000000008152336004820152602481018390529192506001600160a01b03169063a9059cbb90604401602060405180830381600087803b158015610bb157600080fd5b505af1158015610bc5573d6000803e3d6000fd5b505050506040513d601f19601f82011682018060405250810190610be991906121d3565b5060d3546040516370a0823160e01b81523060048201526001600160a01b03909116906370a082319060240160206040518083038186803b158015610c2d57600080fd5b505afa158015610c41573d6000803e3d6000fd5b505050506040513d601f19601f82011682018060405250810190610c6591906121ef565b60ce5560cd5433600090815260cb6020526040902054610c8c9161271091610afa91611937565b33600090815260ca60205260409020555050505050565b600054610100900460ff16610cbe5760005460ff1615610cc2565b303b155b610d345760405162461bcd60e51b815260206004820152602e60248201527f496e697469616c697a61626c653a20636f6e747261637420697320616c72656160448201527f647920696e697469616c697a65640000000000000000000000000000000000006064820152608401610582565b600054610100900460ff16158015610d56576000805461ffff19166101011790555b610d5e61194f565b60d380546001600160a01b0380861673ffffffffffffffffffffffffffffffffffffffff199283161790925560d48054928516929091169190911790558015610691576000805461ff0019169055505050565b306001600160a01b037f0000000000000000000000000000000000000000000000000000000000000000161415610e3f5760405162461bcd60e51b815260206004820152602c60248201527f46756e6374696f6e206d7573742062652063616c6c6564207468726f7567682060448201526b19195b1959d85d1958d85b1b60a21b6064820152608401610582565b7f00000000000000000000000000000000000000000000000000000000000000006001600160a01b0316610e9a7f360894a13ba1a3210667c828492db98dca3e2076cc3735a920a3ca505d382bbc546001600160a01b031690565b6001600160a01b031614610f055760405162461bcd60e51b815260206004820152602c60248201527f46756e6374696f6e206d7573742062652063616c6c6564207468726f7567682060448201526b6163746976652070726f787960a01b6064820152608401610582565b610f0e8261170d565b61087082826001611767565b6000306001600160a01b037f00000000000000000000000000000000000000000000000000000000000000001614610fba5760405162461bcd60e51b815260206004820152603860248201527f555550535570677261646561626c653a206d757374206e6f742062652063616c60448201527f6c6564207468726f7567682064656c656761746563616c6c00000000000000006064820152608401610582565b507f360894a13ba1a3210667c828492db98dca3e2076cc3735a920a3ca505d382bbc90565b610fe76109f0565b60005b818110156111835760cc600084848481811061101657634e487b7160e01b600052603260045260246000fd5b602090810292909201358352508101919091526040016000205460ff1661107f5760405162461bcd60e51b815260206004820152601160248201527f496e76616c696420746f6b656e204e46540000000000000000000000000000006044820152606401610582565b60d4546001600160a01b031663b88d4fde33308686868181106110b257634e487b7160e01b600052603260045260246000fd5b6040516001600160e01b031960e088901b1681526001600160a01b03958616600482015294909316602485015250602090910201356044820152608060648201526000608482015260a401600060405180830381600087803b15801561111757600080fd5b505af115801561112b573d6000803e3d6000fd5b5050505061117083838381811061115257634e487b7160e01b600052603260045260246000fd5b33600090815260c960209081526040909120939102013590506119c2565b508061117b8161237d565b915050610fea565b5060d254611191908261192b565b60d25533600090815260cb60205260409020546111ae908261192b565b33600090815260cb6020526040902081905560cd546111d59161271091610afa9190611937565b33600090815260ca60205260409020555050565b6097546001600160a01b031633146112435760405162461bcd60e51b815260206004820181905260248201527f4f776e61626c653a2063616c6c6572206973206e6f7420746865206f776e65726044820152606401610582565b61124d60006119ce565b565b6112576109f0565b60005b818110156113f4576112a383838381811061128557634e487b7160e01b600052603260045260246000fd5b33600090815260c96020908152604090912093910201359050611a2d565b6112ef5760405162461bcd60e51b815260206004820152601f60248201527f5374616b655365616c733a20546f6b656e206e6f74206465706f7369746564006044820152606401610582565b61133083838381811061131257634e487b7160e01b600052603260045260246000fd5b33600090815260c96020908152604090912093910201359050611a45565b5060d4546001600160a01b031663b88d4fde303386868681811061136457634e487b7160e01b600052603260045260246000fd5b6040516001600160e01b031960e088901b1681526001600160a01b03958616600482015294909316602485015250602090910201356044820152608060648201526000608482015260a401600060405180830381600087803b1580156113c957600080fd5b505af11580156113dd573d6000803e3d6000fd5b5050505080806113ec9061237d565b91505061125a565b5033600090815260cb602052604090205461140f9082611916565b33600090815260cb602052604090205560d25461142c9082611916565b60d25560cd5433600090815260cb60205260409020546111d59161271091610afa91611937565b60d25460cd546000919081156115125760d3546040516370a0823160e01b81523060048201526000916001600160a01b0316906370a082319060240160206040518083038186803b1580156114a757600080fd5b505afa1580156114bb573d6000803e3d6000fd5b505050506040513d601f19601f820116820180604052508101906114df91906121ef565b905060006114f860ce548361191690919063ffffffff16565b905061150d610b0085610afa84612710611937565b925050505b6001600160a01b038416600090815260ca602090815260408083205460cb9092529091205461154e9190610b459061271090610afa9086611937565b949350505050565b6001600160a01b038116600090815260c96020526040812060609161157a82611a51565b67ffffffffffffffff8111156115a057634e487b7160e01b600052604160045260246000fd5b6040519080825280602002602001820160405280156115c9578160200160208202803683370190505b50905060005b6115d883611a51565b811015611626576115e98382611a5b565b82828151811061160957634e487b7160e01b600052603260045260246000fd5b60209081029190910101528061161e8161237d565b9150506115cf565b509392505050565b6097546001600160a01b031633146116885760405162461bcd60e51b815260206004820181905260248201527f4f776e61626c653a2063616c6c6572206973206e6f7420746865206f776e65726044820152606401610582565b6001600160a01b0381166117045760405162461bcd60e51b815260206004820152602660248201527f4f776e61626c653a206e6577206f776e657220697320746865207a65726f206160448201527f64647265737300000000000000000000000000000000000000000000000000006064820152608401610582565b6109ed816119ce565b6097546001600160a01b031633146109ed5760405162461bcd60e51b815260206004820181905260248201527f4f776e61626c653a2063616c6c6572206973206e6f7420746865206f776e65726044820152606401610582565b7f4910fdfa16fed3260ed0e7147f7cc6da11a60208b5b9406d12a635614ffd91435460ff161561179a5761069183611a67565b826001600160a01b03166352d1902d6040518163ffffffff1660e01b815260040160206040518083038186803b1580156117d357600080fd5b505afa925050508015611803575060408051601f3d908101601f19168201909252611800918101906121ef565b60015b6118755760405162461bcd60e51b815260206004820152602e60248201527f45524331393637557067726164653a206e657720696d706c656d656e7461746960448201527f6f6e206973206e6f7420555550530000000000000000000000000000000000006064820152608401610582565b7f360894a13ba1a3210667c828492db98dca3e2076cc3735a920a3ca505d382bbc811461190a5760405162461bcd60e51b815260206004820152602960248201527f45524331393637557067726164653a20756e737570706f727465642070726f7860448201527f6961626c655555494400000000000000000000000000000000000000000000006064820152608401610582565b50610691838383611b32565b6000611922828461233a565b90505b92915050565b600061192282846122e3565b6000611922828461231b565b600061192282846122fb565b600054610100900460ff166119ba5760405162461bcd60e51b815260206004820152602b60248201527f496e697469616c697a61626c653a20636f6e7472616374206973206e6f74206960448201526a6e697469616c697a696e6760a81b6064820152608401610582565b61124d611b5d565b60006119228383611bd1565b609780546001600160a01b0383811673ffffffffffffffffffffffffffffffffffffffff19831681179093556040519116919082907f8be0079c531659141344cd1fd0a4f28419497f9722a3daafe3b4186f6b6457e090600090a35050565b60008181526001830160205260408120541515611922565b60006119228383611c20565b6000611925825490565b60006119228383611d3d565b6001600160a01b0381163b611ae45760405162461bcd60e51b815260206004820152602d60248201527f455243313936373a206e657720696d706c656d656e746174696f6e206973206e60448201527f6f74206120636f6e7472616374000000000000000000000000000000000000006064820152608401610582565b7f360894a13ba1a3210667c828492db98dca3e2076cc3735a920a3ca505d382bbc805473ffffffffffffffffffffffffffffffffffffffff19166001600160a01b0392909216919091179055565b611b3b83611d75565b600082511180611b485750805b1561069157611b578383611db5565b50505050565b600054610100900460ff16611bc85760405162461bcd60e51b815260206004820152602b60248201527f496e697469616c697a61626c653a20636f6e7472616374206973206e6f74206960448201526a6e697469616c697a696e6760a81b6064820152608401610582565b61124d336119ce565b6000818152600183016020526040812054611c1857508154600181810184556000848152602080822090930184905584548482528286019093526040902091909155611925565b506000611925565b60008181526001830160205260408120548015611d33576000611c4460018361233a565b8554909150600090611c589060019061233a565b9050818114611cd9576000866000018281548110611c8657634e487b7160e01b600052603260045260246000fd5b9060005260206000200154905080876000018481548110611cb757634e487b7160e01b600052603260045260246000fd5b6000918252602080832090910192909255918252600188019052604090208390555b8554869080611cf857634e487b7160e01b600052603160045260246000fd5b600190038181906000526020600020016000905590558560010160008681526020019081526020016000206000905560019350505050611925565b6000915050611925565b6000826000018281548110611d6257634e487b7160e01b600052603260045260246000fd5b9060005260206000200154905092915050565b611d7e81611a67565b6040516001600160a01b038216907fbc7cd75a20ee27fd9adebab32041f755214dbc6bffa90cc0225b39da2e5c2d3b90600090a250565b60606001600160a01b0383163b611e345760405162461bcd60e51b815260206004820152602660248201527f416464726573733a2064656c65676174652063616c6c20746f206e6f6e2d636f60448201527f6e747261637400000000000000000000000000000000000000000000000000006064820152608401610582565b600080846001600160a01b031684604051611e4f919061221f565b600060405180830381855af49150503d8060008114611e8a576040519150601f19603f3d011682016040523d82523d6000602084013e611e8f565b606091505b5091509150611eb782826040518060600160405280602781526020016123d360279139611ec0565b95945050505050565b60608315611ecf575081611ef9565b825115611edf5782518084602001fd5b8160405162461bcd60e51b8152600401610582919061227f565b9392505050565b80356001600160a01b0381168114611f1757600080fd5b919050565b8035611f17816123c4565b600060208284031215611f38578081fd5b61192282611f00565b60008060408385031215611f53578081fd5b611f5c83611f00565b9150611f6a60208401611f00565b90509250929050565b600080600080600060808688031215611f8a578081fd5b611f9386611f00565b9450611fa160208701611f00565b935060408601359250606086013567ffffffffffffffff80821115611fc4578283fd5b818801915088601f830112611fd7578283fd5b813581811115611fe5578384fd5b896020828501011115611ff6578384fd5b9699959850939650602001949392505050565b6000806040838503121561201b578182fd5b61202483611f00565b915060208084013567ffffffffffffffff80821115612041578384fd5b818601915086601f830112612054578384fd5b813581811115612066576120666123ae565b612078601f8201601f191685016122b2565b9150808252878482850101111561208d578485fd5b8084840185840137810190920192909252919491935090915050565b600080602083850312156120bb578182fd5b823567ffffffffffffffff808211156120d2578384fd5b818501915085601f8301126120e5578384fd5b8135818111156120f3578485fd5b8660208260051b8501011115612107578485fd5b60209290920196919550909350505050565b6000806040838503121561212b578182fd5b823567ffffffffffffffff80821115612142578384fd5b818501915085601f830112612155578384fd5b8135602082821115612169576121696123ae565b8160051b925061217a8184016122b2565b8281528181019085830185870184018b1015612194578889fd5b8896505b848710156121b6578035835260019690960195918301918301612198565b5096506121c69050878201611f1c565b9450505050509250929050565b6000602082840312156121e4578081fd5b8151611ef9816123c4565b600060208284031215612200578081fd5b5051919050565b600060208284031215612218578081fd5b5035919050565b60008251612231818460208701612351565b9190910192915050565b6020808252825182820181905260009190848201906040850190845b8181101561227357835183529284019291840191600101612257565b50909695505050505050565b602081526000825180602084015261229e816040850160208701612351565b601f01601f19169190910160400192915050565b604051601f8201601f1916810167ffffffffffffffff811182821017156122db576122db6123ae565b604052919050565b600082198211156122f6576122f6612398565b500190565b60008261231657634e487b7160e01b81526012600452602481fd5b500490565b600081600019048311821515161561233557612335612398565b500290565b60008282101561234c5761234c612398565b500390565b60005b8381101561236c578181015183820152602001612354565b83811115611b575750506000910152565b600060001982141561239157612391612398565b5060010190565b634e487b7160e01b600052601160045260246000fd5b634e487b7160e01b600052604160045260246000fd5b80151581146109ed57600080fdfe416464726573733a206c6f772d6c6576656c2064656c65676174652063616c6c206661696c6564a2646970667358221220d9d22f2f6a0a1f9daf1e9c7545a934a1296c8aa635973ca6f45c9b37f860c9e664736f6c63430008040033",
  "linkReferences": {},
  "deployedLinkReferences": {}
}