{
  "_format": "hh-sol-artifact-1",
  "contractName": "NFT",
  "sourceName": "contracts/mock/NFT.sol",
  "abi": [
    {
      "inputs": [],
      "stateMutability": "nonpayable",
      "type": "constructor"
    },
    {
      "anonymous": false,
      "inputs": [
        {
          "indexed": false,
          "internalType": "address",
          "name": "previousAdmin",
          "type": "address"
        },
        {
          "indexed": false,
          "internalType": "address",
          "name": "newAdmin",
          "type": "address"
        }
      ],
      "name": "AdminChanged",
      "type": "event"
    },
    {
      "anonymous": false,
      "inputs": [
        {
          "indexed": true,
          "internalType": "address",
          "name": "owner",
          "type": "address"
        },
        {
          "indexed": true,
          "internalType": "address",
          "name": "approved",
          "type": "address"
        },
        {
          "indexed": true,
          "internalType": "uint256",
          "name": "tokenId",
          "type": "uint256"
        }
      ],
      "name": "Approval",
      "type": "event"
    },
    {
      "anonymous": false,
      "inputs": [
        {
          "indexed": true,
          "internalType": "address",
          "name": "owner",
          "type": "address"
        },
        {
          "indexed": true,
          "internalType": "address",
          "name": "operator",
          "type": "address"
        },
        {
          "indexed": false,
          "internalType": "bool",
          "name": "approved",
          "type": "bool"
        }
      ],
      "name": "ApprovalForAll",
      "type": "event"
    },
    {
      "anonymous": false,
      "inputs": [
        {
          "indexed": true,
          "internalType": "address",
          "name": "beacon",
          "type": "address"
        }
      ],
      "name": "BeaconUpgraded",
      "type": "event"
    },
    {
      "anonymous": false,
      "inputs": [
        {
          "indexed": true,
          "internalType": "address",
          "name": "previousOwner",
          "type": "address"
        },
        {
          "indexed": true,
          "internalType": "address",
          "name": "newOwner",
          "type": "address"
        }
      ],
      "name": "OwnershipTransferred",
      "type": "event"
    },
    {
      "anonymous": false,
      "inputs": [
        {
          "indexed": true,
          "internalType": "address",
          "name": "from",
          "type": "address"
        },
        {
          "indexed": true,
          "internalType": "address",
          "name": "to",
          "type": "address"
        },
        {
          "indexed": true,
          "internalType": "uint256",
          "name": "tokenId",
          "type": "uint256"
        }
      ],
      "name": "Transfer",
      "type": "event"
    },
    {
      "anonymous": false,
      "inputs": [
        {
          "indexed": true,
          "internalType": "address",
          "name": "implementation",
          "type": "address"
        }
      ],
      "name": "Upgraded",
      "type": "event"
    },
    {
      "inputs": [
        {
          "internalType": "address",
          "name": "to",
          "type": "address"
        },
        {
          "internalType": "uint256",
          "name": "tokenId",
          "type": "uint256"
        }
      ],
      "name": "approve",
      "outputs": [],
      "stateMutability": "nonpayable",
      "type": "function"
    },
    {
      "inputs": [
        {
          "internalType": "address",
          "name": "owner",
          "type": "address"
        }
      ],
      "name": "balanceOf",
      "outputs": [
        {
          "internalType": "uint256",
          "name": "",
          "type": "uint256"
        }
      ],
      "stateMutability": "view",
      "type": "function"
    },
    {
      "inputs": [
        {
          "internalType": "uint256",
          "name": "tokenId",
          "type": "uint256"
        }
      ],
      "name": "getApproved",
      "outputs": [
        {
          "internalType": "address",
          "name": "",
          "type": "address"
        }
      ],
      "stateMutability": "view",
      "type": "function"
    },
    {
      "inputs": [],
      "name": "initialize",
      "outputs": [],
      "stateMutability": "nonpayable",
      "type": "function"
    },
    {
      "inputs": [
        {
          "internalType": "address",
          "name": "owner",
          "type": "address"
        },
        {
          "internalType": "address",
          "name": "operator",
          "type": "address"
        }
      ],
      "name": "isApprovedForAll",
      "outputs": [
        {
          "internalType": "bool",
          "name": "",
          "type": "bool"
        }
      ],
      "stateMutability": "view",
      "type": "function"
    },
    {
      "inputs": [],
      "name": "name",
      "outputs": [
        {
          "internalType": "string",
          "name": "",
          "type": "string"
        }
      ],
      "stateMutability": "view",
      "type": "function"
    },
    {
      "inputs": [],
      "name": "owner",
      "outputs": [
        {
          "internalType": "address",
          "name": "",
          "type": "address"
        }
      ],
      "stateMutability": "view",
      "type": "function"
    },
    {
      "inputs": [
        {
          "internalType": "uint256",
          "name": "tokenId",
          "type": "uint256"
        }
      ],
      "name": "ownerOf",
      "outputs": [
        {
          "internalType": "address",
          "name": "",
          "type": "address"
        }
      ],
      "stateMutability": "view",
      "type": "function"
    },
    {
      "inputs": [],
      "name": "proxiableUUID",
      "outputs": [
        {
          "internalType": "bytes32",
          "name": "",
          "type": "bytes32"
        }
      ],
      "stateMutability": "view",
      "type": "function"
    },
    {
      "inputs": [],
      "name": "renounceOwnership",
      "outputs": [],
      "stateMutability": "nonpayable",
      "type": "function"
    },
    {
      "inputs": [
        {
          "internalType": "address",
          "name": "to",
          "type": "address"
        }
      ],
      "name": "safeMint",
      "outputs": [],
      "stateMutability": "nonpayable",
      "type": "function"
    },
    {
      "inputs": [
        {
          "internalType": "address",
          "name": "from",
          "type": "address"
        },
        {
          "internalType": "address",
          "name": "to",
          "type": "address"
        },
        {
          "internalType": "uint256",
          "name": "tokenId",
          "type": "uint256"
        }
      ],
      "name": "safeTransferFrom",
      "outputs": [],
      "stateMutability": "nonpayable",
      "type": "function"
    },
    {
      "inputs": [
        {
          "internalType": "address",
          "name": "from",
          "type": "address"
        },
        {
          "internalType": "address",
          "name": "to",
          "type": "address"
        },
        {
          "internalType": "uint256",
          "name": "tokenId",
          "type": "uint256"
        },
        {
          "internalType": "bytes",
          "name": "_data",
          "type": "bytes"
        }
      ],
      "name": "safeTransferFrom",
      "outputs": [],
      "stateMutability": "nonpayable",
      "type": "function"
    },
    {
      "inputs": [
        {
          "internalType": "address",
          "name": "operator",
          "type": "address"
        },
        {
          "internalType": "bool",
          "name": "approved",
          "type": "bool"
        }
      ],
      "name": "setApprovalForAll",
      "outputs": [],
      "stateMutability": "nonpayable",
      "type": "function"
    },
    {
      "inputs": [
        {
          "internalType": "bytes4",
          "name": "interfaceId",
          "type": "bytes4"
        }
      ],
      "name": "supportsInterface",
      "outputs": [
        {
          "internalType": "bool",
          "name": "",
          "type": "bool"
        }
      ],
      "stateMutability": "view",
      "type": "function"
    },
    {
      "inputs": [],
      "name": "symbol",
      "outputs": [
        {
          "internalType": "string",
          "name": "",
          "type": "string"
        }
      ],
      "stateMutability": "view",
      "type": "function"
    },
    {
      "inputs": [
        {
          "internalType": "uint256",
          "name": "tokenId",
          "type": "uint256"
        }
      ],
      "name": "tokenURI",
      "outputs": [
        {
          "internalType": "string",
          "name": "",
          "type": "string"
        }
      ],
      "stateMutability": "view",
      "type": "function"
    },
    {
      "inputs": [
        {
          "internalType": "address",
          "name": "from",
          "type": "address"
        },
        {
          "internalType": "address",
          "name": "to",
          "type": "address"
        },
        {
          "internalType": "uint256",
          "name": "tokenId",
          "type": "uint256"
        }
      ],
      "name": "transferFrom",
      "outputs": [],
      "stateMutability": "nonpayable",
      "type": "function"
    },
    {
      "inputs": [
        {
          "internalType": "address",
          "name": "newOwner",
          "type": "address"
        }
      ],
      "name": "transferOwnership",
      "outputs": [],
      "stateMutability": "nonpayable",
      "type": "function"
    },
    {
      "inputs": [
        {
          "internalType": "address",
          "name": "newImplementation",
          "type": "address"
        }
      ],
      "name": "upgradeTo",
      "outputs": [],
      "stateMutability": "nonpayable",
      "type": "function"
    },
    {
      "inputs": [
        {
          "internalType": "address",
          "name": "newImplementation",
          "type": "address"
        },
        {
          "internalType": "bytes",
          "name": "data",
          "type": "bytes"
        }
      ],
      "name": "upgradeToAndCall",
      "outputs": [],
      "stateMutability": "payable",
      "type": "function"
    }
  ],
  "bytecode": "0x60a06040523060601b6080523480156200001857600080fd5b50600054610100900460ff16620000365760005460ff161562000040565b62000040620000e5565b620000a85760405162461bcd60e51b815260206004820152602e60248201527f496e697469616c697a61626c653a20636f6e747261637420697320616c72656160448201526d191e481a5b9a5d1a585b1a5e995960921b606482015260840160405180910390fd5b600054610100900460ff16158015620000cb576000805461ffff19166101011790555b8015620000de576000805461ff00191690555b5062000112565b6000620000fd306200010360201b6200115b1760201c565b15905090565b6001600160a01b03163b151590565b60805160601c6127186200014d600039600081816107c90152818161084e015281816109e501528181610a6a0152610b5001526127186000f3fe60806040526004361061016a5760003560e01c80636352211e116100cb57806395d89b411161007f578063c87b56dd11610059578063c87b56dd146103b3578063e985e9c5146103d3578063f2fde38b1461041c57600080fd5b806395d89b411461035e578063a22cb46514610373578063b88d4fde1461039357600080fd5b8063715018a6116100b0578063715018a6146103165780638129fc1c1461032b5780638da5cb5b1461034057600080fd5b80636352211e146102d657806370a08231146102f657600080fd5b80633659cfe61161012257806342842e0e1161010757806342842e0e146102805780634f1ef286146102a057806352d1902d146102b357600080fd5b80633659cfe61461024057806340d097c31461026057600080fd5b8063081812fc11610153578063081812fc146101c6578063095ea7b3146101fe57806323b872dd1461022057600080fd5b806301ffc9a71461016f57806306fdde03146101a4575b600080fd5b34801561017b57600080fd5b5061018f61018a366004612474565b61043c565b60405190151581526020015b60405180910390f35b3480156101b057600080fd5b506101b96104d9565b60405161019b9190612577565b3480156101d257600080fd5b506101e66101e13660046124ac565b61056b565b6040516001600160a01b03909116815260200161019b565b34801561020a57600080fd5b5061021e610219366004612433565b610605565b005b34801561022c57600080fd5b5061021e61023b36600461230c565b610737565b34801561024c57600080fd5b5061021e61025b3660046122c0565b6107be565b34801561026c57600080fd5b5061021e61027b3660046122c0565b61093a565b34801561028c57600080fd5b5061021e61029b36600461230c565b6109bf565b61021e6102ae3660046123e7565b6109da565b3480156102bf57600080fd5b506102c8610b43565b60405190815260200161019b565b3480156102e257600080fd5b506101e66102f13660046124ac565b610c08565b34801561030257600080fd5b506102c86103113660046122c0565b610c93565b34801561032257600080fd5b5061021e610d2d565b34801561033757600080fd5b5061021e610d93565b34801561034c57600080fd5b506097546001600160a01b03166101e6565b34801561036a57600080fd5b506101b9610ede565b34801561037f57600080fd5b5061021e61038e3660046123ad565b610eed565b34801561039f57600080fd5b5061021e6103ae366004612347565b610ef8565b3480156103bf57600080fd5b506101b96103ce3660046124ac565b610f86565b3480156103df57600080fd5b5061018f6103ee3660046122da565b6001600160a01b039182166000908152606a6020908152604080832093909416825291909152205460ff1690565b34801561042857600080fd5b5061021e6104373660046122c0565b61107c565b60006001600160e01b031982167f80ac58cd00000000000000000000000000000000000000000000000000000000148061049f57506001600160e01b031982167f5b5e139f00000000000000000000000000000000000000000000000000000000145b806104d357507f01ffc9a7000000000000000000000000000000000000000000000000000000006001600160e01b03198316145b92915050565b6060606580546104e8906125f9565b80601f0160208091040260200160405190810160405280929190818152602001828054610514906125f9565b80156105615780601f1061053657610100808354040283529160200191610561565b820191906000526020600020905b81548152906001019060200180831161054457829003601f168201915b5050505050905090565b6000818152606760205260408120546001600160a01b03166105e95760405162461bcd60e51b815260206004820152602c60248201527f4552433732313a20617070726f76656420717565727920666f72206e6f6e657860448201526b34b9ba32b73a103a37b5b2b760a11b60648201526084015b60405180910390fd5b506000908152606960205260409020546001600160a01b031690565b600061061082610c08565b9050806001600160a01b0316836001600160a01b0316141561069a5760405162461bcd60e51b815260206004820152602160248201527f4552433732313a20617070726f76616c20746f2063757272656e74206f776e6560448201527f720000000000000000000000000000000000000000000000000000000000000060648201526084016105e0565b336001600160a01b03821614806106b657506106b681336103ee565b6107285760405162461bcd60e51b815260206004820152603860248201527f4552433732313a20617070726f76652063616c6c6572206973206e6f74206f7760448201527f6e6572206e6f7220617070726f76656420666f7220616c6c000000000000000060648201526084016105e0565b610732838361116a565b505050565b61074133826111d8565b6107b35760405162461bcd60e51b815260206004820152603160248201527f4552433732313a207472616e736665722063616c6c6572206973206e6f74206f60448201527f776e6572206e6f7220617070726f76656400000000000000000000000000000060648201526084016105e0565b6107328383836112cf565b306001600160a01b037f000000000000000000000000000000000000000000000000000000000000000016141561084c5760405162461bcd60e51b815260206004820152602c60248201527f46756e6374696f6e206d7573742062652063616c6c6564207468726f7567682060448201526b19195b1959d85d1958d85b1b60a21b60648201526084016105e0565b7f00000000000000000000000000000000000000000000000000000000000000006001600160a01b03166108a77f360894a13ba1a3210667c828492db98dca3e2076cc3735a920a3ca505d382bbc546001600160a01b031690565b6001600160a01b0316146109125760405162461bcd60e51b815260206004820152602c60248201527f46756e6374696f6e206d7573742062652063616c6c6564207468726f7567682060448201526b6163746976652070726f787960a01b60648201526084016105e0565b61091b8161149c565b60408051600080825260208201909252610937918391906114f6565b50565b6097546001600160a01b031633146109945760405162461bcd60e51b815260206004820181905260248201527f4f776e61626c653a2063616c6c6572206973206e6f7420746865206f776e657260448201526064016105e0565b60006109a061012d5490565b90506109b161012d80546001019055565b6109bb82826116a5565b5050565b61073283838360405180602001604052806000815250610ef8565b306001600160a01b037f0000000000000000000000000000000000000000000000000000000000000000161415610a685760405162461bcd60e51b815260206004820152602c60248201527f46756e6374696f6e206d7573742062652063616c6c6564207468726f7567682060448201526b19195b1959d85d1958d85b1b60a21b60648201526084016105e0565b7f00000000000000000000000000000000000000000000000000000000000000006001600160a01b0316610ac37f360894a13ba1a3210667c828492db98dca3e2076cc3735a920a3ca505d382bbc546001600160a01b031690565b6001600160a01b031614610b2e5760405162461bcd60e51b815260206004820152602c60248201527f46756e6374696f6e206d7573742062652063616c6c6564207468726f7567682060448201526b6163746976652070726f787960a01b60648201526084016105e0565b610b378261149c565b6109bb828260016114f6565b6000306001600160a01b037f00000000000000000000000000000000000000000000000000000000000000001614610be35760405162461bcd60e51b815260206004820152603860248201527f555550535570677261646561626c653a206d757374206e6f742062652063616c60448201527f6c6564207468726f7567682064656c656761746563616c6c000000000000000060648201526084016105e0565b507f360894a13ba1a3210667c828492db98dca3e2076cc3735a920a3ca505d382bbc90565b6000818152606760205260408120546001600160a01b0316806104d35760405162461bcd60e51b815260206004820152602960248201527f4552433732313a206f776e657220717565727920666f72206e6f6e657869737460448201527f656e7420746f6b656e000000000000000000000000000000000000000000000060648201526084016105e0565b60006001600160a01b038216610d115760405162461bcd60e51b815260206004820152602a60248201527f4552433732313a2062616c616e636520717565727920666f7220746865207a6560448201527f726f20616464726573730000000000000000000000000000000000000000000060648201526084016105e0565b506001600160a01b031660009081526068602052604090205490565b6097546001600160a01b03163314610d875760405162461bcd60e51b815260206004820181905260248201527f4f776e61626c653a2063616c6c6572206973206e6f7420746865206f776e657260448201526064016105e0565b610d9160006116bf565b565b600054610100900460ff16610dae5760005460ff1615610db2565b303b155b610e245760405162461bcd60e51b815260206004820152602e60248201527f496e697469616c697a61626c653a20636f6e747261637420697320616c72656160448201527f647920696e697469616c697a656400000000000000000000000000000000000060648201526084016105e0565b600054610100900460ff16158015610e46576000805461ffff19166101011790555b610eba6040518060400160405280600881526020017f54455354204e46540000000000000000000000000000000000000000000000008152506040518060400160405280600381526020017f4e46540000000000000000000000000000000000000000000000000000000000815250611711565b610ec2611786565b610eca6117f9565b8015610937576000805461ff001916905550565b6060606680546104e8906125f9565b6109bb338383611864565b610f0233836111d8565b610f745760405162461bcd60e51b815260206004820152603160248201527f4552433732313a207472616e736665722063616c6c6572206973206e6f74206f60448201527f776e6572206e6f7220617070726f76656400000000000000000000000000000060648201526084016105e0565b610f8084848484611933565b50505050565b6000818152606760205260409020546060906001600160a01b03166110135760405162461bcd60e51b815260206004820152602f60248201527f4552433732314d657461646174613a2055524920717565727920666f72206e6f60448201527f6e6578697374656e7420746f6b656e000000000000000000000000000000000060648201526084016105e0565b600061102a60408051602081019091526000815290565b9050600081511161104a5760405180602001604052806000815250611075565b80611054846119b1565b60405160200161106592919061250c565b6040516020818303038152906040525b9392505050565b6097546001600160a01b031633146110d65760405162461bcd60e51b815260206004820181905260248201527f4f776e61626c653a2063616c6c6572206973206e6f7420746865206f776e657260448201526064016105e0565b6001600160a01b0381166111525760405162461bcd60e51b815260206004820152602660248201527f4f776e61626c653a206e6577206f776e657220697320746865207a65726f206160448201527f646472657373000000000000000000000000000000000000000000000000000060648201526084016105e0565b610937816116bf565b6001600160a01b03163b151590565b600081815260696020526040902080546001600160a01b0319166001600160a01b038416908117909155819061119f82610c08565b6001600160a01b03167f8c5be1e5ebec7d5bd14f71427d1e84f3dd0314c0f7b2291e5b200ac8c7c3b92560405160405180910390a45050565b6000818152606760205260408120546001600160a01b03166112515760405162461bcd60e51b815260206004820152602c60248201527f4552433732313a206f70657261746f7220717565727920666f72206e6f6e657860448201526b34b9ba32b73a103a37b5b2b760a11b60648201526084016105e0565b600061125c83610c08565b9050806001600160a01b0316846001600160a01b031614806112975750836001600160a01b031661128c8461056b565b6001600160a01b0316145b806112c757506001600160a01b038082166000908152606a602090815260408083209388168352929052205460ff165b949350505050565b826001600160a01b03166112e282610c08565b6001600160a01b03161461135e5760405162461bcd60e51b815260206004820152602560248201527f4552433732313a207472616e736665722066726f6d20696e636f72726563742060448201527f6f776e657200000000000000000000000000000000000000000000000000000060648201526084016105e0565b6001600160a01b0382166113d95760405162461bcd60e51b8152602060048201526024808201527f4552433732313a207472616e7366657220746f20746865207a65726f2061646460448201527f726573730000000000000000000000000000000000000000000000000000000060648201526084016105e0565b6113e460008261116a565b6001600160a01b038316600090815260686020526040812080546001929061140d9084906125b6565b90915550506001600160a01b038216600090815260686020526040812080546001929061143b90849061258a565b909155505060008181526067602052604080822080546001600160a01b0319166001600160a01b0386811691821790925591518493918716917fddf252ad1be2c89b69c2b068fc378daa952ba7f163c4a11628f55a4df523b3ef91a4505050565b6097546001600160a01b031633146109375760405162461bcd60e51b815260206004820181905260248201527f4f776e61626c653a2063616c6c6572206973206e6f7420746865206f776e657260448201526064016105e0565b7f4910fdfa16fed3260ed0e7147f7cc6da11a60208b5b9406d12a635614ffd91435460ff16156115295761073283611aff565b826001600160a01b03166352d1902d6040518163ffffffff1660e01b815260040160206040518083038186803b15801561156257600080fd5b505afa925050508015611592575060408051601f3d908101601f1916820190925261158f9181019061245c565b60015b6116045760405162461bcd60e51b815260206004820152602e60248201527f45524331393637557067726164653a206e657720696d706c656d656e7461746960448201527f6f6e206973206e6f74205555505300000000000000000000000000000000000060648201526084016105e0565b7f360894a13ba1a3210667c828492db98dca3e2076cc3735a920a3ca505d382bbc81146116995760405162461bcd60e51b815260206004820152602960248201527f45524331393637557067726164653a20756e737570706f727465642070726f7860448201527f6961626c6555554944000000000000000000000000000000000000000000000060648201526084016105e0565b50610732838383611bbd565b6109bb828260405180602001604052806000815250611be2565b609780546001600160a01b038381166001600160a01b0319831681179093556040519116919082907f8be0079c531659141344cd1fd0a4f28419497f9722a3daafe3b4186f6b6457e090600090a35050565b600054610100900460ff1661177c5760405162461bcd60e51b815260206004820152602b60248201527f496e697469616c697a61626c653a20636f6e7472616374206973206e6f74206960448201526a6e697469616c697a696e6760a81b60648201526084016105e0565b6109bb8282611c60565b600054610100900460ff166117f15760405162461bcd60e51b815260206004820152602b60248201527f496e697469616c697a61626c653a20636f6e7472616374206973206e6f74206960448201526a6e697469616c697a696e6760a81b60648201526084016105e0565b610d91611cf2565b600054610100900460ff16610d915760405162461bcd60e51b815260206004820152602b60248201527f496e697469616c697a61626c653a20636f6e7472616374206973206e6f74206960448201526a6e697469616c697a696e6760a81b60648201526084016105e0565b816001600160a01b0316836001600160a01b031614156118c65760405162461bcd60e51b815260206004820152601960248201527f4552433732313a20617070726f766520746f2063616c6c65720000000000000060448201526064016105e0565b6001600160a01b038381166000818152606a6020908152604080832094871680845294825291829020805460ff191686151590811790915591519182527f17307eab39ab6107e8899845ad3d59bd9653f200f220920489ca2b5937696c31910160405180910390a3505050565b61193e8484846112cf565b61194a84848484611d66565b610f805760405162461bcd60e51b815260206004820152603260248201527f4552433732313a207472616e7366657220746f206e6f6e20455243373231526560448201527131b2b4bb32b91034b6b83632b6b2b73a32b960711b60648201526084016105e0565b6060816119f157505060408051808201909152600181527f3000000000000000000000000000000000000000000000000000000000000000602082015290565b8160005b8115611a1b5780611a0581612634565b9150611a149050600a836125a2565b91506119f5565b60008167ffffffffffffffff811115611a4457634e487b7160e01b600052604160045260246000fd5b6040519080825280601f01601f191660200182016040528015611a6e576020820181803683370190505b5090505b84156112c757611a836001836125b6565b9150611a90600a8661264f565b611a9b90603061258a565b60f81b818381518110611abe57634e487b7160e01b600052603260045260246000fd5b60200101907effffffffffffffffffffffffffffffffffffffffffffffffffffffffffffff1916908160001a905350611af8600a866125a2565b9450611a72565b6001600160a01b0381163b611b7c5760405162461bcd60e51b815260206004820152602d60248201527f455243313936373a206e657720696d706c656d656e746174696f6e206973206e60448201527f6f74206120636f6e74726163740000000000000000000000000000000000000060648201526084016105e0565b7f360894a13ba1a3210667c828492db98dca3e2076cc3735a920a3ca505d382bbc80546001600160a01b0319166001600160a01b0392909216919091179055565b611bc683611ebe565b600082511180611bd35750805b1561073257610f808383611efe565b611bec8383612009565b611bf96000848484611d66565b6107325760405162461bcd60e51b815260206004820152603260248201527f4552433732313a207472616e7366657220746f206e6f6e20455243373231526560448201527131b2b4bb32b91034b6b83632b6b2b73a32b960711b60648201526084016105e0565b600054610100900460ff16611ccb5760405162461bcd60e51b815260206004820152602b60248201527f496e697469616c697a61626c653a20636f6e7472616374206973206e6f74206960448201526a6e697469616c697a696e6760a81b60648201526084016105e0565b8151611cde906065906020850190612184565b508051610732906066906020840190612184565b600054610100900460ff16611d5d5760405162461bcd60e51b815260206004820152602b60248201527f496e697469616c697a61626c653a20636f6e7472616374206973206e6f74206960448201526a6e697469616c697a696e6760a81b60648201526084016105e0565b610d91336116bf565b60006001600160a01b0384163b15611eb357604051630a85bd0160e11b81526001600160a01b0385169063150b7a0290611daa90339089908890889060040161253b565b602060405180830381600087803b158015611dc457600080fd5b505af1925050508015611df4575060408051601f3d908101601f19168201909252611df191810190612490565b60015b611e99573d808015611e22576040519150601f19603f3d011682016040523d82523d6000602084013e611e27565b606091505b508051611e915760405162461bcd60e51b815260206004820152603260248201527f4552433732313a207472616e7366657220746f206e6f6e20455243373231526560448201527131b2b4bb32b91034b6b83632b6b2b73a32b960711b60648201526084016105e0565b805181602001fd5b6001600160e01b031916630a85bd0160e11b1490506112c7565b506001949350505050565b611ec781611aff565b6040516001600160a01b038216907fbc7cd75a20ee27fd9adebab32041f755214dbc6bffa90cc0225b39da2e5c2d3b90600090a250565b60606001600160a01b0383163b611f7d5760405162461bcd60e51b815260206004820152602660248201527f416464726573733a2064656c65676174652063616c6c20746f206e6f6e2d636f60448201527f6e7472616374000000000000000000000000000000000000000000000000000060648201526084016105e0565b600080846001600160a01b031684604051611f9891906124f0565b600060405180830381855af49150503d8060008114611fd3576040519150601f19603f3d011682016040523d82523d6000602084013e611fd8565b606091505b509150915061200082826040518060600160405280602781526020016126bc6027913961214b565b95945050505050565b6001600160a01b03821661205f5760405162461bcd60e51b815260206004820181905260248201527f4552433732313a206d696e7420746f20746865207a65726f206164647265737360448201526064016105e0565b6000818152606760205260409020546001600160a01b0316156120c45760405162461bcd60e51b815260206004820152601c60248201527f4552433732313a20746f6b656e20616c7265616479206d696e7465640000000060448201526064016105e0565b6001600160a01b03821660009081526068602052604081208054600192906120ed90849061258a565b909155505060008181526067602052604080822080546001600160a01b0319166001600160a01b03861690811790915590518392907fddf252ad1be2c89b69c2b068fc378daa952ba7f163c4a11628f55a4df523b3ef908290a45050565b6060831561215a575081611075565b82511561216a5782518084602001fd5b8160405162461bcd60e51b81526004016105e09190612577565b828054612190906125f9565b90600052602060002090601f0160209004810192826121b257600085556121f8565b82601f106121cb57805160ff19168380011785556121f8565b828001600101855582156121f8579182015b828111156121f85782518255916020019190600101906121dd565b50612204929150612208565b5090565b5b808211156122045760008155600101612209565b80356001600160a01b038116811461223457600080fd5b919050565b600082601f830112612249578081fd5b813567ffffffffffffffff808211156122645761226461268f565b604051601f8301601f19908116603f0116810190828211818310171561228c5761228c61268f565b816040528381528660208588010111156122a4578485fd5b8360208701602083013792830160200193909352509392505050565b6000602082840312156122d1578081fd5b6110758261221d565b600080604083850312156122ec578081fd5b6122f58361221d565b91506123036020840161221d565b90509250929050565b600080600060608486031215612320578081fd5b6123298461221d565b92506123376020850161221d565b9150604084013590509250925092565b6000806000806080858703121561235c578081fd5b6123658561221d565b93506123736020860161221d565b925060408501359150606085013567ffffffffffffffff811115612395578182fd5b6123a187828801612239565b91505092959194509250565b600080604083850312156123bf578182fd5b6123c88361221d565b9150602083013580151581146123dc578182fd5b809150509250929050565b600080604083850312156123f9578182fd5b6124028361221d565b9150602083013567ffffffffffffffff81111561241d578182fd5b61242985828601612239565b9150509250929050565b60008060408385031215612445578182fd5b61244e8361221d565b946020939093013593505050565b60006020828403121561246d578081fd5b5051919050565b600060208284031215612485578081fd5b8135611075816126a5565b6000602082840312156124a1578081fd5b8151611075816126a5565b6000602082840312156124bd578081fd5b5035919050565b600081518084526124dc8160208601602086016125cd565b601f01601f19169290920160200192915050565b600082516125028184602087016125cd565b9190910192915050565b6000835161251e8184602088016125cd565b8351908301906125328183602088016125cd565b01949350505050565b60006001600160a01b0380871683528086166020840152508360408301526080606083015261256d60808301846124c4565b9695505050505050565b60208152600061107560208301846124c4565b6000821982111561259d5761259d612663565b500190565b6000826125b1576125b1612679565b500490565b6000828210156125c8576125c8612663565b500390565b60005b838110156125e85781810151838201526020016125d0565b83811115610f805750506000910152565b600181811c9082168061260d57607f821691505b6020821081141561262e57634e487b7160e01b600052602260045260246000fd5b50919050565b600060001982141561264857612648612663565b5060010190565b60008261265e5761265e612679565b500690565b634e487b7160e01b600052601160045260246000fd5b634e487b7160e01b600052601260045260246000fd5b634e487b7160e01b600052604160045260246000fd5b6001600160e01b03198116811461093757600080fdfe416464726573733a206c6f772d6c6576656c2064656c65676174652063616c6c206661696c6564a26469706673582212206781f989a2c289a7837aab764d8db84225b348f23941d4373c296fdf901243a864736f6c63430008040033",
  "linkReferences": {},
  "deployedLinkReferences": {}
}