{
  "contractName": "GovernorAlpha",
  "abi": [
    {
      "inputs": [
        {
          "internalType": "address",
          "name": "timelock_",
          "type": "address"
        },
        {
          "internalType": "address",
          "name": "xVemp_",
          "type": "address"
        },
        {
          "internalType": "address",
          "name": "guardian_",
          "type": "address"
        }
      ],
      "stateMutability": "nonpayable",
      "type": "constructor"
    },
    {
      "anonymous": false,
      "inputs": [
        {
          "indexed": false,
          "internalType": "uint256",
          "name": "id",
          "type": "uint256"
        }
      ],
      "name": "ProposalCanceled",
      "type": "event"
    },
    {
      "anonymous": false,
      "inputs": [
        {
          "indexed": false,
          "internalType": "uint256",
          "name": "id",
          "type": "uint256"
        },
        {
          "indexed": false,
          "internalType": "address",
          "name": "proposer",
          "type": "address"
        },
        {
          "indexed": false,
          "internalType": "address[]",
          "name": "targets",
          "type": "address[]"
        },
        {
          "indexed": false,
          "internalType": "uint256[]",
          "name": "values",
          "type": "uint256[]"
        },
        {
          "indexed": false,
          "internalType": "string[]",
          "name": "signatures",
          "type": "string[]"
        },
        {
          "indexed": false,
          "internalType": "bytes[]",
          "name": "calldatas",
          "type": "bytes[]"
        },
        {
          "indexed": false,
          "internalType": "uint256",
          "name": "startBlock",
          "type": "uint256"
        },
        {
          "indexed": false,
          "internalType": "uint256",
          "name": "endBlock",
          "type": "uint256"
        },
        {
          "indexed": false,
          "internalType": "string",
          "name": "description",
          "type": "string"
        }
      ],
      "name": "ProposalCreated",
      "type": "event"
    },
    {
      "anonymous": false,
      "inputs": [
        {
          "indexed": false,
          "internalType": "uint256",
          "name": "id",
          "type": "uint256"
        }
      ],
      "name": "ProposalExecuted",
      "type": "event"
    },
    {
      "anonymous": false,
      "inputs": [
        {
          "indexed": false,
          "internalType": "uint256",
          "name": "id",
          "type": "uint256"
        },
        {
          "indexed": false,
          "internalType": "uint256",
          "name": "eta",
          "type": "uint256"
        }
      ],
      "name": "ProposalQueued",
      "type": "event"
    },
    {
      "anonymous": false,
      "inputs": [
        {
          "indexed": false,
          "internalType": "address",
          "name": "voter",
          "type": "address"
        },
        {
          "indexed": false,
          "internalType": "uint256",
          "name": "proposalId",
          "type": "uint256"
        },
        {
          "indexed": false,
          "internalType": "bool",
          "name": "support",
          "type": "bool"
        },
        {
          "indexed": false,
          "internalType": "uint256",
          "name": "votes",
          "type": "uint256"
        }
      ],
      "name": "VoteCast",
      "type": "event"
    },
    {
      "inputs": [],
      "name": "BALLOT_TYPEHASH",
      "outputs": [
        {
          "internalType": "bytes32",
          "name": "",
          "type": "bytes32"
        }
      ],
      "stateMutability": "view",
      "type": "function"
    },
    {
      "inputs": [],
      "name": "DOMAIN_TYPEHASH",
      "outputs": [
        {
          "internalType": "bytes32",
          "name": "",
          "type": "bytes32"
        }
      ],
      "stateMutability": "view",
      "type": "function"
    },
    {
      "inputs": [],
      "name": "guardian",
      "outputs": [
        {
          "internalType": "address",
          "name": "",
          "type": "address"
        }
      ],
      "stateMutability": "view",
      "type": "function"
    },
    {
      "inputs": [
        {
          "internalType": "address",
          "name": "",
          "type": "address"
        }
      ],
      "name": "latestProposalIds",
      "outputs": [
        {
          "internalType": "uint256",
          "name": "",
          "type": "uint256"
        }
      ],
      "stateMutability": "view",
      "type": "function"
    },
    {
      "inputs": [],
      "name": "name",
      "outputs": [
        {
          "internalType": "string",
          "name": "",
          "type": "string"
        }
      ],
      "stateMutability": "view",
      "type": "function"
    },
    {
      "inputs": [],
      "name": "proposalCount",
      "outputs": [
        {
          "internalType": "uint256",
          "name": "",
          "type": "uint256"
        }
      ],
      "stateMutability": "view",
      "type": "function"
    },
    {
      "inputs": [
        {
          "internalType": "uint256",
          "name": "",
          "type": "uint256"
        }
      ],
      "name": "proposals",
      "outputs": [
        {
          "internalType": "uint256",
          "name": "id",
          "type": "uint256"
        },
        {
          "internalType": "address",
          "name": "proposer",
          "type": "address"
        },
        {
          "internalType": "uint256",
          "name": "eta",
          "type": "uint256"
        },
        {
          "internalType": "uint256",
          "name": "startBlock",
          "type": "uint256"
        },
        {
          "internalType": "uint256",
          "name": "endBlock",
          "type": "uint256"
        },
        {
          "internalType": "uint256",
          "name": "forVotes",
          "type": "uint256"
        },
        {
          "internalType": "uint256",
          "name": "againstVotes",
          "type": "uint256"
        },
        {
          "internalType": "bool",
          "name": "canceled",
          "type": "bool"
        },
        {
          "internalType": "bool",
          "name": "executed",
          "type": "bool"
        }
      ],
      "stateMutability": "view",
      "type": "function"
    },
    {
      "inputs": [],
      "name": "timelock",
      "outputs": [
        {
          "internalType": "contract TimelockInterface",
          "name": "",
          "type": "address"
        }
      ],
      "stateMutability": "view",
      "type": "function"
    },
    {
      "inputs": [],
      "name": "xVemp",
      "outputs": [
        {
          "internalType": "contract xVempInterface",
          "name": "",
          "type": "address"
        }
      ],
      "stateMutability": "view",
      "type": "function"
    },
    {
      "inputs": [],
      "name": "quorumVotes",
      "outputs": [
        {
          "internalType": "uint256",
          "name": "",
          "type": "uint256"
        }
      ],
      "stateMutability": "pure",
      "type": "function"
    },
    {
      "inputs": [],
      "name": "proposalMaxOperations",
      "outputs": [
        {
          "internalType": "uint256",
          "name": "",
          "type": "uint256"
        }
      ],
      "stateMutability": "pure",
      "type": "function"
    },
    {
      "inputs": [],
      "name": "votingDelay",
      "outputs": [
        {
          "internalType": "uint256",
          "name": "",
          "type": "uint256"
        }
      ],
      "stateMutability": "pure",
      "type": "function"
    },
    {
      "inputs": [],
      "name": "votingPeriod",
      "outputs": [
        {
          "internalType": "uint256",
          "name": "",
          "type": "uint256"
        }
      ],
      "stateMutability": "pure",
      "type": "function"
    },
    {
      "inputs": [
        {
          "internalType": "address[]",
          "name": "targets",
          "type": "address[]"
        },
        {
          "internalType": "uint256[]",
          "name": "values",
          "type": "uint256[]"
        },
        {
          "internalType": "string[]",
          "name": "signatures",
          "type": "string[]"
        },
        {
          "internalType": "bytes[]",
          "name": "calldatas",
          "type": "bytes[]"
        },
        {
          "internalType": "string",
          "name": "description",
          "type": "string"
        }
      ],
      "name": "propose",
      "outputs": [
        {
          "internalType": "uint256",
          "name": "",
          "type": "uint256"
        }
      ],
      "stateMutability": "nonpayable",
      "type": "function"
    },
    {
      "inputs": [
        {
          "internalType": "uint256",
          "name": "proposalId",
          "type": "uint256"
        }
      ],
      "name": "queue",
      "outputs": [],
      "stateMutability": "nonpayable",
      "type": "function"
    },
    {
      "inputs": [
        {
          "internalType": "uint256",
          "name": "proposalId",
          "type": "uint256"
        }
      ],
      "name": "execute",
      "outputs": [],
      "stateMutability": "payable",
      "type": "function"
    },
    {
      "inputs": [
        {
          "internalType": "uint256",
          "name": "proposalId",
          "type": "uint256"
        }
      ],
      "name": "cancel",
      "outputs": [],
      "stateMutability": "nonpayable",
      "type": "function"
    },
    {
      "inputs": [
        {
          "internalType": "uint256",
          "name": "proposalId",
          "type": "uint256"
        }
      ],
      "name": "getActions",
      "outputs": [
        {
          "internalType": "address[]",
          "name": "targets",
          "type": "address[]"
        },
        {
          "internalType": "uint256[]",
          "name": "values",
          "type": "uint256[]"
        },
        {
          "internalType": "string[]",
          "name": "signatures",
          "type": "string[]"
        },
        {
          "internalType": "bytes[]",
          "name": "calldatas",
          "type": "bytes[]"
        }
      ],
      "stateMutability": "view",
      "type": "function"
    },
    {
      "inputs": [
        {
          "internalType": "uint256",
          "name": "proposalId",
          "type": "uint256"
        },
        {
          "internalType": "address",
          "name": "voter",
          "type": "address"
        }
      ],
      "name": "getReceipt",
      "outputs": [
        {
          "components": [
            {
              "internalType": "bool",
              "name": "hasVoted",
              "type": "bool"
            },
            {
              "internalType": "bool",
              "name": "support",
              "type": "bool"
            },
            {
              "internalType": "uint96",
              "name": "votes",
              "type": "uint96"
            }
          ],
          "internalType": "struct GovernorAlpha.Receipt",
          "name": "",
          "type": "tuple"
        }
      ],
      "stateMutability": "view",
      "type": "function"
    },
    {
      "inputs": [
        {
          "internalType": "uint256",
          "name": "proposalId",
          "type": "uint256"
        }
      ],
      "name": "state",
      "outputs": [
        {
          "internalType": "enum GovernorAlpha.ProposalState",
          "name": "",
          "type": "uint8"
        }
      ],
      "stateMutability": "view",
      "type": "function"
    },
    {
      "inputs": [
        {
          "internalType": "uint256",
          "name": "proposalId",
          "type": "uint256"
        },
        {
          "internalType": "bool",
          "name": "support",
          "type": "bool"
        }
      ],
      "name": "castVote",
      "outputs": [],
      "stateMutability": "nonpayable",
      "type": "function"
    },
    {
      "inputs": [
        {
          "internalType": "uint256",
          "name": "proposalId",
          "type": "uint256"
        },
        {
          "internalType": "bool",
          "name": "support",
          "type": "bool"
        },
        {
          "internalType": "uint8",
          "name": "v",
          "type": "uint8"
        },
        {
          "internalType": "bytes32",
          "name": "r",
          "type": "bytes32"
        },
        {
          "internalType": "bytes32",
          "name": "s",
          "type": "bytes32"
        }
      ],
      "name": "castVoteBySig",
      "outputs": [],
      "stateMutability": "nonpayable",
      "type": "function"
    },
    {
      "inputs": [],
      "name": "__acceptAdmin",
      "outputs": [],
      "stateMutability": "nonpayable",
      "type": "function"
    },
    {
      "inputs": [],
      "name": "__abdicate",
      "outputs": [],
      "stateMutability": "nonpayable",
      "type": "function"
    },
    {
      "inputs": [
        {
          "internalType": "address",
          "name": "newPendingAdmin",
          "type": "address"
        },
        {
          "internalType": "uint256",
          "name": "eta",
          "type": "uint256"
        }
      ],
      "name": "__queueSetTimelockPendingAdmin",
      "outputs": [],
      "stateMutability": "nonpayable",
      "type": "function"
    },
    {
      "inputs": [
        {
          "internalType": "address",
          "name": "newPendingAdmin",
          "type": "address"
        },
        {
          "internalType": "uint256",
          "name": "eta",
          "type": "uint256"
        }
      ],
      "name": "__executeSetTimelockPendingAdmin",
      "outputs": [],
      "stateMutability": "nonpayable",
      "type": "function"
    }
  ],
  "bytecode": "0x60806040523480156200001157600080fd5b50604051620031a2380380620031a2833981016040819052620000349162000077565b600080546001600160a01b039485166001600160a01b031991821617909155600180549385169382169390931790925560028054919093169116179055620000e3565b6000806000606084860312156200008c578283fd5b83516200009981620000ca565b6020850151909350620000ac81620000ca565b6040850151909250620000bf81620000ca565b809150509250925092565b6001600160a01b0381168114620000e057600080fd5b50565b6130af80620000f36000396000f3fe6080604052600436106101815760003560e01c8063452a9320116100d1578063d33219b41161008a578063ddf0b00911610064578063ddf0b00914610411578063deaaa7cc14610431578063e23a9a5214610446578063fe0d94c11461047357610181565b8063d33219b4146103c7578063da35c664146103dc578063da95691a146103f157610181565b8063452a9320146103335780634634c61f14610348578063760fbc13146103685780637bdbe4d01461037d5780639150067114610392578063b9a61961146103b257610181565b806321f43e421161013e5780633932abb1116101185780633932abb11461027f5780633e4f49e6146102c457806340e58ee5146102f157806342d800da1461031157610181565b806321f43e421461025f57806324bc1a641461027f578063328dd9821461029457610181565b8063013cf08b1461018657806302a251a3146101c457806306fdde03146101e657806315373e3d1461020857806317977c611461022a57806320606b701461024a575b600080fd5b34801561019257600080fd5b506101a66101a1366004612287565b610486565b6040516101bb99989796959493929190612f6e565b60405180910390f35b3480156101d057600080fd5b506101d96104df565b6040516101bb919061266d565b3480156101f257600080fd5b506101fb6104e5565b6040516101bb91906126e4565b34801561021457600080fd5b506102286102233660046122cb565b610517565b005b34801561023657600080fd5b506101d96102453660046120cf565b610526565b34801561025657600080fd5b506101d9610538565b34801561026b57600080fd5b5061022861027a3660046120ea565b61055c565b34801561028b57600080fd5b506101d9610643565b3480156102a057600080fd5b506102b46102af366004612287565b610648565b6040516101bb9493929190612615565b3480156102d057600080fd5b506102e46102df366004612287565b6108d7565b6040516101bb91906126d0565b3480156102fd57600080fd5b5061022861030c366004612287565b610a61565b34801561031d57600080fd5b50610326610c1b565b6040516101bb91906124df565b34801561033f57600080fd5b50610326610c2a565b34801561035457600080fd5b506102286103633660046122fa565b610c39565b34801561037457600080fd5b50610228610deb565b34801561038957600080fd5b506101d9610e27565b34801561039e57600080fd5b506102286103ad3660046120ea565b610e2c565b3480156103be57600080fd5b50610228610f01565b3480156103d357600080fd5b50610326610f86565b3480156103e857600080fd5b506101d9610f95565b3480156103fd57600080fd5b506101d961040c366004612114565b610f9b565b34801561041d57600080fd5b5061022861042c366004612287565b61139f565b34801561043d57600080fd5b506101d9611609565b34801561045257600080fd5b5061046661046136600461229f565b61162d565b6040516101bb9190612ea8565b610228610481366004612287565b61169c565b6004602052600090815260409020805460018201546002830154600784015460088501546009860154600a870154600b9097015495966001600160a01b0390951695939492939192909160ff8082169161010090041689565b6101f490565b6040518060400160405280601681526020017556454d5049524520476f7665726e6f7220416c70686160501b81525081565b610522338383611861565b5050565b60056020526000908152604090205481565b7f8cad95687ba82c2ce50e74f7b754645e5117c3a5bec8151c0726d5857980a86681565b6002546001600160a01b0316331461058f5760405162461bcd60e51b815260040161058690612903565b60405180910390fd5b600080546040516001600160a01b0390911691630825f38f918391906105b99087906020016124df565b604051602081830303815290604052856040518563ffffffff1660e01b81526004016105e894939291906124f3565b600060405180830381600087803b15801561060257600080fd5b505af1158015610616573d6000803e3d6000fd5b505050506040513d6000823e601f3d908101601f1916820160405261063e9190810190612214565b505050565b600190565b606080606080600060046000878152602001908152602001600020905080600301816004018260050183600601838054806020026020016040519081016040528092919081815260200182805480156106ca57602002820191906000526020600020905b81546001600160a01b031681526001909101906020018083116106ac575b505050505093508280548060200260200160405190810160405280929190818152602001828054801561071c57602002820191906000526020600020905b815481526020019060010190808311610708575b5050505050925081805480602002602001604051908101604052809291908181526020016000905b828210156107ef5760008481526020908190208301805460408051601f60026000196101006001871615020190941693909304928301859004850281018501909152818152928301828280156107db5780601f106107b0576101008083540402835291602001916107db565b820191906000526020600020905b8154815290600101906020018083116107be57829003601f168201915b505050505081526020019060010190610744565b50505050915080805480602002602001604051908101604052809291908181526020016000905b828210156108c15760008481526020908190208301805460408051601f60026000196101006001871615020190941693909304928301859004850281018501909152818152928301828280156108ad5780601f10610882576101008083540402835291602001916108ad565b820191906000526020600020905b81548152906001019060200180831161089057829003601f168201915b505050505081526020019060010190610816565b5050505090509450945094509450509193509193565b600081600354101580156108eb5750600082115b6109075760405162461bcd60e51b815260040161058690612975565b6000828152600460205260409020600b81015460ff161561092c576002915050610a5c565b80600701544311610941576000915050610a5c565b80600801544311610956576001915050610a5c565b80600a015481600901541115806109775750610970610643565b8160090154105b15610986576003915050610a5c565b6002810154610999576004915050610a5c565b600b810154610100900460ff16156109b5576007915050610a5c565b610a46816002015460008054906101000a90046001600160a01b03166001600160a01b031663c1a287e26040518163ffffffff1660e01b815260040160206040518083038186803b158015610a0957600080fd5b505afa158015610a1d573d6000803e3d6000fd5b505050506040513d601f19601f82011682018060405250810190610a4191906121fc565b611a42565b4210610a56576006915050610a5c565b60059150505b919050565b6000610a6c826108d7565b90506007816007811115610a7c57fe5b1415610a9a5760405162461bcd60e51b815260040161058690612db2565b60008281526004602052604090206002546001600160a01b03163314610ad25760405162461bcd60e51b815260040161058690612bdb565b600b8101805460ff1916600117905560005b6003820154811015610bde576000546003830180546001600160a01b039092169163591fcdfe919084908110610b1657fe5b6000918252602090912001546004850180546001600160a01b039092169185908110610b3e57fe5b9060005260206000200154856005018581548110610b5857fe5b90600052602060002001866006018681548110610b7157fe5b9060005260206000200187600201546040518663ffffffff1660e01b8152600401610ba09594939291906125dc565b600060405180830381600087803b158015610bba57600080fd5b505af1158015610bce573d6000803e3d6000fd5b505060019092019150610ae49050565b507f789cf55be980739dad1d0699b93b58e806b51c9d96619bfa8fe0a28abaa7b30c83604051610c0e919061266d565b60405180910390a1505050565b6001546001600160a01b031681565b6002546001600160a01b031681565b60408051808201909152601681527556454d5049524520476f7665726e6f7220416c70686160501b60209091015260007f8cad95687ba82c2ce50e74f7b754645e5117c3a5bec8151c0726d5857980a8667ffed895c412f3f7e02e14560035695c2b76f03436ae9aa10d6700357e50463b56610cb3611a6e565b30604051602001610cc79493929190612676565b60405160208183030381529060405280519060200120905060007f8e25870c07e0b0b3884c78da52790939a455c275406c44ae8b434b692fb916ee8787604051602001610d169392919061269a565b60405160208183030381529060405280519060200120905060008282604051602001610d439291906124c4565b604051602081830303815290604052805190602001209050600060018288888860405160008152602001604052604051610d8094939291906126b2565b6020604051602081039080840390855afa158015610da2573d6000803e3d6000fd5b5050604051601f1901519150506001600160a01b038116610dd55760405162461bcd60e51b815260040161058690612ce0565b610de0818a8a611861565b505050505050505050565b6002546001600160a01b03163314610e155760405162461bcd60e51b815260040161058690612e52565b600280546001600160a01b0319169055565b600a90565b6002546001600160a01b03163314610e565760405162461bcd60e51b815260040161058690612a8e565b600080546040516001600160a01b0390911691633a66f90191839190610e809087906020016124df565b604051602081830303815290604052856040518563ffffffff1660e01b8152600401610eaf94939291906124f3565b602060405180830381600087803b158015610ec957600080fd5b505af1158015610edd573d6000803e3d6000fd5b505050506040513d601f19601f8201168201806040525081019061063e91906121fc565b6002546001600160a01b03163314610f2b5760405162461bcd60e51b8152600401610586906126f7565b6000805460408051630e18b68160e01b815290516001600160a01b0390921692630e18b6819260048084019382900301818387803b158015610f6c57600080fd5b505af1158015610f80573d6000803e3d6000fd5b50505050565b6000546001600160a01b031681565b60035481565b6001546040516370a0823160e01b815260009182916001600160a01b03909116906370a0823190610fd09033906004016124df565b60206040518083038186803b158015610fe857600080fd5b505afa158015610ffc573d6000803e3d6000fd5b505050506040513d601f19601f8201168201806040525081019061102091906121fc565b1161103d5760405162461bcd60e51b815260040161058690612893565b8451865114801561104f575083518651145b801561105c575082518651145b6110785760405162461bcd60e51b815260040161058690612b71565b85516110965760405162461bcd60e51b815260040161058690612c94565b61109e610e27565b865111156110be5760405162461bcd60e51b815260040161058690612afe565b33600090815260056020526040902054801561113b5760006110df826108d7565b905060018160078111156110ef57fe5b141561110d5760405162461bcd60e51b815260040161058690612d2f565b600081600781111561111b57fe5b14156111395760405162461bcd60e51b815260040161058690612a0b565b505b600061114943610a41610643565b9050600061115982610a416104df565b600380546001019055905061116c611bd1565b604051806101a001604052806003548152602001336001600160a01b03168152602001600081526020018b81526020018a815260200189815260200188815260200184815260200183815260200160008152602001600081526020016000151581526020016000151581525090508060046000836000015181526020019081526020016000206000820151816000015560208201518160010160006101000a8154816001600160a01b0302191690836001600160a01b0316021790555060408201518160020155606082015181600301908051906020019061124f929190611c46565b506080820151805161126b916004840191602090910190611cab565b5060a08201518051611287916005840191602090910190611cf2565b5060c082015180516112a3916006840191602090910190611d4b565b5060e082015181600701556101008201518160080155610120820151816009015561014082015181600a015561016082015181600b0160006101000a81548160ff02191690831515021790555061018082015181600b0160016101000a81548160ff02191690831515021790555090505080600001516005600083602001516001600160a01b03166001600160a01b03168152602001908152602001600020819055507f7d84a6263ae0d98d3329bd7b46bb4e8d6f98cd35a7adb45c274c8b7fd5ebd5e08160000151338c8c8c8c89898e60405161138999989796959493929190612ed6565b60405180910390a1519998505050505050505050565b60046113aa826108d7565b60078111156113b557fe5b146113d25760405162461bcd60e51b815260040161058690612754565b600081815260046020818152604080842084548251630d48571f60e31b815292519195946114279442946001600160a01b0390931693636a42b8f8938084019390829003018186803b158015610a0957600080fd5b905060005b60038301548110156115cf576115c783600301828154811061144a57fe5b6000918252602090912001546004850180546001600160a01b03909216918490811061147257fe5b906000526020600020015485600501848154811061148c57fe5b600091825260209182902001805460408051601f600260001961010060018716150201909416939093049283018590048502810185019091528181529283018282801561151a5780601f106114ef5761010080835404028352916020019161151a565b820191906000526020600020905b8154815290600101906020018083116114fd57829003601f168201915b505050505086600601858154811061152e57fe5b600091825260209182902001805460408051601f60026000196101006001871615020190941693909304928301859004850281018501909152818152928301828280156115bc5780601f10611591576101008083540402835291602001916115bc565b820191906000526020600020905b81548152906001019060200180831161159f57829003601f168201915b505050505086611a72565b60010161142c565b50600282018190556040517f9a2e42fd6722813d69113e7d0079d3d940171428df7373df9c7f7617cfda289290610c0e9085908490612fba565b7f8e25870c07e0b0b3884c78da52790939a455c275406c44ae8b434b692fb916ee81565b611635611da4565b5060008281526004602090815260408083206001600160a01b0385168452600c018252918290208251606081018452905460ff80821615158352610100820416151592820192909252620100009091046001600160601b0316918101919091525b92915050565b60056116a7826108d7565b60078111156116b257fe5b146116cf5760405162461bcd60e51b8152600401610586906127be565b6000818152600460205260408120600b8101805461ff001916610100179055905b6003820154811015611825576000546004830180546001600160a01b0390921691630825f38f91908490811061172257fe5b906000526020600020015484600301848154811061173c57fe5b6000918252602090912001546004860180546001600160a01b03909216918690811061176457fe5b906000526020600020015486600501868154811061177e57fe5b9060005260206000200187600601878154811061179757fe5b9060005260206000200188600201546040518763ffffffff1660e01b81526004016117c69594939291906125dc565b6000604051808303818588803b1580156117df57600080fd5b505af11580156117f3573d6000803e3d6000fd5b50505050506040513d6000823e601f3d908101601f1916820160405261181c9190810190612214565b506001016116f0565b507f712ae1383f79ac853f8d882153778e0260ef8f03b504e2866e0593e04d2b291f82604051611855919061266d565b60405180910390a15050565b600161186c836108d7565b600781111561187757fe5b146118945760405162461bcd60e51b815260040161058690612e08565b60008281526004602090815260408083206001600160a01b0387168452600c8101909252909120805460ff16156118dd5760405162461bcd60e51b8152600401610586906129be565b6001546040516370a0823160e01b81526000916001600160a01b0316906370a082319061190e9033906004016124df565b60206040518083038186803b15801561192657600080fd5b505afa15801561193a573d6000803e3d6000fd5b505050506040513d601f19601f8201168201806040525081019061195e91906121fc565b1161197b5760405162461bcd60e51b815260040161058690612829565b600183156119a45761199a8360090154826001600160601b0316611a42565b60098401556119c1565b6119bb83600a0154826001600160601b0316611a42565b600a8401555b8154600160ff199091161761ff00191661010085151502176dffffffffffffffffffffffff00001916620100006001600160601b038316021782556040517f877856338e13f63d0c36822ff0ef736b80934cd90574a3a5bc9262c39d217c4690611a3290889088908890869061255f565b60405180910390a1505050505050565b600082820183811015611a675760405162461bcd60e51b815260040161058690612b46565b9392505050565b4690565b6000546040516001600160a01b039091169063f2b0653790611aa09088908890889088908890602001612590565b604051602081830303815290604052805190602001206040518263ffffffff1660e01b8152600401611ad2919061266d565b60206040518083038186803b158015611aea57600080fd5b505afa158015611afe573d6000803e3d6000fd5b505050506040513d601f19601f82011682018060405250810190611b2291906121e0565b15611b3f5760405162461bcd60e51b815260040161058690612c2a565b600054604051633a66f90160e01b81526001600160a01b0390911690633a66f90190611b779088908890889088908890600401612590565b602060405180830381600087803b158015611b9157600080fd5b505af1158015611ba5573d6000803e3d6000fd5b505050506040513d601f19601f82011682018060405250810190611bc991906121fc565b505050505050565b604051806101a001604052806000815260200160006001600160a01b031681526020016000815260200160608152602001606081526020016060815260200160608152602001600081526020016000815260200160008152602001600081526020016000151581526020016000151581525090565b828054828255906000526020600020908101928215611c9b579160200282015b82811115611c9b57825182546001600160a01b0319166001600160a01b03909116178255602090920191600190910190611c66565b50611ca7929150611dc4565b5090565b828054828255906000526020600020908101928215611ce6579160200282015b82811115611ce6578251825591602001919060010190611ccb565b50611ca7929150611de3565b828054828255906000526020600020908101928215611d3f579160200282015b82811115611d3f5782518051611d2f918491602090910190611df8565b5091602001919060010190611d12565b50611ca7929150611e65565b828054828255906000526020600020908101928215611d98579160200282015b82811115611d985782518051611d88918491602090910190611df8565b5091602001919060010190611d6b565b50611ca7929150611e82565b604080516060810182526000808252602082018190529181019190915290565b5b80821115611ca75780546001600160a01b0319168155600101611dc5565b5b80821115611ca75760008155600101611de4565b828054600181600116156101000203166002900490600052602060002090601f016020900481019282601f10611e3957805160ff1916838001178555611ce6565b82800160010185558215611ce65791820182811115611ce6578251825591602001919060010190611ccb565b80821115611ca7576000611e798282611e9f565b50600101611e65565b80821115611ca7576000611e968282611e9f565b50600101611e82565b50805460018160011615610100020316600290046000825580601f10611ec55750611ee3565b601f016020900490600052602060002090810190611ee39190611de3565b50565b80356001600160a01b038116811461169657600080fd5b600082601f830112611f0d578081fd5b8135611f20611f1b82612fef565b612fc8565b818152915060208083019084810181840286018201871015611f4157600080fd5b60005b84811015611f6857611f568883611ee6565b84529282019290820190600101611f44565b505050505092915050565b600082601f830112611f83578081fd5b8135611f91611f1b82612fef565b818152915060208083019084810160005b84811015611f6857611fb9888484358a0101612081565b84529282019290820190600101611fa2565b600082601f830112611fdb578081fd5b8135611fe9611f1b82612fef565b818152915060208083019084810160005b84811015611f6857612011888484358a0101612081565b84529282019290820190600101611ffa565b600082601f830112612033578081fd5b8135612041611f1b82612fef565b81815291506020808301908481018184028601820187101561206257600080fd5b60005b84811015611f6857813584529282019290820190600101612065565b600082601f830112612091578081fd5b813561209f611f1b8261300f565b91508082528360208285010111156120b657600080fd5b8060208401602084013760009082016020015292915050565b6000602082840312156120e0578081fd5b611a678383611ee6565b600080604083850312156120fc578081fd5b6121068484611ee6565b946020939093013593505050565b600080600080600060a0868803121561212b578081fd5b853567ffffffffffffffff80821115612142578283fd5b61214e89838a01611efd565b96506020880135915080821115612163578283fd5b61216f89838a01612023565b95506040880135915080821115612184578283fd5b61219089838a01611fcb565b945060608801359150808211156121a5578283fd5b6121b189838a01611f73565b935060808801359150808211156121c6578283fd5b506121d388828901612081565b9150509295509295909350565b6000602082840312156121f1578081fd5b8151611a678161306b565b60006020828403121561220d578081fd5b5051919050565b600060208284031215612225578081fd5b815167ffffffffffffffff81111561223b578182fd5b8201601f8101841361224b578182fd5b8051612259611f1b8261300f565b81815285602083850101111561226d578384fd5b61227e82602083016020860161303f565b95945050505050565b600060208284031215612298578081fd5b5035919050565b600080604083850312156122b1578182fd5b823591506122c28460208501611ee6565b90509250929050565b600080604083850312156122dd578182fd5b8235915060208301356122ef8161306b565b809150509250929050565b600080600080600060a08688031215612311578283fd5b8535945060208601356123238161306b565b9350604086013560ff81168114612338578384fd5b94979396509394606081013594506080013592915050565b6000815180845260208085019450808401835b838110156123885781516001600160a01b031687529582019590820190600101612363565b509495945050505050565b6000815180845260208085018081965082840281019150828601855b858110156123d95782840389526123c7848351612415565b988501989350908401906001016123af565b5091979650505050505050565b6000815180845260208085019450808401835b83811015612388578151875295820195908201906001016123f9565b6000815180845261242d81602086016020860161303f565b601f01601f19169290920160200192915050565b6000815460018082166000811461245f576001811461247d576124bb565b60028304607f16865260ff19831660208701526040860193506124bb565b6002830480875261248d86613033565b60005b828110156124b15781546020828b0101528482019150602081019050612490565b8801602001955050505b50505092915050565b61190160f01b81526002810192909252602282015260420190565b6001600160a01b0391909116815260200190565b600060018060a01b038616825284602083015260a06040830152601860a08301527f73657450656e64696e6741646d696e286164647265737329000000000000000060c083015260e0606083015261254e60e0830185612415565b905082608083015295945050505050565b6001600160a01b039490941684526020840192909252151560408301526001600160601b0316606082015260800190565b600060018060a01b038716825285602083015260a060408301526125b760a0830186612415565b82810360608401526125c98186612415565b9150508260808301529695505050505050565b600060018060a01b038716825285602083015260a0604083015261260360a0830186612441565b82810360608401526125c98186612441565b6000608082526126286080830187612350565b828103602084015261263a81876123e6565b9050828103604084015261264e8186612393565b905082810360608401526126628185612393565b979650505050505050565b90815260200190565b938452602084019290925260408301526001600160a01b0316606082015260800190565b92835260208301919091521515604082015260600190565b93845260ff9290921660208401526040830152606082015260800190565b60208101600883106126de57fe5b91905290565b600060208252611a676020830184612415565b60208082526039908201527f476f7665726e6f72416c7068613a3a5f5f61636365707441646d696e3a20736560408201527f6e646572206d75737420626520676f7620677561726469616e00000000000000606082015260800190565b60208082526044908201527f476f7665726e6f72416c7068613a3a71756575653a2070726f706f73616c206360408201527f616e206f6e6c79206265207175657565642069662069742069732073756363656060820152631959195960e21b608082015260a00190565b60208082526045908201527f476f7665726e6f72416c7068613a3a657865637574653a2070726f706f73616c60408201527f2063616e206f6e6c7920626520657865637574656420696620697420697320716060820152641d595d595960da1b608082015260a00190565b60208082526044908201527f476f7665726e6f72416c7068613a3a70726f706f73653a206d7573742068617660408201527f652061746c656173742031207856454d5020746f6b656e20746f206361737420606082015263766f746560e01b608082015260a00190565b6020808252604a908201527f476f7665726e6f72416c7068613a3a70726f706f73653a206d7573742068617660408201527f652061746c656173742031207856454d5020746f6b656e20746f20637265617460608201526919481c1c9bdc1bdcd85b60b21b608082015260a00190565b6020808252604c908201527f476f7665726e6f72416c7068613a3a5f5f6578656375746553657454696d656c60408201527f6f636b50656e64696e6741646d696e3a2073656e646572206d7573742062652060608201526b33b7bb1033bab0b93234b0b760a11b608082015260a00190565b60208082526029908201527f476f7665726e6f72416c7068613a3a73746174653a20696e76616c69642070726040820152681bdc1bdcd85b081a5960ba1b606082015260800190565b6020808252602d908201527f476f7665726e6f72416c7068613a3a5f63617374566f74653a20766f7465722060408201526c185b1c9958591e481d9bdd1959609a1b606082015260800190565b60208082526059908201527f476f7665726e6f72416c7068613a3a70726f706f73653a206f6e65206c69766560408201527f2070726f706f73616c207065722070726f706f7365722c20666f756e6420616e60608201527f20616c72656164792070656e64696e672070726f706f73616c00000000000000608082015260a00190565b6020808252604a908201527f476f7665726e6f72416c7068613a3a5f5f717565756553657454696d656c6f6360408201527f6b50656e64696e6741646d696e3a2073656e646572206d75737420626520676f6060820152693b1033bab0b93234b0b760b11b608082015260a00190565b60208082526028908201527f476f7665726e6f72416c7068613a3a70726f706f73653a20746f6f206d616e7960408201526720616374696f6e7360c01b606082015260800190565b6020808252601190820152706164646974696f6e206f766572666c6f7760781b604082015260600190565b60208082526044908201527f476f7665726e6f72416c7068613a3a70726f706f73653a2070726f706f73616c60408201527f2066756e6374696f6e20696e666f726d6174696f6e206172697479206d69736d6060820152630c2e8c6d60e31b608082015260a00190565b6020808252602f908201527f476f7665726e6f72416c7068613a3a63616e63656c3a2070726f706f7365722060408201526e18589bdd99481d1a1c995cda1bdb19608a1b606082015260800190565b60208082526044908201527f476f7665726e6f72416c7068613a3a5f71756575654f725265766572743a207060408201527f726f706f73616c20616374696f6e20616c7265616479207175657565642061746060820152632065746160e01b608082015260a00190565b6020808252602c908201527f476f7665726e6f72416c7068613a3a70726f706f73653a206d7573742070726f60408201526b7669646520616374696f6e7360a01b606082015260800190565b6020808252602f908201527f476f7665726e6f72416c7068613a3a63617374566f746542795369673a20696e60408201526e76616c6964207369676e617475726560881b606082015260800190565b60208082526058908201527f476f7665726e6f72416c7068613a3a70726f706f73653a206f6e65206c69766560408201527f2070726f706f73616c207065722070726f706f7365722c20666f756e6420616e60608201527f20616c7265616479206163746976652070726f706f73616c0000000000000000608082015260a00190565b60208082526036908201527f476f7665726e6f72416c7068613a3a63616e63656c3a2063616e6e6f742063616040820152751b98d95b08195e1958dd5d1959081c1c9bdc1bdcd85b60521b606082015260800190565b6020808252602a908201527f476f7665726e6f72416c7068613a3a5f63617374566f74653a20766f74696e67604082015269081a5cc818db1bdcd95960b21b606082015260800190565b60208082526036908201527f476f7665726e6f72416c7068613a3a5f5f61626469636174653a2073656e6465604082015275391036bab9ba1031329033b7bb1033bab0b93234b0b760511b606082015260800190565b8151151581526020808301511515908201526040918201516001600160601b03169181019190915260600190565b8981526001600160a01b038916602082015261012060408201819052600090612f018382018b612350565b90508281036060840152612f15818a6123e6565b90508281036080840152612f298189612393565b905082810360a0840152612f3d8188612393565b90508560c08401528460e0840152828103610100840152612f5e8185612415565b9c9b505050505050505050505050565b9889526001600160a01b0397909716602089015260408801959095526060870193909352608086019190915260a085015260c0840152151560e083015215156101008201526101200190565b918252602082015260400190565b60405181810167ffffffffffffffff81118282101715612fe757600080fd5b604052919050565b600067ffffffffffffffff821115613005578081fd5b5060209081020190565b600067ffffffffffffffff821115613025578081fd5b50601f01601f191660200190565b60009081526020902090565b60005b8381101561305a578181015183820152602001613042565b83811115610f805750506000910152565b8015158114611ee357600080fdfea26469706673582212200d2b31682b8d334fc23840e650cd90a52d7b6bac302dc4c5f77235a059cc00ee64736f6c634300060c0033",
  "immutableReferences": {},
  "source": "//SPDX-License-Identifier: Unlicensed\n\npragma solidity ^0.6.12;\npragma experimental ABIEncoderV2;\n\nimport \"../interface/TimelockInterface.sol\";\nimport \"../interface/xVempInterface.sol\";\n\ncontract GovernorAlpha {\n    // @notice The name of this contract\n    string public constant name = \"VEMPIRE Governor Alpha\";\n\n    // @notice The number of votes in support of a proposal required in order for a quorum to be reached and for a vote to succeed\n    function quorumVotes() public pure returns (uint) { return 1; }\n\n    // @notice The maximum number of actions that can be included in a proposal\n    function proposalMaxOperations() public pure returns (uint) { return 10; } // 10 actions\n\n    // @notice The delay before voting on a proposal may take place, once proposed\n    function votingDelay() public pure returns (uint) { return 1; } // 1 block\n\n    // @notice The duration of voting on a proposal, in blocks\n    function votingPeriod() public pure returns (uint) { return 500; } // ~3 days in blocks (assuming 15s blocks)\n\n    // @notice The address of the VEMPIRE Protocol Timelock\n    TimelockInterface public timelock;\n\n    // @notice The address of the VEMPIRE governance token\n    xVempInterface public xVemp;\n\n    // @notice The address of the Governor Guardian\n    address public guardian;\n\n    // @notice The total number of proposals\n    uint public proposalCount;\n\n    struct Proposal {\n        // @notice Unique id for looking up a proposal\n        uint id;\n\n        // @notice Creator of the proposal\n        address proposer;\n\n        // @notice The timestamp that the proposal will be available for execution, set once the vote succeeds\n        uint eta;\n\n        // @notice the ordered list of target addresses for calls to be made\n        address[] targets;\n\n        // @notice The ordered list of values (i.e. msg.value) to be passed to the calls to be made\n        uint[] values;\n\n        // @notice The ordered list of function signatures to be called\n        string[] signatures;\n\n        // @notice The ordered list of calldata to be passed to each call\n        bytes[] calldatas;\n\n        // @notice The block at which voting begins: holders must delegate their votes prior to this block\n        uint startBlock;\n\n        // @notice The block at which voting ends: votes must be cast prior to this block\n        uint endBlock;\n\n        // @notice Current number of votes in favor of this proposal\n        uint forVotes;\n\n        // @notice Current number of votes in opposition to this proposal\n        uint againstVotes;\n\n        // @notice Flag marking whether the proposal has been canceled\n        bool canceled;\n\n        // @notice Flag marking whether the proposal has been executed\n        bool executed;\n\n        // @notice Receipts of ballots for the entire set of voters\n        mapping (address => Receipt) receipts;\n    }\n\n    // @notice Ballot receipt record for a voter\n    struct Receipt {\n        // @notice Whether or not a vote has been cast\n        bool hasVoted;\n\n        // @notice Whether or not the voter supports the proposal\n        bool support;\n\n        // @notice The number of votes the voter had, which were cast\n        uint96 votes;\n    }\n\n    // @notice Possible states that a proposal may be in\n    enum ProposalState {\n        Pending,\n        Active,\n        Canceled,\n        Defeated,\n        Succeeded,\n        Queued,\n        Expired,\n        Executed\n    }\n\n    // @notice The official record of all proposals ever proposed\n    mapping (uint => Proposal) public proposals;\n\n    // @notice The latest proposal for each proposer\n    mapping (address => uint) public latestProposalIds;\n\n    // @notice The EIP-712 typehash for the contract's domain\n    bytes32 public constant DOMAIN_TYPEHASH = keccak256(\"EIP712Domain(string name,uint256 chainId,address verifyingContract)\");\n\n    // @notice The EIP-712 typehash for the ballot struct used by the contract\n    bytes32 public constant BALLOT_TYPEHASH = keccak256(\"Ballot(uint256 proposalId,bool support)\");\n\n    // @notice An event emitted when a new proposal is created\n    event ProposalCreated(uint id, address proposer, address[] targets, uint[] values, string[] signatures, bytes[] calldatas, uint startBlock, uint endBlock, string description);\n\n    // @notice An event emitted when a vote has been cast on a proposal\n    event VoteCast(address voter, uint proposalId, bool support, uint votes);\n\n    // @notice An event emitted when a proposal has been canceled\n    event ProposalCanceled(uint id);\n\n    // @notice An event emitted when a proposal has been queued in the Timelock\n    event ProposalQueued(uint id, uint eta);\n\n    // @notice An event emitted when a proposal has been executed in the Timelock\n    event ProposalExecuted(uint id);\n\n    constructor(address timelock_, address xVemp_, address guardian_) public {\n        timelock = TimelockInterface(timelock_);\n        xVemp = xVempInterface(xVemp_);\n        guardian = guardian_;\n    }\n\n    function propose(address[] memory targets, uint[] memory values, string[] memory signatures, bytes[] memory calldatas, string memory description) public returns (uint) {\n        require(xVemp.balanceOf(msg.sender) > 0, \"GovernorAlpha::propose: must have atleast 1 xVEMP token to create proposal\");\n        require(targets.length == values.length && targets.length == signatures.length && targets.length == calldatas.length, \"GovernorAlpha::propose: proposal function information arity mismatch\");\n        require(targets.length != 0, \"GovernorAlpha::propose: must provide actions\");\n        require(targets.length <= proposalMaxOperations(), \"GovernorAlpha::propose: too many actions\");\n\n        uint latestProposalId = latestProposalIds[msg.sender];\n        if (latestProposalId != 0) {\n          ProposalState proposersLatestProposalState = state(latestProposalId);\n          require(proposersLatestProposalState != ProposalState.Active, \"GovernorAlpha::propose: one live proposal per proposer, found an already active proposal\");\n          require(proposersLatestProposalState != ProposalState.Pending, \"GovernorAlpha::propose: one live proposal per proposer, found an already pending proposal\");\n        }\n\n        uint startBlock = add256(block.number, votingDelay());\n        uint endBlock = add256(startBlock, votingPeriod());\n\n        proposalCount++;\n        Proposal memory newProposal = Proposal({\n            id: proposalCount,\n            proposer: msg.sender,\n            eta: 0,\n            targets: targets,\n            values: values,\n            signatures: signatures,\n            calldatas: calldatas,\n            startBlock: startBlock,\n            endBlock: endBlock,\n            forVotes: 0,\n            againstVotes: 0,\n            canceled: false,\n            executed: false\n        });\n\n        proposals[newProposal.id] = newProposal;\n        latestProposalIds[newProposal.proposer] = newProposal.id;\n\n        emit ProposalCreated(newProposal.id, msg.sender, targets, values, signatures, calldatas, startBlock, endBlock, description);\n        return newProposal.id;\n    }\n\n    function queue(uint proposalId) public {\n        require(state(proposalId) == ProposalState.Succeeded, \"GovernorAlpha::queue: proposal can only be queued if it is succeeded\");\n        Proposal storage proposal = proposals[proposalId];\n        uint eta = add256(block.timestamp, timelock.delay());\n        for (uint i = 0; i < proposal.targets.length; i++) {\n            _queueOrRevert(proposal.targets[i], proposal.values[i], proposal.signatures[i], proposal.calldatas[i], eta);\n        }\n        proposal.eta = eta;\n        emit ProposalQueued(proposalId, eta);\n    }\n\n    function _queueOrRevert(address target, uint value, string memory signature, bytes memory data, uint eta) internal {\n        require(!timelock.queuedTransactions(keccak256(abi.encode(target, value, signature, data, eta))), \"GovernorAlpha::_queueOrRevert: proposal action already queued at eta\");\n        timelock.queueTransaction(target, value, signature, data, eta);\n    }\n\n    function execute(uint proposalId) public payable {\n        require(state(proposalId) == ProposalState.Queued, \"GovernorAlpha::execute: proposal can only be executed if it is queued\");\n        Proposal storage proposal = proposals[proposalId];\n        proposal.executed = true;\n        for (uint i = 0; i < proposal.targets.length; i++) {\n            timelock.executeTransaction{value:proposal.values[i]}(proposal.targets[i], proposal.values[i], proposal.signatures[i], proposal.calldatas[i], proposal.eta);\n        }\n        emit ProposalExecuted(proposalId);\n    }\n\n    function cancel(uint proposalId) public {\n        ProposalState state = state(proposalId);\n        require(state != ProposalState.Executed, \"GovernorAlpha::cancel: cannot cancel executed proposal\");\n\n        Proposal storage proposal = proposals[proposalId];\n        require(msg.sender == guardian, \"GovernorAlpha::cancel: proposer above threshold\");\n\n        proposal.canceled = true;\n        for (uint i = 0; i < proposal.targets.length; i++) {\n            timelock.cancelTransaction(proposal.targets[i], proposal.values[i], proposal.signatures[i], proposal.calldatas[i], proposal.eta);\n        }\n\n        emit ProposalCanceled(proposalId);\n    }\n\n    function getActions(uint proposalId) public view returns (address[] memory targets, uint[] memory values, string[] memory signatures, bytes[] memory calldatas) {\n        Proposal storage p = proposals[proposalId];\n        return (p.targets, p.values, p.signatures, p.calldatas);\n    }\n\n    function getReceipt(uint proposalId, address voter) public view returns (Receipt memory) {\n        return proposals[proposalId].receipts[voter];\n    }\n\n    function state(uint proposalId) public view returns (ProposalState) {\n        require(proposalCount >= proposalId && proposalId > 0, \"GovernorAlpha::state: invalid proposal id\");\n        Proposal storage proposal = proposals[proposalId];\n        if (proposal.canceled) {\n            return ProposalState.Canceled;\n        } else if (block.number <= proposal.startBlock) {\n            return ProposalState.Pending;\n        } else if (block.number <= proposal.endBlock) {\n            return ProposalState.Active;\n        } else if (proposal.forVotes <= proposal.againstVotes || proposal.forVotes < quorumVotes()) {\n            return ProposalState.Defeated;\n        } else if (proposal.eta == 0) {\n            return ProposalState.Succeeded;\n        } else if (proposal.executed) {\n            return ProposalState.Executed;\n        } else if (block.timestamp >= add256(proposal.eta, timelock.GRACE_PERIOD())) {\n            return ProposalState.Expired;\n        } else {\n            return ProposalState.Queued;\n        }\n    }\n\n    function castVote(uint proposalId, bool support) public {\n        return _castVote(msg.sender, proposalId, support);\n    }\n\n    function castVoteBySig(uint proposalId, bool support, uint8 v, bytes32 r, bytes32 s) public {\n        bytes32 domainSeparator = keccak256(abi.encode(DOMAIN_TYPEHASH, keccak256(bytes(name)), getChainId(), address(this)));\n        bytes32 structHash = keccak256(abi.encode(BALLOT_TYPEHASH, proposalId, support));\n        bytes32 digest = keccak256(abi.encodePacked(\"\\x19\\x01\", domainSeparator, structHash));\n        address signatory = ecrecover(digest, v, r, s);\n        require(signatory != address(0), \"GovernorAlpha::castVoteBySig: invalid signature\");\n        return _castVote(signatory, proposalId, support);\n    }\n\n    function _castVote(address voter, uint proposalId, bool support) internal {\n        require(state(proposalId) == ProposalState.Active, \"GovernorAlpha::_castVote: voting is closed\");\n        Proposal storage proposal = proposals[proposalId];\n        Receipt storage receipt = proposal.receipts[voter];\n        require(receipt.hasVoted == false, \"GovernorAlpha::_castVote: voter already voted\");\n        require(xVemp.balanceOf(msg.sender) > 0, \"GovernorAlpha::propose: must have atleast 1 xVEMP token to cast vote\");\n        \n        uint96 voterVote = 1;\n        if (support) {\n            proposal.forVotes = add256(proposal.forVotes, voterVote);\n        } else {\n            proposal.againstVotes = add256(proposal.againstVotes, voterVote);\n        }\n\n        receipt.hasVoted = true;\n        receipt.support = support;\n        receipt.votes = voterVote;\n\n        emit VoteCast(voter, proposalId, support, voterVote);\n    }\n\n    function __acceptAdmin() public {\n        require(msg.sender == guardian, \"GovernorAlpha::__acceptAdmin: sender must be gov guardian\");\n        timelock.acceptAdmin();\n    }\n\n    function __abdicate() public {\n        require(msg.sender == guardian, \"GovernorAlpha::__abdicate: sender must be gov guardian\");\n        guardian = address(0);\n    }\n\n    function __queueSetTimelockPendingAdmin(address newPendingAdmin, uint eta) public {\n        require(msg.sender == guardian, \"GovernorAlpha::__queueSetTimelockPendingAdmin: sender must be gov guardian\");\n        timelock.queueTransaction(address(timelock), 0, \"setPendingAdmin(address)\", abi.encode(newPendingAdmin), eta);\n    }\n\n    function __executeSetTimelockPendingAdmin(address newPendingAdmin, uint eta) public {\n        require(msg.sender == guardian, \"GovernorAlpha::__executeSetTimelockPendingAdmin: sender must be gov guardian\");\n        timelock.executeTransaction(address(timelock), 0, \"setPendingAdmin(address)\", abi.encode(newPendingAdmin), eta);\n    }\n\n    function add256(uint256 a, uint256 b) internal pure returns (uint) {\n        uint c = a + b;\n        require(c >= a, \"addition overflow\");\n        return c;\n    }\n\n    function sub256(uint256 a, uint256 b) internal pure returns (uint) {\n        require(b <= a, \"subtraction underflow\");\n        return a - b;\n    }\n\n    function getChainId() internal pure returns (uint) {\n        uint chainId;\n        assembly { chainId := chainid() }\n        return chainId;\n    }\n}",
  "sourcePath": "/home/jagveer/Videos/Paresh/VEMPIRE/vempire/smart-contract/contracts/governancedao/GovernorAlpha.sol",
  "compiler": {
    "name": "solc",
    "version": "0.6.12+commit.27d51765.Emscripten.clang"
  },
  "schemaVersion": "3.4.2",
  "updatedAt": "2021-08-25T09:57:49.022Z",
  "devdoc": {
    "kind": "dev",
    "methods": {},
    "version": 1
  },
  "userdoc": {
    "kind": "user",
    "methods": {},
    "version": 1
  }
}