{
  "contractName": "MasterChefMana",
  "abi": [
    {
      "inputs": [
        {
          "internalType": "contract IERC20",
          "name": "_VEMP",
          "type": "address"
        },
        {
          "internalType": "address",
          "name": "_devaddr",
          "type": "address"
        },
        {
          "internalType": "uint256",
          "name": "_VEMPPerBlock",
          "type": "uint256"
        },
        {
          "internalType": "uint256",
          "name": "_startBlock",
          "type": "uint256"
        }
      ],
      "stateMutability": "nonpayable",
      "type": "constructor"
    },
    {
      "anonymous": false,
      "inputs": [
        {
          "indexed": true,
          "internalType": "address",
          "name": "user",
          "type": "address"
        },
        {
          "indexed": true,
          "internalType": "uint256",
          "name": "pid",
          "type": "uint256"
        },
        {
          "indexed": false,
          "internalType": "uint256",
          "name": "amount",
          "type": "uint256"
        }
      ],
      "name": "Deposit",
      "type": "event"
    },
    {
      "anonymous": false,
      "inputs": [
        {
          "indexed": true,
          "internalType": "address",
          "name": "user",
          "type": "address"
        },
        {
          "indexed": true,
          "internalType": "uint256",
          "name": "pid",
          "type": "uint256"
        },
        {
          "indexed": false,
          "internalType": "uint256",
          "name": "amount",
          "type": "uint256"
        }
      ],
      "name": "EmergencyWithdraw",
      "type": "event"
    },
    {
      "anonymous": false,
      "inputs": [
        {
          "indexed": true,
          "internalType": "address",
          "name": "previousOwner",
          "type": "address"
        },
        {
          "indexed": true,
          "internalType": "address",
          "name": "newOwner",
          "type": "address"
        }
      ],
      "name": "OwnershipTransferred",
      "type": "event"
    },
    {
      "anonymous": false,
      "inputs": [
        {
          "indexed": true,
          "internalType": "address",
          "name": "user",
          "type": "address"
        },
        {
          "indexed": true,
          "internalType": "uint256",
          "name": "pid",
          "type": "uint256"
        },
        {
          "indexed": false,
          "internalType": "uint256",
          "name": "amount",
          "type": "uint256"
        }
      ],
      "name": "Withdraw",
      "type": "event"
    },
    {
      "inputs": [],
      "name": "BONUS_MULTIPLIER",
      "outputs": [
        {
          "internalType": "uint256",
          "name": "",
          "type": "uint256"
        }
      ],
      "stateMutability": "view",
      "type": "function"
    },
    {
      "inputs": [],
      "name": "VEMP",
      "outputs": [
        {
          "internalType": "contract IERC20",
          "name": "",
          "type": "address"
        }
      ],
      "stateMutability": "view",
      "type": "function"
    },
    {
      "inputs": [],
      "name": "VEMPPerBlock",
      "outputs": [
        {
          "internalType": "uint256",
          "name": "",
          "type": "uint256"
        }
      ],
      "stateMutability": "view",
      "type": "function"
    },
    {
      "inputs": [],
      "name": "devaddr",
      "outputs": [
        {
          "internalType": "address",
          "name": "",
          "type": "address"
        }
      ],
      "stateMutability": "view",
      "type": "function"
    },
    {
      "inputs": [],
      "name": "owner",
      "outputs": [
        {
          "internalType": "address",
          "name": "",
          "type": "address"
        }
      ],
      "stateMutability": "view",
      "type": "function"
    },
    {
      "inputs": [
        {
          "internalType": "uint256",
          "name": "",
          "type": "uint256"
        }
      ],
      "name": "poolInfo",
      "outputs": [
        {
          "internalType": "contract IERC20",
          "name": "lpToken",
          "type": "address"
        },
        {
          "internalType": "uint256",
          "name": "allocPoint",
          "type": "uint256"
        },
        {
          "internalType": "uint256",
          "name": "lastRewardBlock",
          "type": "uint256"
        },
        {
          "internalType": "uint256",
          "name": "accVEMPPerShare",
          "type": "uint256"
        }
      ],
      "stateMutability": "view",
      "type": "function"
    },
    {
      "inputs": [],
      "name": "renounceOwnership",
      "outputs": [],
      "stateMutability": "nonpayable",
      "type": "function"
    },
    {
      "inputs": [],
      "name": "startBlock",
      "outputs": [
        {
          "internalType": "uint256",
          "name": "",
          "type": "uint256"
        }
      ],
      "stateMutability": "view",
      "type": "function"
    },
    {
      "inputs": [],
      "name": "totalAllocPoint",
      "outputs": [
        {
          "internalType": "uint256",
          "name": "",
          "type": "uint256"
        }
      ],
      "stateMutability": "view",
      "type": "function"
    },
    {
      "inputs": [
        {
          "internalType": "address",
          "name": "newOwner",
          "type": "address"
        }
      ],
      "name": "transferOwnership",
      "outputs": [],
      "stateMutability": "nonpayable",
      "type": "function"
    },
    {
      "inputs": [
        {
          "internalType": "uint256",
          "name": "",
          "type": "uint256"
        },
        {
          "internalType": "address",
          "name": "",
          "type": "address"
        }
      ],
      "name": "userInfo",
      "outputs": [
        {
          "internalType": "uint256",
          "name": "amount",
          "type": "uint256"
        },
        {
          "internalType": "uint256",
          "name": "rewardDebt",
          "type": "uint256"
        }
      ],
      "stateMutability": "view",
      "type": "function"
    },
    {
      "inputs": [],
      "name": "poolLength",
      "outputs": [
        {
          "internalType": "uint256",
          "name": "",
          "type": "uint256"
        }
      ],
      "stateMutability": "view",
      "type": "function"
    },
    {
      "inputs": [
        {
          "internalType": "uint256",
          "name": "_allocPoint",
          "type": "uint256"
        },
        {
          "internalType": "contract IERC20",
          "name": "_lpToken",
          "type": "address"
        },
        {
          "internalType": "bool",
          "name": "_withUpdate",
          "type": "bool"
        }
      ],
      "name": "add",
      "outputs": [],
      "stateMutability": "nonpayable",
      "type": "function"
    },
    {
      "inputs": [
        {
          "internalType": "uint256",
          "name": "_pid",
          "type": "uint256"
        },
        {
          "internalType": "uint256",
          "name": "_allocPoint",
          "type": "uint256"
        },
        {
          "internalType": "bool",
          "name": "_withUpdate",
          "type": "bool"
        }
      ],
      "name": "set",
      "outputs": [],
      "stateMutability": "nonpayable",
      "type": "function"
    },
    {
      "inputs": [
        {
          "internalType": "uint256",
          "name": "_from",
          "type": "uint256"
        },
        {
          "internalType": "uint256",
          "name": "_to",
          "type": "uint256"
        }
      ],
      "name": "getMultiplier",
      "outputs": [
        {
          "internalType": "uint256",
          "name": "",
          "type": "uint256"
        }
      ],
      "stateMutability": "pure",
      "type": "function"
    },
    {
      "inputs": [
        {
          "internalType": "uint256",
          "name": "_pid",
          "type": "uint256"
        },
        {
          "internalType": "address",
          "name": "_user",
          "type": "address"
        }
      ],
      "name": "pendingVEMP",
      "outputs": [
        {
          "internalType": "uint256",
          "name": "",
          "type": "uint256"
        }
      ],
      "stateMutability": "view",
      "type": "function"
    },
    {
      "inputs": [],
      "name": "massUpdatePools",
      "outputs": [],
      "stateMutability": "nonpayable",
      "type": "function"
    },
    {
      "inputs": [
        {
          "internalType": "uint256",
          "name": "_pid",
          "type": "uint256"
        }
      ],
      "name": "updatePool",
      "outputs": [],
      "stateMutability": "nonpayable",
      "type": "function"
    },
    {
      "inputs": [
        {
          "internalType": "uint256",
          "name": "_pid",
          "type": "uint256"
        },
        {
          "internalType": "uint256",
          "name": "_amount",
          "type": "uint256"
        }
      ],
      "name": "deposit",
      "outputs": [],
      "stateMutability": "nonpayable",
      "type": "function"
    },
    {
      "inputs": [
        {
          "internalType": "uint256",
          "name": "_newRewardPerBlock",
          "type": "uint256"
        }
      ],
      "name": "updateRewardPerBlock",
      "outputs": [],
      "stateMutability": "nonpayable",
      "type": "function"
    },
    {
      "inputs": [
        {
          "internalType": "address",
          "name": "_devaddr",
          "type": "address"
        }
      ],
      "name": "dev",
      "outputs": [],
      "stateMutability": "nonpayable",
      "type": "function"
    }
  ],
  "bytecode": "0x6080604052600060065534801561001557600080fd5b506040516115553803806115558339818101604052608081101561003857600080fd5b508051602082015160408301516060909301519192909160006100596100e1565b600080546001600160a01b0319166001600160a01b0383169081178255604051929350917f8be0079c531659141344cd1fd0a4f28419497f9722a3daafe3b4186f6b6457e0908290a350600180546001600160a01b039586166001600160a01b03199182161790915560028054949095169316929092179092556003919091556007556100e5565b3390565b611461806100f46000396000f3fe608060405234801561001057600080fd5b50600436106101375760003560e01c806364482f79116100b85780638dbb1e3a1161007c5780638dbb1e3a146102e457806393f1a40b14610307578063c2a2543f1461034c578063d49e77cd14610354578063e2bbb1581461035c578063f2fde38b1461037f57610137565b806364482f791461027b578063715018a6146102a65780638aa28550146102ae5780638d88a90e146102b65780638da5cb5b146102dc57610137565b806328f41ed9116100ff57806328f41ed9146101fe5780632fa196ef1461022257806348cd4cb11461024e57806351eb05a614610256578063630b5ba11461027357610137565b806301f8a9761461013c578063081e3eda1461015b5780631526fe271461017557806317caf6f1146101c25780631eaaa045146101ca575b600080fd5b6101596004803603602081101561015257600080fd5b50356103a5565b005b610163610414565b60408051918252519081900360200190f35b6101926004803603602081101561018b57600080fd5b503561041a565b604080516001600160a01b0390951685526020850193909352838301919091526060830152519081900360800190f35b61016361045b565b610159600480360360608110156101e057600080fd5b508035906001600160a01b0360208201351690604001351515610461565b6102066105ea565b604080516001600160a01b039092168252519081900360200190f35b6101636004803603604081101561023857600080fd5b50803590602001356001600160a01b03166105f9565b61016361076f565b6101596004803603602081101561026c57600080fd5b5035610775565b61015961089f565b6101596004803603606081101561029157600080fd5b508035906020810135906040013515156108c2565b61015961099d565b610163610a49565b610159600480360360208110156102cc57600080fd5b50356001600160a01b0316610a4e565b610206610abb565b610163600480360360408110156102fa57600080fd5b5080359060200135610aca565b6103336004803603604081101561031d57600080fd5b50803590602001356001600160a01b0316610af3565b6040805192835260208301919091528051918290030190f35b610163610b17565b610206610b1d565b6101596004803603604081101561037257600080fd5b5080359060200135610b2c565b6101596004803603602081101561039557600080fd5b50356001600160a01b0316610c31565b6103ad610d33565b6001600160a01b03166103be610abb565b6001600160a01b031614610407576040805162461bcd60e51b815260206004820181905260248201526000805160206113e2833981519152604482015290519081900360640190fd5b61040f61089f565b600355565b60045490565b6004818154811061042757fe5b600091825260209091206004909102018054600182015460028301546003909301546001600160a01b039092169350919084565b60065481565b610469610d33565b6001600160a01b031661047a610abb565b6001600160a01b0316146104c3576040805162461bcd60e51b815260206004820181905260248201526000805160206113e2833981519152604482015290519081900360640190fd5b80156104d1576104d161089f565b600060075443116104e4576007546104e6565b435b6006549091506104f69085610d37565b600655604080516080810182526001600160a01b03948516815260208101958652908101918252600060608201818152600480546001810182559281905292517f8a35acfbc15ff81a39ae7d344fd709f28e8600b4aa8c65c6b64bfe7fe36bd19b9290930291820180546001600160a01b031916939096169290921790945593517f8a35acfbc15ff81a39ae7d344fd709f28e8600b4aa8c65c6b64bfe7fe36bd19c840155517f8a35acfbc15ff81a39ae7d344fd709f28e8600b4aa8c65c6b64bfe7fe36bd19d8301555090517f8a35acfbc15ff81a39ae7d344fd709f28e8600b4aa8c65c6b64bfe7fe36bd19e90910155565b6001546001600160a01b031681565b6000806004848154811061060957fe5b600091825260208083208784526005825260408085206001600160a01b03898116875290845281862060049586029093016003810154815484516370a0823160e01b81523098810198909852935191985093969395939492909116926370a08231926024808301939192829003018186803b15801561068757600080fd5b505afa15801561069b573d6000803e3d6000fd5b505050506040513d60208110156106b157600080fd5b50516002850154909150431180156106c857508015155b156107345760006106dd856002015443610aca565b9050600061071060065461070a886001015461070460035487610d9890919063ffffffff16565b90610d98565b90610df1565b905061072f6107288461070a8464e8d4a51000610d98565b8590610d37565b935050505b610762836001015461075c64e8d4a5100061070a868860000154610d9890919063ffffffff16565b90610e58565b9450505050505b92915050565b60075481565b60006004828154811061078457fe5b90600052602060002090600402019050806002015443116107a5575061089c565b8054604080516370a0823160e01b815230600482015290516000926001600160a01b0316916370a08231916024808301926020929190829003018186803b1580156107ef57600080fd5b505afa158015610803573d6000803e3d6000fd5b505050506040513d602081101561081957600080fd5b505190508061082f57504360029091015561089c565b600061083f836002015443610aca565b9050600061086660065461070a866001015461070460035487610d9890919063ffffffff16565b905061088961087e8461070a8464e8d4a51000610d98565b600386015490610d37565b6003850155505043600290920191909155505b50565b60045460005b818110156108be576108b681610775565b6001016108a5565b5050565b6108ca610d33565b6001600160a01b03166108db610abb565b6001600160a01b031614610924576040805162461bcd60e51b815260206004820181905260248201526000805160206113e2833981519152604482015290519081900360640190fd5b80156109325761093261089f565b61096f826109696004868154811061094657fe5b906000526020600020906004020160010154600654610e5890919063ffffffff16565b90610d37565b600681905550816004848154811061098357fe5b906000526020600020906004020160010181905550505050565b6109a5610d33565b6001600160a01b03166109b6610abb565b6001600160a01b0316146109ff576040805162461bcd60e51b815260206004820181905260248201526000805160206113e2833981519152604482015290519081900360640190fd5b600080546040516001600160a01b03909116907f8be0079c531659141344cd1fd0a4f28419497f9722a3daafe3b4186f6b6457e0908390a3600080546001600160a01b0319169055565b600181565b6002546001600160a01b03163314610a99576040805162461bcd60e51b81526020600482015260096024820152686465763a207775743f60b81b604482015290519081900360640190fd5b600280546001600160a01b0319166001600160a01b0392909216919091179055565b6000546001600160a01b031690565b6000828210610ae957610ae260016107048486610e58565b9050610769565b610ae28383610e58565b60056020908152600092835260408084209091529082529020805460019091015482565b60035481565b6002546001600160a01b031681565b600060048381548110610b3b57fe5b60009182526020808320868452600582526040808520338652909252922060049091029091019150610b6c84610775565b805415610baf576000610ba1826001015461075c64e8d4a5100061070a87600301548760000154610d9890919063ffffffff16565b9050610bad3382610eb5565b505b8154610bc6906001600160a01b0316333086611046565b8054610bd29084610d37565b8082556003830154610bef9164e8d4a510009161070a9190610d98565b6001820155604080518481529051859133917f90890809c654f11d6e72a28fa60149770a0d11ec6c92319d6ceb2bb0a4ea1a159181900360200190a350505050565b610c39610d33565b6001600160a01b0316610c4a610abb565b6001600160a01b031614610c93576040805162461bcd60e51b815260206004820181905260248201526000805160206113e2833981519152604482015290519081900360640190fd5b6001600160a01b038116610cd85760405162461bcd60e51b81526004018080602001828103825260268152602001806113756026913960400191505060405180910390fd5b600080546040516001600160a01b03808516939216917f8be0079c531659141344cd1fd0a4f28419497f9722a3daafe3b4186f6b6457e091a3600080546001600160a01b0319166001600160a01b0392909216919091179055565b3390565b600082820183811015610d91576040805162461bcd60e51b815260206004820152601b60248201527f536166654d6174683a206164646974696f6e206f766572666c6f770000000000604482015290519081900360640190fd5b9392505050565b600082610da757506000610769565b82820282848281610db457fe5b0414610d915760405162461bcd60e51b81526004018080602001828103825260218152602001806113c16021913960400191505060405180910390fd5b6000808211610e47576040805162461bcd60e51b815260206004820152601a60248201527f536166654d6174683a206469766973696f6e206279207a65726f000000000000604482015290519081900360640190fd5b818381610e5057fe5b049392505050565b600082821115610eaf576040805162461bcd60e51b815260206004820152601e60248201527f536166654d6174683a207375627472616374696f6e206f766572666c6f770000604482015290519081900360640190fd5b50900390565b600154604080516370a0823160e01b815230600482015290516000926001600160a01b0316916370a08231916024808301926020929190829003018186803b158015610f0057600080fd5b505afa158015610f14573d6000803e3d6000fd5b505050506040513d6020811015610f2a57600080fd5b5051905080821115610fbe576001546040805163a9059cbb60e01b81526001600160a01b038681166004830152602482018590529151919092169163a9059cbb9160448083019260209291908290030181600087803b158015610f8c57600080fd5b505af1158015610fa0573d6000803e3d6000fd5b505050506040513d6020811015610fb657600080fd5b506110419050565b6001546040805163a9059cbb60e01b81526001600160a01b038681166004830152602482018690529151919092169163a9059cbb9160448083019260209291908290030181600087803b15801561101457600080fd5b505af1158015611028573d6000803e3d6000fd5b505050506040513d602081101561103e57600080fd5b50505b505050565b604080516001600160a01b0380861660248301528416604482015260648082018490528251808303909101815260849091019091526020810180516001600160e01b03166323b872dd60e01b1790526110a09085906110a6565b50505050565b60606110fb826040518060400160405280602081526020017f5361666545524332303a206c6f772d6c6576656c2063616c6c206661696c6564815250856001600160a01b03166111579092919063ffffffff16565b8051909150156110415780806020019051602081101561111a57600080fd5b50516110415760405162461bcd60e51b815260040180806020018281038252602a815260200180611402602a913960400191505060405180910390fd5b6060611166848460008561116e565b949350505050565b6060824710156111af5760405162461bcd60e51b815260040180806020018281038252602681526020018061139b6026913960400191505060405180910390fd5b6111b8856112ca565b611209576040805162461bcd60e51b815260206004820152601d60248201527f416464726573733a2063616c6c20746f206e6f6e2d636f6e7472616374000000604482015290519081900360640190fd5b60006060866001600160a01b031685876040518082805190602001908083835b602083106112485780518252601f199092019160209182019101611229565b6001836020036101000a03801982511681845116808217855250505050505090500191505060006040518083038185875af1925050503d80600081146112aa576040519150601f19603f3d011682016040523d82523d6000602084013e6112af565b606091505b50915091506112bf8282866112d0565b979650505050505050565b3b151590565b606083156112df575081610d91565b8251156112ef5782518084602001fd5b8160405162461bcd60e51b81526004018080602001828103825283818151815260200191508051906020019080838360005b83811015611339578181015183820152602001611321565b50505050905090810190601f1680156113665780820380516001836020036101000a031916815260200191505b509250505060405180910390fdfe4f776e61626c653a206e6577206f776e657220697320746865207a65726f2061646472657373416464726573733a20696e73756666696369656e742062616c616e636520666f722063616c6c536166654d6174683a206d756c7469706c69636174696f6e206f766572666c6f774f776e61626c653a2063616c6c6572206973206e6f7420746865206f776e65725361666545524332303a204552433230206f7065726174696f6e20646964206e6f742073756363656564a2646970667358221220bc99f40e32a81145d5682652cfae5897b0f88858478e652c73ef0fdf9951c09764736f6c634300060c0033",
  "immutableReferences": {},
  "source": "pragma solidity ^0.6.12;\n\nimport \"@openzeppelin/contracts/GSN/Context.sol\";\nimport \"@openzeppelin/contracts/token/ERC20/IERC20.sol\";\nimport \"@openzeppelin/contracts/math/SafeMath.sol\";\nimport \"@openzeppelin/contracts/utils/Address.sol\";\nimport \"@openzeppelin/contracts/access/Ownable.sol\";\nimport \"@openzeppelin/contracts/token/ERC20/SafeERC20.sol\";\n\n// MasterChef is the master of VEMP. He can make VEMP and he is a fair guy.\n//\n// Note that it's ownable and the owner wields tremendous power. The ownership\n// will be transferred to a governance smart contract once VEMP is sufficiently\n// distributed and the community can show to govern itself.\n//\n// Have fun reading it. Hopefully it's bug-free. God bless.\ncontract MasterChefMana is Ownable {\n    using SafeMath for uint256;\n    using SafeERC20 for IERC20;\n\n    // Info of each user.\n    struct UserInfo {\n        uint256 amount;     // How many LP tokens the user has provided.\n        uint256 rewardDebt; // Reward debt. See explanation below.\n        //\n        // We do some fancy math here. Basically, any point in time, the amount of VEMPs\n        // entitled to a user but is pending to be distributed is:\n        //\n        //   pending reward = (user.amount * pool.accVEMPPerShare) - user.rewardDebt\n        //\n        // Whenever a user deposits or withdraws LP tokens to a pool. Here's what happens:\n        //   1. The pool's `accVEMPPerShare` (and `lastRewardBlock`) gets updated.\n        //   2. User receives the pending reward sent to his/her address.\n        //   3. User's `amount` gets updated.\n        //   4. User's `rewardDebt` gets updated.\n    }\n\n    // Info of each pool.\n    struct PoolInfo {\n        IERC20 lpToken;           // Address of LP token contract.\n        uint256 allocPoint;       // How many allocation points assigned to this pool. VEMPs to distribute per block.\n        uint256 lastRewardBlock;  // Last block number that VEMPs distribution occurs.\n        uint256 accVEMPPerShare; // Accumulated VEMPs per share, times 1e12. See below.\n    }\n\n    // The VEMP TOKEN!\n    IERC20 public VEMP;\n    // Dev address.\n    address public devaddr;\n    // VEMP tokens created per block.\n    uint256 public VEMPPerBlock;\n    // Bonus muliplier for early VEMP makers.\n    uint256 public constant BONUS_MULTIPLIER = 1;\n\n    // Info of each pool.\n    PoolInfo[] public poolInfo;\n    // Info of each user that stakes LP tokens.\n    mapping (uint256 => mapping (address => UserInfo)) public userInfo;\n    // Total allocation poitns. Must be the sum of all allocation points in all pools.\n    uint256 public totalAllocPoint = 0;\n    // The block number when VEMP mining starts.\n    uint256 public startBlock;\n\n    event Deposit(address indexed user, uint256 indexed pid, uint256 amount);\n    event Withdraw(address indexed user, uint256 indexed pid, uint256 amount);\n    event EmergencyWithdraw(address indexed user, uint256 indexed pid, uint256 amount);\n\n    constructor(\n        IERC20 _VEMP,\n        address _devaddr,\n        uint256 _VEMPPerBlock,\n        uint256 _startBlock\n    ) public {\n        VEMP = _VEMP;\n        devaddr = _devaddr;\n        VEMPPerBlock = _VEMPPerBlock;\n        startBlock = _startBlock;\n    }\n\n    function poolLength() external view returns (uint256) {\n        return poolInfo.length;\n    }\n\n    // Add a new lp to the pool. Can only be called by the owner.\n    // XXX DO NOT add the same LP token more than once. Rewards will be messed up if you do.\n    function add(uint256 _allocPoint, IERC20 _lpToken, bool _withUpdate) public onlyOwner {\n        if (_withUpdate) {\n            massUpdatePools();\n        }\n        uint256 lastRewardBlock = block.number > startBlock ? block.number : startBlock;\n        totalAllocPoint = totalAllocPoint.add(_allocPoint);\n        poolInfo.push(PoolInfo({\n            lpToken: _lpToken,\n            allocPoint: _allocPoint,\n            lastRewardBlock: lastRewardBlock,\n            accVEMPPerShare: 0\n        }));\n    }\n\n    // Update the given pool's VEMP allocation point. Can only be called by the owner.\n    function set(uint256 _pid, uint256 _allocPoint, bool _withUpdate) public onlyOwner {\n        if (_withUpdate) {\n            massUpdatePools();\n        }\n        totalAllocPoint = totalAllocPoint.sub(poolInfo[_pid].allocPoint).add(_allocPoint);\n        poolInfo[_pid].allocPoint = _allocPoint;\n    }\n    \n    // Return reward multiplier over the given _from to _to block.\n    function getMultiplier(uint256 _from, uint256 _to) public pure returns (uint256) {\n        if (_to >= _from) {\n            return _to.sub(_from).mul(BONUS_MULTIPLIER);\n        } else {\n            return _from.sub(_to);\n        }\n    }\n\n    // View function to see pending VEMPs on frontend.\n    function pendingVEMP(uint256 _pid, address _user) external view returns (uint256) {\n        PoolInfo storage pool = poolInfo[_pid];\n        UserInfo storage user = userInfo[_pid][_user];\n        uint256 accVEMPPerShare = pool.accVEMPPerShare;\n        uint256 lpSupply = pool.lpToken.balanceOf(address(this));\n        if (block.number > pool.lastRewardBlock && lpSupply != 0) {\n            uint256 multiplier = getMultiplier(pool.lastRewardBlock, block.number);\n            uint256 VEMPReward = multiplier.mul(VEMPPerBlock).mul(pool.allocPoint).div(totalAllocPoint);\n            accVEMPPerShare = accVEMPPerShare.add(VEMPReward.mul(1e12).div(lpSupply));\n        }\n        return user.amount.mul(accVEMPPerShare).div(1e12).sub(user.rewardDebt);\n    }\n\n    // Update reward vairables for all pools. Be careful of gas spending!\n    function massUpdatePools() public {\n        uint256 length = poolInfo.length;\n        for (uint256 pid = 0; pid < length; ++pid) {\n            updatePool(pid);\n        }\n    }\n\n    // Update reward variables of the given pool to be up-to-date.\n    function updatePool(uint256 _pid) public {\n        PoolInfo storage pool = poolInfo[_pid];\n        if (block.number <= pool.lastRewardBlock) {\n            return;\n        }\n        uint256 lpSupply = pool.lpToken.balanceOf(address(this));\n        if (lpSupply == 0) {\n            pool.lastRewardBlock = block.number;\n            return;\n        }\n        uint256 multiplier = getMultiplier(pool.lastRewardBlock, block.number);\n        uint256 VEMPReward = multiplier.mul(VEMPPerBlock).mul(pool.allocPoint).div(totalAllocPoint);\n        pool.accVEMPPerShare = pool.accVEMPPerShare.add(VEMPReward.mul(1e12).div(lpSupply));\n        pool.lastRewardBlock = block.number;\n    }\n\n    // Deposit LP tokens to MasterChef for VEMP allocation.\n    function deposit(uint256 _pid, uint256 _amount) public {\n        PoolInfo storage pool = poolInfo[_pid];\n        UserInfo storage user = userInfo[_pid][msg.sender];\n        updatePool(_pid);\n        if (user.amount > 0) {\n            uint256 pending = user.amount.mul(pool.accVEMPPerShare).div(1e12).sub(user.rewardDebt);\n            safeVEMPTransfer(msg.sender, pending);\n        }\n        pool.lpToken.safeTransferFrom(address(msg.sender), address(this), _amount);\n        user.amount = user.amount.add(_amount);\n        user.rewardDebt = user.amount.mul(pool.accVEMPPerShare).div(1e12);\n        emit Deposit(msg.sender, _pid, _amount);\n    }\n\n    // Safe VEMP transfer function, just in case if rounding error causes pool to not have enough VEMPs.\n    function safeVEMPTransfer(address _to, uint256 _amount) internal {\n        uint256 VEMPBal = VEMP.balanceOf(address(this));\n        if (_amount > VEMPBal) {\n            VEMP.transfer(_to, VEMPBal);\n        } else {\n            VEMP.transfer(_to, _amount);\n        }\n    }\n    \n    // Update Reward per block\n    function updateRewardPerBlock(uint256 _newRewardPerBlock) public onlyOwner {\n        massUpdatePools();\n        VEMPPerBlock = _newRewardPerBlock;\n    }\n\n    // Update dev address by the previous dev.\n    function dev(address _devaddr) public {\n        require(msg.sender == devaddr, \"dev: wut?\");\n        devaddr = _devaddr;\n    }\n}",
  "sourcePath": "/home/jagveer/Videos/Paresh/VEMPIRE/vempire/smart-contract/contracts/staking/MasterChefMana.sol",
  "compiler": {
    "name": "solc",
    "version": "0.6.12+commit.27d51765.Emscripten.clang"
  },
  "schemaVersion": "3.4.2",
  "updatedAt": "2021-08-24T13:34:06.084Z",
  "devdoc": {
    "kind": "dev",
    "methods": {
      "owner()": {
        "details": "Returns the address of the current owner."
      },
      "renounceOwnership()": {
        "details": "Leaves the contract without owner. It will not be possible to call `onlyOwner` functions anymore. Can only be called by the current owner. NOTE: Renouncing ownership will leave the contract without an owner, thereby removing any functionality that is only available to the owner."
      },
      "transferOwnership(address)": {
        "details": "Transfers ownership of the contract to a new account (`newOwner`). Can only be called by the current owner."
      }
    },
    "version": 1
  },
  "userdoc": {
    "kind": "user",
    "methods": {},
    "version": 1
  }
}