{
  "contractName": "MasterChefVemp",
  "abi": [
    {
      "inputs": [
        {
          "internalType": "contract IERC20",
          "name": "_xVEMP",
          "type": "address"
        },
        {
          "internalType": "address",
          "name": "_devaddr",
          "type": "address"
        },
        {
          "internalType": "uint256",
          "name": "_xVEMPPerBlock",
          "type": "uint256"
        },
        {
          "internalType": "uint256",
          "name": "_startBlock",
          "type": "uint256"
        },
        {
          "internalType": "uint256",
          "name": "_bonusEndBlock",
          "type": "uint256"
        }
      ],
      "stateMutability": "nonpayable",
      "type": "constructor"
    },
    {
      "anonymous": false,
      "inputs": [
        {
          "indexed": true,
          "internalType": "address",
          "name": "user",
          "type": "address"
        },
        {
          "indexed": true,
          "internalType": "uint256",
          "name": "pid",
          "type": "uint256"
        },
        {
          "indexed": false,
          "internalType": "uint256",
          "name": "amount",
          "type": "uint256"
        }
      ],
      "name": "Deposit",
      "type": "event"
    },
    {
      "anonymous": false,
      "inputs": [
        {
          "indexed": true,
          "internalType": "address",
          "name": "user",
          "type": "address"
        },
        {
          "indexed": true,
          "internalType": "uint256",
          "name": "pid",
          "type": "uint256"
        },
        {
          "indexed": false,
          "internalType": "uint256",
          "name": "amount",
          "type": "uint256"
        }
      ],
      "name": "EmergencyWithdraw",
      "type": "event"
    },
    {
      "anonymous": false,
      "inputs": [
        {
          "indexed": true,
          "internalType": "address",
          "name": "previousOwner",
          "type": "address"
        },
        {
          "indexed": true,
          "internalType": "address",
          "name": "newOwner",
          "type": "address"
        }
      ],
      "name": "OwnershipTransferred",
      "type": "event"
    },
    {
      "anonymous": false,
      "inputs": [
        {
          "indexed": true,
          "internalType": "address",
          "name": "user",
          "type": "address"
        },
        {
          "indexed": true,
          "internalType": "uint256",
          "name": "pid",
          "type": "uint256"
        },
        {
          "indexed": false,
          "internalType": "uint256",
          "name": "amount",
          "type": "uint256"
        }
      ],
      "name": "Withdraw",
      "type": "event"
    },
    {
      "inputs": [],
      "name": "BONUS_MULTIPLIER",
      "outputs": [
        {
          "internalType": "uint256",
          "name": "",
          "type": "uint256"
        }
      ],
      "stateMutability": "view",
      "type": "function"
    },
    {
      "inputs": [],
      "name": "bonusEndBlock",
      "outputs": [
        {
          "internalType": "uint256",
          "name": "",
          "type": "uint256"
        }
      ],
      "stateMutability": "view",
      "type": "function"
    },
    {
      "inputs": [],
      "name": "devaddr",
      "outputs": [
        {
          "internalType": "address",
          "name": "",
          "type": "address"
        }
      ],
      "stateMutability": "view",
      "type": "function"
    },
    {
      "inputs": [],
      "name": "owner",
      "outputs": [
        {
          "internalType": "address",
          "name": "",
          "type": "address"
        }
      ],
      "stateMutability": "view",
      "type": "function"
    },
    {
      "inputs": [
        {
          "internalType": "uint256",
          "name": "",
          "type": "uint256"
        }
      ],
      "name": "poolInfo",
      "outputs": [
        {
          "internalType": "contract IERC20",
          "name": "lpToken",
          "type": "address"
        },
        {
          "internalType": "uint256",
          "name": "allocPoint",
          "type": "uint256"
        },
        {
          "internalType": "uint256",
          "name": "lastRewardBlock",
          "type": "uint256"
        },
        {
          "internalType": "uint256",
          "name": "accxVEMPPerShare",
          "type": "uint256"
        }
      ],
      "stateMutability": "view",
      "type": "function"
    },
    {
      "inputs": [],
      "name": "renounceOwnership",
      "outputs": [],
      "stateMutability": "nonpayable",
      "type": "function"
    },
    {
      "inputs": [],
      "name": "startBlock",
      "outputs": [
        {
          "internalType": "uint256",
          "name": "",
          "type": "uint256"
        }
      ],
      "stateMutability": "view",
      "type": "function"
    },
    {
      "inputs": [],
      "name": "totalAllocPoint",
      "outputs": [
        {
          "internalType": "uint256",
          "name": "",
          "type": "uint256"
        }
      ],
      "stateMutability": "view",
      "type": "function"
    },
    {
      "inputs": [
        {
          "internalType": "address",
          "name": "newOwner",
          "type": "address"
        }
      ],
      "name": "transferOwnership",
      "outputs": [],
      "stateMutability": "nonpayable",
      "type": "function"
    },
    {
      "inputs": [
        {
          "internalType": "uint256",
          "name": "",
          "type": "uint256"
        },
        {
          "internalType": "address",
          "name": "",
          "type": "address"
        }
      ],
      "name": "userInfo",
      "outputs": [
        {
          "internalType": "uint256",
          "name": "amount",
          "type": "uint256"
        },
        {
          "internalType": "uint256",
          "name": "rewardDebt",
          "type": "uint256"
        }
      ],
      "stateMutability": "view",
      "type": "function"
    },
    {
      "inputs": [],
      "name": "xVEMP",
      "outputs": [
        {
          "internalType": "contract IERC20",
          "name": "",
          "type": "address"
        }
      ],
      "stateMutability": "view",
      "type": "function"
    },
    {
      "inputs": [],
      "name": "xVEMPPerBlock",
      "outputs": [
        {
          "internalType": "uint256",
          "name": "",
          "type": "uint256"
        }
      ],
      "stateMutability": "view",
      "type": "function"
    },
    {
      "inputs": [],
      "name": "poolLength",
      "outputs": [
        {
          "internalType": "uint256",
          "name": "",
          "type": "uint256"
        }
      ],
      "stateMutability": "view",
      "type": "function"
    },
    {
      "inputs": [
        {
          "internalType": "uint256",
          "name": "_allocPoint",
          "type": "uint256"
        },
        {
          "internalType": "contract IERC20",
          "name": "_lpToken",
          "type": "address"
        },
        {
          "internalType": "bool",
          "name": "_withUpdate",
          "type": "bool"
        }
      ],
      "name": "add",
      "outputs": [],
      "stateMutability": "nonpayable",
      "type": "function"
    },
    {
      "inputs": [
        {
          "internalType": "uint256",
          "name": "_pid",
          "type": "uint256"
        },
        {
          "internalType": "uint256",
          "name": "_allocPoint",
          "type": "uint256"
        },
        {
          "internalType": "bool",
          "name": "_withUpdate",
          "type": "bool"
        }
      ],
      "name": "set",
      "outputs": [],
      "stateMutability": "nonpayable",
      "type": "function"
    },
    {
      "inputs": [
        {
          "internalType": "uint256",
          "name": "_from",
          "type": "uint256"
        },
        {
          "internalType": "uint256",
          "name": "_to",
          "type": "uint256"
        }
      ],
      "name": "getMultiplier",
      "outputs": [
        {
          "internalType": "uint256",
          "name": "",
          "type": "uint256"
        }
      ],
      "stateMutability": "view",
      "type": "function"
    },
    {
      "inputs": [
        {
          "internalType": "uint256",
          "name": "_pid",
          "type": "uint256"
        },
        {
          "internalType": "address",
          "name": "_user",
          "type": "address"
        }
      ],
      "name": "pendingxVEMP",
      "outputs": [
        {
          "internalType": "uint256",
          "name": "",
          "type": "uint256"
        }
      ],
      "stateMutability": "view",
      "type": "function"
    },
    {
      "inputs": [],
      "name": "massUpdatePools",
      "outputs": [],
      "stateMutability": "nonpayable",
      "type": "function"
    },
    {
      "inputs": [
        {
          "internalType": "uint256",
          "name": "_pid",
          "type": "uint256"
        }
      ],
      "name": "updatePool",
      "outputs": [],
      "stateMutability": "nonpayable",
      "type": "function"
    },
    {
      "inputs": [
        {
          "internalType": "uint256",
          "name": "_pid",
          "type": "uint256"
        },
        {
          "internalType": "uint256",
          "name": "_amount",
          "type": "uint256"
        }
      ],
      "name": "deposit",
      "outputs": [],
      "stateMutability": "nonpayable",
      "type": "function"
    },
    {
      "inputs": [
        {
          "internalType": "uint256",
          "name": "_pid",
          "type": "uint256"
        },
        {
          "internalType": "uint256",
          "name": "_amount",
          "type": "uint256"
        }
      ],
      "name": "withdraw",
      "outputs": [],
      "stateMutability": "nonpayable",
      "type": "function"
    },
    {
      "inputs": [
        {
          "internalType": "uint256",
          "name": "_pid",
          "type": "uint256"
        }
      ],
      "name": "emergencyWithdraw",
      "outputs": [],
      "stateMutability": "nonpayable",
      "type": "function"
    },
    {
      "inputs": [
        {
          "internalType": "uint256",
          "name": "_newRewardPerBlock",
          "type": "uint256"
        }
      ],
      "name": "updateRewardPerBlock",
      "outputs": [],
      "stateMutability": "nonpayable",
      "type": "function"
    },
    {
      "inputs": [
        {
          "internalType": "address",
          "name": "_devaddr",
          "type": "address"
        }
      ],
      "name": "dev",
      "outputs": [],
      "stateMutability": "nonpayable",
      "type": "function"
    }
  ],
  "bytecode": "0x6080604052600060075534801561001557600080fd5b5060405161161b38038061161b833981810160405260a081101561003857600080fd5b5080516020820151604083015160608401516080909401519293919290919060006100616100e9565b600080546001600160a01b0319166001600160a01b0383169081178255604051929350917f8be0079c531659141344cd1fd0a4f28419497f9722a3daafe3b4186f6b6457e0908290a350600180546001600160a01b039687166001600160a01b03199182161790915560028054959096169416939093179093556004556003556008556100ed565b3390565b61151f806100fc6000396000f3fe608060405234801561001057600080fd5b50600436106101585760003560e01c806364482f79116100c357806393f1a40b1161007c57806393f1a40b1461036857806394a92ef0146103ad578063953ef76a146103b5578063d49e77cd146103bd578063e2bbb158146103c5578063f2fde38b146103e857610158565b806364482f79146102c0578063715018a6146102eb5780638aa28550146102f35780638d88a90e146102fb5780638da5cb5b146103215780638dbb1e3a1461034557610158565b806340b55cb11161011557806340b55cb114610227578063441a3e701461025357806348cd4cb11461027657806351eb05a61461027e5780635312ea8e1461029b578063630b5ba1146102b857610158565b806301f8a9761461015d578063081e3eda1461017c5780631526fe271461019657806317caf6f1146101e35780631aed6553146101eb5780631eaaa045146101f3575b600080fd5b61017a6004803603602081101561017357600080fd5b503561040e565b005b61018461047d565b60408051918252519081900360200190f35b6101b3600480360360208110156101ac57600080fd5b5035610483565b604080516001600160a01b0390951685526020850193909352838301919091526060830152519081900360800190f35b6101846104c4565b6101846104ca565b61017a6004803603606081101561020957600080fd5b508035906001600160a01b03602082013516906040013515156104d0565b6101846004803603604081101561023d57600080fd5b50803590602001356001600160a01b0316610655565b61017a6004803603604081101561026957600080fd5b50803590602001356107cb565b61018461097b565b61017a6004803603602081101561029457600080fd5b5035610981565b61017a600480360360208110156102b157600080fd5b5035610b20565b61017a610c21565b61017a600480360360608110156102d657600080fd5b50803590602081013590604001351515610c44565b61017a610d1f565b610184610dcb565b61017a6004803603602081101561031157600080fd5b50356001600160a01b0316610dd0565b610329610e3d565b604080516001600160a01b039092168252519081900360200190f35b6101846004803603604081101561035b57600080fd5b5080359060200135610e4c565b6103946004803603604081101561037e57600080fd5b50803590602001356001600160a01b0316610eb2565b6040805192835260208301919091528051918290030190f35b610329610ed6565b610184610ee5565b610329610eeb565b61017a600480360360408110156103db57600080fd5b5080359060200135610efa565b61017a600480360360208110156103fe57600080fd5b50356001600160a01b031661106d565b61041661116f565b6001600160a01b0316610427610e3d565b6001600160a01b031614610470576040805162461bcd60e51b815260206004820181905260248201526000805160206114ca833981519152604482015290519081900360640190fd5b610478610c21565b600455565b60055490565b6005818154811061049057fe5b600091825260209091206004909102018054600182015460028301546003909301546001600160a01b039092169350919084565b60075481565b60035481565b6104d861116f565b6001600160a01b03166104e9610e3d565b6001600160a01b031614610532576040805162461bcd60e51b815260206004820181905260248201526000805160206114ca833981519152604482015290519081900360640190fd5b801561054057610540610c21565b6000600854431161055357600854610555565b435b6007549091506105659085611173565b600755604080516080810182526001600160a01b0394851681526020810195865290810191825260006060820181815260058054600181018255925291517f036b6384b5eca791c62761152d0c79bb0604c104a5fb6f4eb0703f3154bb3db0600490920291820180546001600160a01b031916919096161790945593517f036b6384b5eca791c62761152d0c79bb0604c104a5fb6f4eb0703f3154bb3db1840155517f036b6384b5eca791c62761152d0c79bb0604c104a5fb6f4eb0703f3154bb3db28301555090517f036b6384b5eca791c62761152d0c79bb0604c104a5fb6f4eb0703f3154bb3db390910155565b6000806005848154811061066557fe5b600091825260208083208784526006825260408085206001600160a01b03898116875290845281862060049586029093016003810154815484516370a0823160e01b81523098810198909852935191985093969395939492909116926370a08231926024808301939192829003018186803b1580156106e357600080fd5b505afa1580156106f7573d6000803e3d6000fd5b505050506040513d602081101561070d57600080fd5b505160028501549091504311801561072457508015155b15610790576000610739856002015443610e4c565b9050600061076c6007546107668860010154610760600454876111d490919063ffffffff16565b906111d4565b9061122d565b905061078b610784846107668464e8d4a510006111d4565b8590611173565b935050505b6107be83600101546107b864e8d4a510006107668688600001546111d490919063ffffffff16565b90611294565b9450505050505b92915050565b6000600583815481106107da57fe5b60009182526020808320868452600682526040808520338652909252922080546004909202909201925083111561084d576040805162461bcd60e51b81526020600482015260126024820152711dda5d1a191c985dce881b9bdd0819dbdbd960721b604482015290519081900360640190fd5b61085684610981565b600061088482600101546107b864e8d4a51000610766876003015487600001546111d490919063ffffffff16565b905061089033826112f1565b815461089c9085611294565b80835560038401546108b99164e8d4a510009161076691906111d4565b600183015582546040805163a9059cbb60e01b81523360048201526024810187905290516001600160a01b039092169163a9059cbb916044808201926020929091908290030181600087803b15801561091157600080fd5b505af1158015610925573d6000803e3d6000fd5b505050506040513d602081101561093b57600080fd5b5050604080518581529051869133917ff279e6a1f5e320cca91135676d9cb6e44ca8a08c0b88342bcdb1144f6511b5689181900360200190a35050505050565b60085481565b60006005828154811061099057fe5b90600052602060002090600402019050806002015443116109b15750610b1d565b8054604080516370a0823160e01b815230600482015290516000926001600160a01b0316916370a08231916024808301926020929190829003018186803b1580156109fb57600080fd5b505afa158015610a0f573d6000803e3d6000fd5b505050506040513d6020811015610a2557600080fd5b5051905080610a3b575043600290910155610b1d565b6000610a4b836002015443610e4c565b90506000610a726007546107668660010154610760600454876111d490919063ffffffff16565b600154604080516340c10f1960e01b81523060048201526024810184905290519293506001600160a01b03909116916340c10f199160448082019260009290919082900301818387803b158015610ac857600080fd5b505af1158015610adc573d6000803e3d6000fd5b50505050610b0a610aff8461076664e8d4a51000856111d490919063ffffffff16565b600386015490611173565b6003850155505043600290920191909155505b50565b600060058281548110610b2f57fe5b6000918252602080832085845260068252604080852033808752908452818620600495860290930180548454845163a9059cbb60e01b8152978801939093526024870192909252915191965091946001600160a01b039092169363a9059cbb936044808301949193928390030190829087803b158015610bae57600080fd5b505af1158015610bc2573d6000803e3d6000fd5b505050506040513d6020811015610bd857600080fd5b505080546040805191825251849133917fbb757047c2b5f3974fe26b7c10f732e7bce710b0952a71082702781e62ae05959181900360200190a360008082556001909101555050565b60055460005b81811015610c4057610c3881610981565b600101610c27565b5050565b610c4c61116f565b6001600160a01b0316610c5d610e3d565b6001600160a01b031614610ca6576040805162461bcd60e51b815260206004820181905260248201526000805160206114ca833981519152604482015290519081900360640190fd5b8015610cb457610cb4610c21565b610cf182610ceb60058681548110610cc857fe5b90600052602060002090600402016001015460075461129490919063ffffffff16565b90611173565b6007819055508160058481548110610d0557fe5b906000526020600020906004020160010181905550505050565b610d2761116f565b6001600160a01b0316610d38610e3d565b6001600160a01b031614610d81576040805162461bcd60e51b815260206004820181905260248201526000805160206114ca833981519152604482015290519081900360640190fd5b600080546040516001600160a01b03909116907f8be0079c531659141344cd1fd0a4f28419497f9722a3daafe3b4186f6b6457e0908390a3600080546001600160a01b0319169055565b600181565b6002546001600160a01b03163314610e1b576040805162461bcd60e51b81526020600482015260096024820152686465763a207775743f60b81b604482015290519081900360640190fd5b600280546001600160a01b0319166001600160a01b0392909216919091179055565b6000546001600160a01b031690565b60006003548211610e6d57610e6660016107608486611294565b90506107c5565b6003548310610e8057610e668284611294565b610e66610e986003548461129490919063ffffffff16565b610ceb60016107608760035461129490919063ffffffff16565b60066020908152600092835260408084209091529082529020805460019091015482565b6001546001600160a01b031681565b60045481565b6002546001600160a01b031681565b600060058381548110610f0957fe5b60009182526020808320868452600682526040808520338652909252922060049091029091019150610f3a84610981565b805415610f7d576000610f6f82600101546107b864e8d4a51000610766876003015487600001546111d490919063ffffffff16565b9050610f7b33826112f1565b505b8154604080516323b872dd60e01b81523360048201523060248201526044810186905290516001600160a01b03909216916323b872dd916064808201926020929091908290030181600087803b158015610fd657600080fd5b505af1158015610fea573d6000803e3d6000fd5b505050506040513d602081101561100057600080fd5b5050805461100e9084611173565b808255600383015461102b9164e8d4a510009161076691906111d4565b6001820155604080518481529051859133917f90890809c654f11d6e72a28fa60149770a0d11ec6c92319d6ceb2bb0a4ea1a159181900360200190a350505050565b61107561116f565b6001600160a01b0316611086610e3d565b6001600160a01b0316146110cf576040805162461bcd60e51b815260206004820181905260248201526000805160206114ca833981519152604482015290519081900360640190fd5b6001600160a01b0381166111145760405162461bcd60e51b81526004018080602001828103825260268152602001806114836026913960400191505060405180910390fd5b600080546040516001600160a01b03808516939216917f8be0079c531659141344cd1fd0a4f28419497f9722a3daafe3b4186f6b6457e091a3600080546001600160a01b0319166001600160a01b0392909216919091179055565b3390565b6000828201838110156111cd576040805162461bcd60e51b815260206004820152601b60248201527f536166654d6174683a206164646974696f6e206f766572666c6f770000000000604482015290519081900360640190fd5b9392505050565b6000826111e3575060006107c5565b828202828482816111f057fe5b04146111cd5760405162461bcd60e51b81526004018080602001828103825260218152602001806114a96021913960400191505060405180910390fd5b6000808211611283576040805162461bcd60e51b815260206004820152601a60248201527f536166654d6174683a206469766973696f6e206279207a65726f000000000000604482015290519081900360640190fd5b81838161128c57fe5b049392505050565b6000828211156112eb576040805162461bcd60e51b815260206004820152601e60248201527f536166654d6174683a207375627472616374696f6e206f766572666c6f770000604482015290519081900360640190fd5b50900390565b600154604080516370a0823160e01b815230600482015290516000926001600160a01b0316916370a08231916024808301926020929190829003018186803b15801561133c57600080fd5b505afa158015611350573d6000803e3d6000fd5b505050506040513d602081101561136657600080fd5b50519050808211156113fa576001546040805163a9059cbb60e01b81526001600160a01b038681166004830152602482018590529151919092169163a9059cbb9160448083019260209291908290030181600087803b1580156113c857600080fd5b505af11580156113dc573d6000803e3d6000fd5b505050506040513d60208110156113f257600080fd5b5061147d9050565b6001546040805163a9059cbb60e01b81526001600160a01b038681166004830152602482018690529151919092169163a9059cbb9160448083019260209291908290030181600087803b15801561145057600080fd5b505af1158015611464573d6000803e3d6000fd5b505050506040513d602081101561147a57600080fd5b50505b50505056fe4f776e61626c653a206e6577206f776e657220697320746865207a65726f2061646472657373536166654d6174683a206d756c7469706c69636174696f6e206f766572666c6f774f776e61626c653a2063616c6c6572206973206e6f7420746865206f776e6572a264697066735822122085c79eb8fe0eaf1fdff2bad0336f167b75d67775d9342eeb8d1d3ac051c4b42864736f6c634300060c0033",
  "immutableReferences": {},
  "source": "pragma solidity ^0.6.12;\n\nimport \"@openzeppelin/contracts/GSN/Context.sol\";\nimport \"@openzeppelin/contracts/math/SafeMath.sol\";\nimport \"@openzeppelin/contracts/utils/Address.sol\";\nimport \"@openzeppelin/contracts/access/Ownable.sol\";\n\nimport \"../interface/IERC20.sol\";\n\n// MasterChef is the master of xVEMP. He can make xVEMP and he is a fair guy.\n//\n// Note that it's ownable and the owner wields tremendous power. The ownership\n// will be transferred to a governance smart contract once xVEMP is sufficiently\n// distributed and the community can show to govern itself.\n//\n// Have fun reading it. Hopefully it's bug-free. God bless.\ncontract MasterChefVemp is Ownable {\n    using SafeMath for uint256;\n\n    // Info of each user.\n    struct UserInfo {\n        uint256 amount;     // How many LP tokens the user has provided.\n        uint256 rewardDebt; // Reward debt. See explanation below.\n        //\n        // We do some fancy math here. Basically, any point in time, the amount of xVEMPs\n        // entitled to a user but is pending to be distributed is:\n        //\n        //   pending reward = (user.amount * pool.accxVEMPPerShare) - user.rewardDebt\n        //\n        // Whenever a user deposits or withdraws LP tokens to a pool. Here's what happens:\n        //   1. The pool's `accxVEMPPerShare` (and `lastRewardBlock`) gets updated.\n        //   2. User receives the pending reward sent to his/her address.\n        //   3. User's `amount` gets updated.\n        //   4. User's `rewardDebt` gets updated.\n    }\n\n    // Info of each pool.\n    struct PoolInfo {\n        IERC20 lpToken;           // Address of LP token contract.\n        uint256 allocPoint;       // How many allocation points assigned to this pool. xVEMPs to distribute per block.\n        uint256 lastRewardBlock;  // Last block number that xVEMPs distribution occurs.\n        uint256 accxVEMPPerShare; // Accumulated xVEMPs per share, times 1e12. See below.\n    }\n\n    // The xVEMP TOKEN!\n    IERC20 public xVEMP;\n    // Dev address.\n    address public devaddr;\n    // Block number when bonus SUSHI period ends.\n    uint256 public bonusEndBlock;\n    // xVEMP tokens created per block.\n    uint256 public xVEMPPerBlock;\n    // Bonus muliplier for early xVEMP makers.\n    uint256 public constant BONUS_MULTIPLIER = 1;\n\n    // Info of each pool.\n    PoolInfo[] public poolInfo;\n    // Info of each user that stakes LP tokens.\n    mapping (uint256 => mapping (address => UserInfo)) public userInfo;\n    // Total allocation poitns. Must be the sum of all allocation points in all pools.\n    uint256 public totalAllocPoint = 0;\n    // The block number when xVEMP mining starts.\n    uint256 public startBlock;\n\n    event Deposit(address indexed user, uint256 indexed pid, uint256 amount);\n    event Withdraw(address indexed user, uint256 indexed pid, uint256 amount);\n    event EmergencyWithdraw(address indexed user, uint256 indexed pid, uint256 amount);\n\n    constructor(\n        IERC20 _xVEMP,\n        address _devaddr,\n        uint256 _xVEMPPerBlock,\n        uint256 _startBlock,\n        uint256 _bonusEndBlock\n    ) public {\n        xVEMP = _xVEMP;\n        devaddr = _devaddr;\n        xVEMPPerBlock = _xVEMPPerBlock;\n        bonusEndBlock = _bonusEndBlock;\n        startBlock = _startBlock;\n    }\n\n    function poolLength() external view returns (uint256) {\n        return poolInfo.length;\n    }\n\n    // Add a new lp to the pool. Can only be called by the owner.\n    // XXX DO NOT add the same LP token more than once. Rewards will be messed up if you do.\n    function add(uint256 _allocPoint, IERC20 _lpToken, bool _withUpdate) public onlyOwner {\n        if (_withUpdate) {\n            massUpdatePools();\n        }\n        uint256 lastRewardBlock = block.number > startBlock ? block.number : startBlock;\n        totalAllocPoint = totalAllocPoint.add(_allocPoint);\n        poolInfo.push(PoolInfo({\n            lpToken: _lpToken,\n            allocPoint: _allocPoint,\n            lastRewardBlock: lastRewardBlock,\n            accxVEMPPerShare: 0\n        }));\n    }\n\n    // Update the given pool's xVEMP allocation point. Can only be called by the owner.\n    function set(uint256 _pid, uint256 _allocPoint, bool _withUpdate) public onlyOwner {\n        if (_withUpdate) {\n            massUpdatePools();\n        }\n        totalAllocPoint = totalAllocPoint.sub(poolInfo[_pid].allocPoint).add(_allocPoint);\n        poolInfo[_pid].allocPoint = _allocPoint;\n    }\n    \n    // Return reward multiplier over the given _from to _to block.\n    function getMultiplier(uint256 _from, uint256 _to) public view returns (uint256) {\n        if (_to <= bonusEndBlock) {\n            return _to.sub(_from).mul(BONUS_MULTIPLIER);\n        } else if (_from >= bonusEndBlock) {\n            return _to.sub(_from);\n        } else {\n            return bonusEndBlock.sub(_from).mul(BONUS_MULTIPLIER).add(\n                _to.sub(bonusEndBlock)\n            );\n        }\n    }\n\n    // View function to see pending xVEMPs on frontend.\n    function pendingxVEMP(uint256 _pid, address _user) external view returns (uint256) {\n        PoolInfo storage pool = poolInfo[_pid];\n        UserInfo storage user = userInfo[_pid][_user];\n        uint256 accxVEMPPerShare = pool.accxVEMPPerShare;\n        uint256 lpSupply = pool.lpToken.balanceOf(address(this));\n        if (block.number > pool.lastRewardBlock && lpSupply != 0) {\n            uint256 multiplier = getMultiplier(pool.lastRewardBlock, block.number);\n            uint256 xVEMPReward = multiplier.mul(xVEMPPerBlock).mul(pool.allocPoint).div(totalAllocPoint);\n            accxVEMPPerShare = accxVEMPPerShare.add(xVEMPReward.mul(1e12).div(lpSupply));\n        }\n        return user.amount.mul(accxVEMPPerShare).div(1e12).sub(user.rewardDebt);\n    }\n\n    // Update reward vairables for all pools. Be careful of gas spending!\n    function massUpdatePools() public {\n        uint256 length = poolInfo.length;\n        for (uint256 pid = 0; pid < length; ++pid) {\n            updatePool(pid);\n        }\n    }\n\n    // Update reward variables of the given pool to be up-to-date.\n    function updatePool(uint256 _pid) public {\n        PoolInfo storage pool = poolInfo[_pid];\n        if (block.number <= pool.lastRewardBlock) {\n            return;\n        }\n        uint256 lpSupply = pool.lpToken.balanceOf(address(this));\n        if (lpSupply == 0) {\n            pool.lastRewardBlock = block.number;\n            return;\n        }\n        uint256 multiplier = getMultiplier(pool.lastRewardBlock, block.number);\n        uint256 xVEMPReward = multiplier.mul(xVEMPPerBlock).mul(pool.allocPoint).div(totalAllocPoint);\n        xVEMP.mint(address(this), xVEMPReward);\n        pool.accxVEMPPerShare = pool.accxVEMPPerShare.add(xVEMPReward.mul(1e12).div(lpSupply));\n        pool.lastRewardBlock = block.number;\n    }\n\n    // Deposit LP tokens to MasterChef for xVEMP allocation.\n    function deposit(uint256 _pid, uint256 _amount) public {\n        PoolInfo storage pool = poolInfo[_pid];\n        UserInfo storage user = userInfo[_pid][msg.sender];\n        updatePool(_pid);\n        if (user.amount > 0) {\n            uint256 pending = user.amount.mul(pool.accxVEMPPerShare).div(1e12).sub(user.rewardDebt);\n            safexVEMPTransfer(msg.sender, pending);\n        }\n        pool.lpToken.transferFrom(address(msg.sender), address(this), _amount);\n        user.amount = user.amount.add(_amount);\n        user.rewardDebt = user.amount.mul(pool.accxVEMPPerShare).div(1e12);\n        emit Deposit(msg.sender, _pid, _amount);\n    }\n    \n    // Withdraw LP tokens from MasterChef.\n    function withdraw(uint256 _pid, uint256 _amount) public {\n        PoolInfo storage pool = poolInfo[_pid];\n        UserInfo storage user = userInfo[_pid][msg.sender];\n        require(user.amount >= _amount, \"withdraw: not good\");\n        updatePool(_pid);\n        uint256 pending = user.amount.mul(pool.accxVEMPPerShare).div(1e12).sub(user.rewardDebt);\n        safexVEMPTransfer(msg.sender, pending);\n        user.amount = user.amount.sub(_amount);\n        user.rewardDebt = user.amount.mul(pool.accxVEMPPerShare).div(1e12);\n        pool.lpToken.transfer(address(msg.sender), _amount);\n        emit Withdraw(msg.sender, _pid, _amount);\n    }\n\n    // Withdraw without caring about rewards. EMERGENCY ONLY.\n    function emergencyWithdraw(uint256 _pid) public {\n        PoolInfo storage pool = poolInfo[_pid];\n        UserInfo storage user = userInfo[_pid][msg.sender];\n        pool.lpToken.transfer(address(msg.sender), user.amount);\n        emit EmergencyWithdraw(msg.sender, _pid, user.amount);\n        user.amount = 0;\n        user.rewardDebt = 0;\n    }\n\n    // Safe xVEMP transfer function, just in case if rounding error causes pool to not have enough xVEMPs.\n    function safexVEMPTransfer(address _to, uint256 _amount) internal {\n        uint256 xVEMPBal = xVEMP.balanceOf(address(this));\n        if (_amount > xVEMPBal) {\n            xVEMP.transfer(_to, xVEMPBal);\n        } else {\n            xVEMP.transfer(_to, _amount);\n        }\n    }\n    \n    // Update Reward per block\n    function updateRewardPerBlock(uint256 _newRewardPerBlock) public onlyOwner {\n        massUpdatePools();\n        xVEMPPerBlock = _newRewardPerBlock;\n    }\n\n    // Update dev address by the previous dev.\n    function dev(address _devaddr) public {\n        require(msg.sender == devaddr, \"dev: wut?\");\n        devaddr = _devaddr;\n    }\n}",
  "sourcePath": "/home/jagveer/Videos/Paresh/VEMPIRE/vempire/smart-contract/contracts/staking/MasterChefVemp.sol",
  "compiler": {
    "name": "solc",
    "version": "0.6.12+commit.27d51765.Emscripten.clang"
  },
  "schemaVersion": "3.4.2",
  "updatedAt": "2021-08-24T13:34:06.127Z",
  "devdoc": {
    "kind": "dev",
    "methods": {
      "owner()": {
        "details": "Returns the address of the current owner."
      },
      "renounceOwnership()": {
        "details": "Leaves the contract without owner. It will not be possible to call `onlyOwner` functions anymore. Can only be called by the current owner. NOTE: Renouncing ownership will leave the contract without an owner, thereby removing any functionality that is only available to the owner."
      },
      "transferOwnership(address)": {
        "details": "Transfers ownership of the contract to a new account (`newOwner`). Can only be called by the current owner."
      }
    },
    "version": 1
  },
  "userdoc": {
    "kind": "user",
    "methods": {},
    "version": 1
  }
}