{
  "contractName": "MockTimeLockTesting",
  "abi": [
    {
      "inputs": [],
      "stateMutability": "nonpayable",
      "type": "constructor"
    },
    {
      "inputs": [],
      "name": "pendingAdmin",
      "outputs": [
        {
          "internalType": "address",
          "name": "",
          "type": "address"
        }
      ],
      "stateMutability": "view",
      "type": "function"
    },
    {
      "inputs": [
        {
          "internalType": "address",
          "name": "pendingAdmin_",
          "type": "address"
        }
      ],
      "name": "setPendingAdmin",
      "outputs": [],
      "stateMutability": "nonpayable",
      "type": "function"
    }
  ],
  "bytecode": "0x608060405234801561001057600080fd5b5060e58061001f6000396000f3fe6080604052348015600f57600080fd5b506004361060325760003560e01c8063267822471460375780634dd18bf5146059575b600080fd5b603d607e565b604080516001600160a01b039092168252519081900360200190f35b607c60048036036020811015606d57600080fd5b50356001600160a01b0316608d565b005b6000546001600160a01b031681565b600080546001600160a01b0319166001600160a01b039290921691909117905556fea26469706673582212209b53ba2aa9ab6cc43b8d3c1a9a7d5ee3b241d3707576128bdf948b5ad1a9027b64736f6c634300060c0033",
  "immutableReferences": {},
  "source": "//SPDX-License-Identifier: Unlicensed\n\npragma solidity ^0.6.12;\n\ncontract MockTimeLockTesting {\n\n    address public pendingAdmin;\n\n    constructor() public { \n    }\n\n    function setPendingAdmin(address pendingAdmin_) public {\n        pendingAdmin = pendingAdmin_;\n    }\n}",
  "sourcePath": "/home/jagveer/Videos/Paresh/VEMPIRE/vempire/smart-contract/contracts/mock/MockTimeLockTesting.sol",
  "compiler": {
    "name": "solc",
    "version": "0.6.12+commit.27d51765.Emscripten.clang"
  },
  "schemaVersion": "3.4.2",
  "updatedAt": "2021-08-25T04:06:09.812Z",
  "devdoc": {
    "kind": "dev",
    "methods": {},
    "version": 1
  },
  "userdoc": {
    "kind": "user",
    "methods": {},
    "version": 1
  }
}