{
  "contractName": "xsVEMPToken",
  "abi": [
    {
      "inputs": [],
      "stateMutability": "nonpayable",
      "type": "constructor"
    },
    {
      "anonymous": false,
      "inputs": [
        {
          "indexed": true,
          "internalType": "address",
          "name": "owner",
          "type": "address"
        },
        {
          "indexed": true,
          "internalType": "address",
          "name": "spender",
          "type": "address"
        },
        {
          "indexed": false,
          "internalType": "uint256",
          "name": "value",
          "type": "uint256"
        }
      ],
      "name": "Approval",
      "type": "event"
    },
    {
      "anonymous": false,
      "inputs": [
        {
          "indexed": false,
          "internalType": "address[]",
          "name": "account",
          "type": "address[]"
        }
      ],
      "name": "MinterAdded",
      "type": "event"
    },
    {
      "anonymous": false,
      "inputs": [
        {
          "indexed": true,
          "internalType": "address",
          "name": "account",
          "type": "address"
        }
      ],
      "name": "MinterRemoved",
      "type": "event"
    },
    {
      "anonymous": false,
      "inputs": [
        {
          "indexed": true,
          "internalType": "address",
          "name": "previousOwner",
          "type": "address"
        },
        {
          "indexed": true,
          "internalType": "address",
          "name": "newOwner",
          "type": "address"
        }
      ],
      "name": "OwnershipTransferred",
      "type": "event"
    },
    {
      "anonymous": false,
      "inputs": [
        {
          "indexed": true,
          "internalType": "address",
          "name": "from",
          "type": "address"
        },
        {
          "indexed": true,
          "internalType": "address",
          "name": "to",
          "type": "address"
        },
        {
          "indexed": false,
          "internalType": "uint256",
          "name": "value",
          "type": "uint256"
        }
      ],
      "name": "Transfer",
      "type": "event"
    },
    {
      "inputs": [
        {
          "internalType": "address[]",
          "name": "account",
          "type": "address[]"
        }
      ],
      "name": "addMinter",
      "outputs": [],
      "stateMutability": "nonpayable",
      "type": "function"
    },
    {
      "inputs": [
        {
          "internalType": "address",
          "name": "owner",
          "type": "address"
        },
        {
          "internalType": "address",
          "name": "spender",
          "type": "address"
        }
      ],
      "name": "allowance",
      "outputs": [
        {
          "internalType": "uint256",
          "name": "",
          "type": "uint256"
        }
      ],
      "stateMutability": "view",
      "type": "function"
    },
    {
      "inputs": [
        {
          "internalType": "address",
          "name": "spender",
          "type": "address"
        },
        {
          "internalType": "uint256",
          "name": "amount",
          "type": "uint256"
        }
      ],
      "name": "approve",
      "outputs": [
        {
          "internalType": "bool",
          "name": "",
          "type": "bool"
        }
      ],
      "stateMutability": "nonpayable",
      "type": "function"
    },
    {
      "inputs": [
        {
          "internalType": "address",
          "name": "account",
          "type": "address"
        }
      ],
      "name": "balanceOf",
      "outputs": [
        {
          "internalType": "uint256",
          "name": "",
          "type": "uint256"
        }
      ],
      "stateMutability": "view",
      "type": "function"
    },
    {
      "inputs": [
        {
          "internalType": "uint256",
          "name": "amount",
          "type": "uint256"
        }
      ],
      "name": "burn",
      "outputs": [],
      "stateMutability": "nonpayable",
      "type": "function"
    },
    {
      "inputs": [
        {
          "internalType": "address",
          "name": "account",
          "type": "address"
        },
        {
          "internalType": "uint256",
          "name": "amount",
          "type": "uint256"
        }
      ],
      "name": "burnFrom",
      "outputs": [],
      "stateMutability": "nonpayable",
      "type": "function"
    },
    {
      "inputs": [],
      "name": "decimals",
      "outputs": [
        {
          "internalType": "uint8",
          "name": "",
          "type": "uint8"
        }
      ],
      "stateMutability": "view",
      "type": "function"
    },
    {
      "inputs": [
        {
          "internalType": "address",
          "name": "spender",
          "type": "address"
        },
        {
          "internalType": "uint256",
          "name": "subtractedValue",
          "type": "uint256"
        }
      ],
      "name": "decreaseAllowance",
      "outputs": [
        {
          "internalType": "bool",
          "name": "",
          "type": "bool"
        }
      ],
      "stateMutability": "nonpayable",
      "type": "function"
    },
    {
      "inputs": [
        {
          "internalType": "address",
          "name": "spender",
          "type": "address"
        },
        {
          "internalType": "uint256",
          "name": "addedValue",
          "type": "uint256"
        }
      ],
      "name": "increaseAllowance",
      "outputs": [
        {
          "internalType": "bool",
          "name": "",
          "type": "bool"
        }
      ],
      "stateMutability": "nonpayable",
      "type": "function"
    },
    {
      "inputs": [
        {
          "internalType": "address",
          "name": "account",
          "type": "address"
        }
      ],
      "name": "isMinter",
      "outputs": [
        {
          "internalType": "bool",
          "name": "",
          "type": "bool"
        }
      ],
      "stateMutability": "view",
      "type": "function"
    },
    {
      "inputs": [],
      "name": "name",
      "outputs": [
        {
          "internalType": "string",
          "name": "",
          "type": "string"
        }
      ],
      "stateMutability": "view",
      "type": "function"
    },
    {
      "inputs": [],
      "name": "owner",
      "outputs": [
        {
          "internalType": "address",
          "name": "",
          "type": "address"
        }
      ],
      "stateMutability": "view",
      "type": "function"
    },
    {
      "inputs": [
        {
          "internalType": "address",
          "name": "account",
          "type": "address"
        }
      ],
      "name": "removeMinter",
      "outputs": [],
      "stateMutability": "nonpayable",
      "type": "function"
    },
    {
      "inputs": [],
      "name": "renounceMinter",
      "outputs": [],
      "stateMutability": "nonpayable",
      "type": "function"
    },
    {
      "inputs": [],
      "name": "renounceOwnership",
      "outputs": [],
      "stateMutability": "nonpayable",
      "type": "function"
    },
    {
      "inputs": [],
      "name": "symbol",
      "outputs": [
        {
          "internalType": "string",
          "name": "",
          "type": "string"
        }
      ],
      "stateMutability": "view",
      "type": "function"
    },
    {
      "inputs": [],
      "name": "totalSupply",
      "outputs": [
        {
          "internalType": "uint256",
          "name": "",
          "type": "uint256"
        }
      ],
      "stateMutability": "view",
      "type": "function"
    },
    {
      "inputs": [
        {
          "internalType": "address",
          "name": "recipient",
          "type": "address"
        },
        {
          "internalType": "uint256",
          "name": "amount",
          "type": "uint256"
        }
      ],
      "name": "transfer",
      "outputs": [
        {
          "internalType": "bool",
          "name": "",
          "type": "bool"
        }
      ],
      "stateMutability": "nonpayable",
      "type": "function"
    },
    {
      "inputs": [
        {
          "internalType": "address",
          "name": "sender",
          "type": "address"
        },
        {
          "internalType": "address",
          "name": "recipient",
          "type": "address"
        },
        {
          "internalType": "uint256",
          "name": "amount",
          "type": "uint256"
        }
      ],
      "name": "transferFrom",
      "outputs": [
        {
          "internalType": "bool",
          "name": "",
          "type": "bool"
        }
      ],
      "stateMutability": "nonpayable",
      "type": "function"
    },
    {
      "inputs": [
        {
          "internalType": "address",
          "name": "newOwner",
          "type": "address"
        }
      ],
      "name": "transferOwnership",
      "outputs": [],
      "stateMutability": "nonpayable",
      "type": "function"
    },
    {
      "inputs": [
        {
          "internalType": "address",
          "name": "account",
          "type": "address"
        },
        {
          "internalType": "uint256",
          "name": "amount",
          "type": "uint256"
        }
      ],
      "name": "mint",
      "outputs": [
        {
          "internalType": "bool",
          "name": "",
          "type": "bool"
        }
      ],
      "stateMutability": "nonpayable",
      "type": "function"
    }
  ],
  "bytecode": "0x60806040523480156200001157600080fd5b506040805180820182526006808252650787356454d560d41b602080840182815285518087019096529285528401528151919291620000539160039162000296565b5080516200006990600490602084019062000296565b50506005805460ff19166012179055506000620000856200013f565b60058054610100600160a81b0319166101006001600160a01b03841690810291909117909155604051919250906000907f8be0079c531659141344cd1fd0a4f28419497f9722a3daafe3b4186f6b6457e0908290a35060408051600180825281830190925260609160208083019080368337019050509050620001076200013f565b816000815181106200011557fe5b6001600160a01b0390921660209283029190910190910152620001388162000143565b50620003fa565b3390565b6200015e8160066200019a60201b620008301790919060201c565b7f9646091f1eb704614b3a57bcb787d8521f85c089d1fcd1c09bdf98886bdb0832816040516200018f919062000332565b60405180910390a150565b60005b81518110156200024657620001cd83838381518110620001b957fe5b60200260200101516200024b60201b60201c565b15620001f65760405162461bcd60e51b8152600401620001ed9062000381565b60405180910390fd5b60018360000160008484815181106200020b57fe5b6020908102919091018101516001600160a01b03168252810191909152604001600020805460ff19169115159190911790556001016200019d565b505050565b60006001600160a01b038216620002765760405162461bcd60e51b8152600401620001ed90620003b8565b506001600160a01b03166000908152602091909152604090205460ff1690565b828054600181600116156101000203166002900490600052602060002090601f016020900481019282601f10620002d957805160ff191683800117855562000309565b8280016001018555821562000309579182015b8281111562000309578251825591602001919060010190620002ec565b50620003179291506200031b565b5090565b5b808211156200031757600081556001016200031c565b6020808252825182820181905260009190848201906040850190845b81811015620003755783516001600160a01b0316835292840192918401916001016200034e565b50909695505050505050565b6020808252601f908201527f526f6c65733a206163636f756e7420616c72656164792068617320726f6c6500604082015260600190565b60208082526022908201527f526f6c65733a206163636f756e7420697320746865207a65726f206164647265604082015261737360f01b606082015260800190565b6114dd806200040a6000396000f3fe608060405234801561001057600080fd5b50600436106101375760003560e01c8063715018a6116100b8578063a457c2d71161007c578063a457c2d714610258578063a9059cbb1461026b578063aa271e1a1461027e578063dd62ed3e14610291578063f18e33e1146102a4578063f2fde38b146102b757610137565b8063715018a61461021857806379cc6790146102205780638da5cb5b1461023357806395d89b4114610248578063986502751461025057610137565b8063313ce567116100ff578063313ce567146101b757806339509351146101cc57806340c10f19146101df57806342966c68146101f257806370a082311461020557610137565b806306fdde031461013c578063095ea7b31461015a57806318160ddd1461017a57806323b872dd1461018f5780633092afd5146101a2575b600080fd5b6101446102ca565b6040516101519190610faf565b60405180910390f35b61016d610168366004610e64565b610360565b6040516101519190610fa4565b61018261037e565b604051610151919061137b565b61016d61019d366004610e24565b610384565b6101b56101b0366004610dd5565b61040b565b005b6101bf61045f565b6040516101519190611384565b61016d6101da366004610e64565b610468565b61016d6101ed366004610e64565b6104b6565b6101b5610200366004610f2b565b6104e9565b610182610213366004610dd5565b6104fa565b6101b5610515565b6101b561022e366004610e64565b6105a4565b61023b6105f9565b6040516101519190610f43565b61014461060d565b6101b561066e565b61016d610266366004610e64565b610680565b61016d610279366004610e64565b6106e8565b61016d61028c366004610dd5565b6106fc565b61018261029f366004610df0565b610709565b6101b56102b2366004610e8e565b610734565b6101b56102c5366004610dd5565b610764565b60038054604080516020601f60026000196101006001881615020190951694909404938401819004810282018101909252828152606093909290918301828280156103565780601f1061032b57610100808354040283529160200191610356565b820191906000526020600020905b81548152906001019060200180831161033957829003601f168201915b5050505050905090565b600061037461036d6108c4565b84846108c8565b5060015b92915050565b60025490565b600061039184848461097c565b6104018461039d6108c4565b6103fc85604051806060016040528060288152602001611437602891396001600160a01b038a166000908152600160205260408120906103db6108c4565b6001600160a01b031681526020810191909152604001600020549190610a91565b6108c8565b5060019392505050565b6104136108c4565b6001600160a01b03166104246105f9565b6001600160a01b0316146104535760405162461bcd60e51b815260040161044a90611203565b60405180910390fd5b61045c81610abd565b50565b60055460ff1690565b60006103746104756108c4565b846103fc85600160006104866108c4565b6001600160a01b03908116825260208083019390935260409182016000908120918c168152925290205490610aff565b60006104c361028c6108c4565b6104df5760405162461bcd60e51b815260040161044a90611172565b6103748383610b2b565b61045c6104f46108c4565b82610beb565b6001600160a01b031660009081526020819052604090205490565b61051d6108c4565b6001600160a01b031661052e6105f9565b6001600160a01b0316146105545760405162461bcd60e51b815260040161044a90611203565b60055460405160009161010090046001600160a01b0316907f8be0079c531659141344cd1fd0a4f28419497f9722a3daafe3b4186f6b6457e0908390a360058054610100600160a81b0319169055565b60006105d68260405180606001604052806024815260200161145f602491396105cf8661029f6108c4565b9190610a91565b90506105ea836105e46108c4565b836108c8565b6105f48383610beb565b505050565b60055461010090046001600160a01b031690565b60048054604080516020601f60026000196101006001881615020190951694909404938401819004810282018101909252828152606093909290918301828280156103565780601f1061032b57610100808354040283529160200191610356565b61067e6106796108c4565b610abd565b565b600061037461068d6108c4565b846103fc8560405180606001604052806025815260200161148360259139600160006106b76108c4565b6001600160a01b03908116825260208083019390935260409182016000908120918d16815292529020549190610a91565b60006103746106f56108c4565b848461097c565b6000610378600683610cc1565b6001600160a01b03918216600090815260016020908152604080832093909416825291909152205490565b61073f61028c6108c4565b61075b5760405162461bcd60e51b815260040161044a90611172565b61045c81610d09565b61076c6108c4565b6001600160a01b031661077d6105f9565b6001600160a01b0316146107a35760405162461bcd60e51b815260040161044a90611203565b6001600160a01b0381166107c95760405162461bcd60e51b815260040161044a9061107c565b6005546040516001600160a01b0380841692610100900416907f8be0079c531659141344cd1fd0a4f28419497f9722a3daafe3b4186f6b6457e090600090a3600580546001600160a01b0390921661010002610100600160a81b0319909216919091179055565b60005b81518110156105f4576108598383838151811061084c57fe5b6020026020010151610cc1565b156108765760405162461bcd60e51b815260040161044a90611045565b600183600001600084848151811061088a57fe5b6020908102919091018101516001600160a01b03168252810191909152604001600020805460ff1916911515919091179055600101610833565b3390565b6001600160a01b0383166108ee5760405162461bcd60e51b815260040161044a90611300565b6001600160a01b0382166109145760405162461bcd60e51b815260040161044a906110c2565b6001600160a01b0380841660008181526001602090815260408083209487168084529490915290819020849055517f8c5be1e5ebec7d5bd14f71427d1e84f3dd0314c0f7b2291e5b200ac8c7c3b9259061096f90859061137b565b60405180910390a3505050565b6001600160a01b0383166109a25760405162461bcd60e51b815260040161044a906112bb565b6001600160a01b0382166109c85760405162461bcd60e51b815260040161044a90611002565b6109d38383836105f4565b610a1081604051806060016040528060268152602001611411602691396001600160a01b0386166000908152602081905260409020549190610a91565b6001600160a01b038085166000908152602081905260408082209390935590841681522054610a3f9082610aff565b6001600160a01b0380841660008181526020819052604090819020939093559151908516907fddf252ad1be2c89b69c2b068fc378daa952ba7f163c4a11628f55a4df523b3ef9061096f90859061137b565b60008184841115610ab55760405162461bcd60e51b815260040161044a9190610faf565b505050900390565b610ac8600682610d4e565b6040516001600160a01b038216907fe94479a9f7e1952cc78f2d6baab678adc1b772d936c6583def489e524cb6669290600090a250565b600082820183811015610b245760405162461bcd60e51b815260040161044a90611104565b9392505050565b6001600160a01b038216610b515760405162461bcd60e51b815260040161044a90611344565b610b5d600083836105f4565b600254610b6a9082610aff565b6002556001600160a01b038216600090815260208190526040902054610b909082610aff565b6001600160a01b0383166000818152602081905260408082209390935591519091907fddf252ad1be2c89b69c2b068fc378daa952ba7f163c4a11628f55a4df523b3ef90610bdf90859061137b565b60405180910390a35050565b6001600160a01b038216610c115760405162461bcd60e51b815260040161044a9061127a565b610c1d826000836105f4565b610c5a816040518060600160405280602281526020016113ef602291396001600160a01b0385166000908152602081905260409020549190610a91565b6001600160a01b038316600090815260208190526040902055600254610c809082610d96565b6002556040516000906001600160a01b038416907fddf252ad1be2c89b69c2b068fc378daa952ba7f163c4a11628f55a4df523b3ef90610bdf90859061137b565b60006001600160a01b038216610ce95760405162461bcd60e51b815260040161044a90611238565b506001600160a01b03166000908152602091909152604090205460ff1690565b610d14600682610830565b7f9646091f1eb704614b3a57bcb787d8521f85c089d1fcd1c09bdf98886bdb083281604051610d439190610f57565b60405180910390a150565b610d588282610cc1565b610d745760405162461bcd60e51b815260040161044a906111c2565b6001600160a01b0316600090815260209190915260409020805460ff19169055565b600082821115610db85760405162461bcd60e51b815260040161044a9061113b565b50900390565b80356001600160a01b038116811461037857600080fd5b600060208284031215610de6578081fd5b610b248383610dbe565b60008060408385031215610e02578081fd5b610e0c8484610dbe565b9150610e1b8460208501610dbe565b90509250929050565b600080600060608486031215610e38578081fd5b8335610e43816113d9565b92506020840135610e53816113d9565b929592945050506040919091013590565b60008060408385031215610e76578182fd5b610e808484610dbe565b946020939093013593505050565b60006020808385031215610ea0578182fd5b823567ffffffffffffffff811115610eb6578283fd5b8301601f81018513610ec6578283fd5b8035610ed9610ed4826113b9565b611392565b8181528381019083850185840285018601891015610ef5578687fd5b8694505b83851015610f1f57610f0b8982610dbe565b835260019490940193918501918501610ef9565b50979650505050505050565b600060208284031215610f3c578081fd5b5035919050565b6001600160a01b0391909116815260200190565b6020808252825182820181905260009190848201906040850190845b81811015610f985783516001600160a01b031683529284019291840191600101610f73565b50909695505050505050565b901515815260200190565b6000602080835283518082850152825b81811015610fdb57858101830151858201604001528201610fbf565b81811115610fec5783604083870101525b50601f01601f1916929092016040019392505050565b60208082526023908201527f45524332303a207472616e7366657220746f20746865207a65726f206164647260408201526265737360e81b606082015260800190565b6020808252601f908201527f526f6c65733a206163636f756e7420616c72656164792068617320726f6c6500604082015260600190565b60208082526026908201527f4f776e61626c653a206e6577206f776e657220697320746865207a65726f206160408201526564647265737360d01b606082015260800190565b60208082526022908201527f45524332303a20617070726f766520746f20746865207a65726f206164647265604082015261737360f01b606082015260800190565b6020808252601b908201527f536166654d6174683a206164646974696f6e206f766572666c6f770000000000604082015260600190565b6020808252601e908201527f536166654d6174683a207375627472616374696f6e206f766572666c6f770000604082015260600190565b60208082526030908201527f4d696e746572526f6c653a2063616c6c657220646f6573206e6f74206861766560408201526f20746865204d696e74657220726f6c6560801b606082015260800190565b60208082526021908201527f526f6c65733a206163636f756e7420646f6573206e6f74206861766520726f6c6040820152606560f81b606082015260800190565b6020808252818101527f4f776e61626c653a2063616c6c6572206973206e6f7420746865206f776e6572604082015260600190565b60208082526022908201527f526f6c65733a206163636f756e7420697320746865207a65726f206164647265604082015261737360f01b606082015260800190565b60208082526021908201527f45524332303a206275726e2066726f6d20746865207a65726f206164647265736040820152607360f81b606082015260800190565b60208082526025908201527f45524332303a207472616e736665722066726f6d20746865207a65726f206164604082015264647265737360d81b606082015260800190565b60208082526024908201527f45524332303a20617070726f76652066726f6d20746865207a65726f206164646040820152637265737360e01b606082015260800190565b6020808252601f908201527f45524332303a206d696e7420746f20746865207a65726f206164647265737300604082015260600190565b90815260200190565b60ff91909116815260200190565b60405181810167ffffffffffffffff811182821017156113b157600080fd5b604052919050565b600067ffffffffffffffff8211156113cf578081fd5b5060209081020190565b6001600160a01b038116811461045c57600080fdfe45524332303a206275726e20616d6f756e7420657863656564732062616c616e636545524332303a207472616e7366657220616d6f756e7420657863656564732062616c616e636545524332303a207472616e7366657220616d6f756e74206578636565647320616c6c6f77616e636545524332303a206275726e20616d6f756e74206578636565647320616c6c6f77616e636545524332303a2064656372656173656420616c6c6f77616e63652062656c6f77207a65726fa2646970667358221220cf00d85894fbdd878eb6fb9e69edd5652af28974c0f653642e4781ec0a84704364736f6c634300060c0033",
  "immutableReferences": {},
  "source": "// SPDX-License-Identifier: Unlicensed\n\npragma solidity ^0.6.12;\npragma experimental ABIEncoderV2;\n\nimport \"@openzeppelin/contracts/math/SafeMath.sol\";\nimport \"@openzeppelin/contracts/GSN/Context.sol\";\nimport \"@openzeppelin/contracts/token/ERC20/IERC20.sol\";\nimport \"@openzeppelin/contracts/utils/Address.sol\";\nimport \"@openzeppelin/contracts/access/Ownable.sol\";\nimport \"@openzeppelin/contracts/token/ERC20/ERC20Burnable.sol\";\n\nimport \"../common/MinterRole.sol\";\n\ncontract xsVEMPToken is ERC20, ERC20Burnable, MinterRole {\n\n    constructor() public ERC20(\"xsVEMP\", \"xsVEMP\"){\n    }\n\n    /**\n     * @dev See {ERC20-_mint}.\n     *\n     * Requirements:\n     *\n     * - the caller must have the {MinterRole}.\n     */\n    function mint(address account, uint256 amount) public onlyMinter returns (bool) {\n        _mint(account, amount);\n        return true;\n    }\n}",
  "sourcePath": "/home/jagveer/Videos/Paresh/VEMPIRE/vempire/smart-contract/contracts/battletoken/xsVEMP.sol",
  "compiler": {
    "name": "solc",
    "version": "0.6.12+commit.27d51765.Emscripten.clang"
  },
  "schemaVersion": "3.4.2",
  "updatedAt": "2021-08-24T13:34:05.928Z",
  "devdoc": {
    "kind": "dev",
    "methods": {
      "allowance(address,address)": {
        "details": "See {IERC20-allowance}."
      },
      "approve(address,uint256)": {
        "details": "See {IERC20-approve}. Requirements: - `spender` cannot be the zero address."
      },
      "balanceOf(address)": {
        "details": "See {IERC20-balanceOf}."
      },
      "burn(uint256)": {
        "details": "Destroys `amount` tokens from the caller. See {ERC20-_burn}."
      },
      "burnFrom(address,uint256)": {
        "details": "Destroys `amount` tokens from `account`, deducting from the caller's allowance. See {ERC20-_burn} and {ERC20-allowance}. Requirements: - the caller must have allowance for ``accounts``'s tokens of at least `amount`."
      },
      "decimals()": {
        "details": "Returns the number of decimals used to get its user representation. For example, if `decimals` equals `2`, a balance of `505` tokens should be displayed to a user as `5,05` (`505 / 10 ** 2`). Tokens usually opt for a value of 18, imitating the relationship between Ether and Wei. This is the value {ERC20} uses, unless {_setupDecimals} is called. NOTE: This information is only used for _display_ purposes: it in no way affects any of the arithmetic of the contract, including {IERC20-balanceOf} and {IERC20-transfer}."
      },
      "decreaseAllowance(address,uint256)": {
        "details": "Atomically decreases the allowance granted to `spender` by the caller. This is an alternative to {approve} that can be used as a mitigation for problems described in {IERC20-approve}. Emits an {Approval} event indicating the updated allowance. Requirements: - `spender` cannot be the zero address. - `spender` must have allowance for the caller of at least `subtractedValue`."
      },
      "increaseAllowance(address,uint256)": {
        "details": "Atomically increases the allowance granted to `spender` by the caller. This is an alternative to {approve} that can be used as a mitigation for problems described in {IERC20-approve}. Emits an {Approval} event indicating the updated allowance. Requirements: - `spender` cannot be the zero address."
      },
      "mint(address,uint256)": {
        "details": "See {ERC20-_mint}. Requirements: - the caller must have the {MinterRole}."
      },
      "name()": {
        "details": "Returns the name of the token."
      },
      "owner()": {
        "details": "Returns the address of the current owner."
      },
      "renounceOwnership()": {
        "details": "Leaves the contract without owner. It will not be possible to call `onlyOwner` functions anymore. Can only be called by the current owner. NOTE: Renouncing ownership will leave the contract without an owner, thereby removing any functionality that is only available to the owner."
      },
      "symbol()": {
        "details": "Returns the symbol of the token, usually a shorter version of the name."
      },
      "totalSupply()": {
        "details": "See {IERC20-totalSupply}."
      },
      "transfer(address,uint256)": {
        "details": "See {IERC20-transfer}. Requirements: - `recipient` cannot be the zero address. - the caller must have a balance of at least `amount`."
      },
      "transferFrom(address,address,uint256)": {
        "details": "See {IERC20-transferFrom}. Emits an {Approval} event indicating the updated allowance. This is not required by the EIP. See the note at the beginning of {ERC20}. Requirements: - `sender` and `recipient` cannot be the zero address. - `sender` must have a balance of at least `amount`. - the caller must have allowance for ``sender``'s tokens of at least `amount`."
      },
      "transferOwnership(address)": {
        "details": "Transfers ownership of the contract to a new account (`newOwner`). Can only be called by the current owner."
      }
    },
    "version": 1
  },
  "userdoc": {
    "kind": "user",
    "methods": {},
    "version": 1
  }
}