{
  "contractName": "xVEMPToken",
  "abi": [
    {
      "inputs": [],
      "stateMutability": "nonpayable",
      "type": "constructor"
    },
    {
      "anonymous": false,
      "inputs": [
        {
          "indexed": true,
          "internalType": "address",
          "name": "owner",
          "type": "address"
        },
        {
          "indexed": true,
          "internalType": "address",
          "name": "spender",
          "type": "address"
        },
        {
          "indexed": false,
          "internalType": "uint256",
          "name": "value",
          "type": "uint256"
        }
      ],
      "name": "Approval",
      "type": "event"
    },
    {
      "anonymous": false,
      "inputs": [
        {
          "indexed": true,
          "internalType": "address",
          "name": "delegator",
          "type": "address"
        },
        {
          "indexed": true,
          "internalType": "address",
          "name": "fromDelegate",
          "type": "address"
        },
        {
          "indexed": true,
          "internalType": "address",
          "name": "toDelegate",
          "type": "address"
        }
      ],
      "name": "DelegateChanged",
      "type": "event"
    },
    {
      "anonymous": false,
      "inputs": [
        {
          "indexed": true,
          "internalType": "address",
          "name": "delegate",
          "type": "address"
        },
        {
          "indexed": false,
          "internalType": "uint256",
          "name": "previousBalance",
          "type": "uint256"
        },
        {
          "indexed": false,
          "internalType": "uint256",
          "name": "newBalance",
          "type": "uint256"
        }
      ],
      "name": "DelegateVotesChanged",
      "type": "event"
    },
    {
      "anonymous": false,
      "inputs": [
        {
          "indexed": false,
          "internalType": "address[]",
          "name": "account",
          "type": "address[]"
        }
      ],
      "name": "MinterAdded",
      "type": "event"
    },
    {
      "anonymous": false,
      "inputs": [
        {
          "indexed": true,
          "internalType": "address",
          "name": "account",
          "type": "address"
        }
      ],
      "name": "MinterRemoved",
      "type": "event"
    },
    {
      "anonymous": false,
      "inputs": [
        {
          "indexed": true,
          "internalType": "address",
          "name": "previousOwner",
          "type": "address"
        },
        {
          "indexed": true,
          "internalType": "address",
          "name": "newOwner",
          "type": "address"
        }
      ],
      "name": "OwnershipTransferred",
      "type": "event"
    },
    {
      "anonymous": false,
      "inputs": [
        {
          "indexed": true,
          "internalType": "address",
          "name": "from",
          "type": "address"
        },
        {
          "indexed": true,
          "internalType": "address",
          "name": "to",
          "type": "address"
        },
        {
          "indexed": false,
          "internalType": "uint256",
          "name": "value",
          "type": "uint256"
        }
      ],
      "name": "Transfer",
      "type": "event"
    },
    {
      "inputs": [],
      "name": "DELEGATION_TYPEHASH",
      "outputs": [
        {
          "internalType": "bytes32",
          "name": "",
          "type": "bytes32"
        }
      ],
      "stateMutability": "view",
      "type": "function"
    },
    {
      "inputs": [],
      "name": "DOMAIN_TYPEHASH",
      "outputs": [
        {
          "internalType": "bytes32",
          "name": "",
          "type": "bytes32"
        }
      ],
      "stateMutability": "view",
      "type": "function"
    },
    {
      "inputs": [
        {
          "internalType": "address[]",
          "name": "account",
          "type": "address[]"
        }
      ],
      "name": "addMinter",
      "outputs": [],
      "stateMutability": "nonpayable",
      "type": "function"
    },
    {
      "inputs": [
        {
          "internalType": "address",
          "name": "owner",
          "type": "address"
        },
        {
          "internalType": "address",
          "name": "spender",
          "type": "address"
        }
      ],
      "name": "allowance",
      "outputs": [
        {
          "internalType": "uint256",
          "name": "",
          "type": "uint256"
        }
      ],
      "stateMutability": "view",
      "type": "function"
    },
    {
      "inputs": [
        {
          "internalType": "address",
          "name": "spender",
          "type": "address"
        },
        {
          "internalType": "uint256",
          "name": "amount",
          "type": "uint256"
        }
      ],
      "name": "approve",
      "outputs": [
        {
          "internalType": "bool",
          "name": "",
          "type": "bool"
        }
      ],
      "stateMutability": "nonpayable",
      "type": "function"
    },
    {
      "inputs": [
        {
          "internalType": "address",
          "name": "account",
          "type": "address"
        }
      ],
      "name": "balanceOf",
      "outputs": [
        {
          "internalType": "uint256",
          "name": "",
          "type": "uint256"
        }
      ],
      "stateMutability": "view",
      "type": "function"
    },
    {
      "inputs": [
        {
          "internalType": "uint256",
          "name": "amount",
          "type": "uint256"
        }
      ],
      "name": "burn",
      "outputs": [],
      "stateMutability": "nonpayable",
      "type": "function"
    },
    {
      "inputs": [
        {
          "internalType": "address",
          "name": "account",
          "type": "address"
        },
        {
          "internalType": "uint256",
          "name": "amount",
          "type": "uint256"
        }
      ],
      "name": "burnFrom",
      "outputs": [],
      "stateMutability": "nonpayable",
      "type": "function"
    },
    {
      "inputs": [
        {
          "internalType": "address",
          "name": "",
          "type": "address"
        },
        {
          "internalType": "uint32",
          "name": "",
          "type": "uint32"
        }
      ],
      "name": "checkpoints",
      "outputs": [
        {
          "internalType": "uint32",
          "name": "fromBlock",
          "type": "uint32"
        },
        {
          "internalType": "uint256",
          "name": "votes",
          "type": "uint256"
        }
      ],
      "stateMutability": "view",
      "type": "function"
    },
    {
      "inputs": [],
      "name": "decimals",
      "outputs": [
        {
          "internalType": "uint8",
          "name": "",
          "type": "uint8"
        }
      ],
      "stateMutability": "view",
      "type": "function"
    },
    {
      "inputs": [
        {
          "internalType": "address",
          "name": "spender",
          "type": "address"
        },
        {
          "internalType": "uint256",
          "name": "subtractedValue",
          "type": "uint256"
        }
      ],
      "name": "decreaseAllowance",
      "outputs": [
        {
          "internalType": "bool",
          "name": "",
          "type": "bool"
        }
      ],
      "stateMutability": "nonpayable",
      "type": "function"
    },
    {
      "inputs": [
        {
          "internalType": "address",
          "name": "delegatee",
          "type": "address"
        }
      ],
      "name": "delegate",
      "outputs": [],
      "stateMutability": "nonpayable",
      "type": "function"
    },
    {
      "inputs": [
        {
          "internalType": "address",
          "name": "delegatee",
          "type": "address"
        },
        {
          "internalType": "uint256",
          "name": "nonce",
          "type": "uint256"
        },
        {
          "internalType": "uint256",
          "name": "expiry",
          "type": "uint256"
        },
        {
          "internalType": "uint8",
          "name": "v",
          "type": "uint8"
        },
        {
          "internalType": "bytes32",
          "name": "r",
          "type": "bytes32"
        },
        {
          "internalType": "bytes32",
          "name": "s",
          "type": "bytes32"
        }
      ],
      "name": "delegateBySig",
      "outputs": [],
      "stateMutability": "nonpayable",
      "type": "function"
    },
    {
      "inputs": [
        {
          "internalType": "address",
          "name": "",
          "type": "address"
        }
      ],
      "name": "delegates",
      "outputs": [
        {
          "internalType": "address",
          "name": "",
          "type": "address"
        }
      ],
      "stateMutability": "view",
      "type": "function"
    },
    {
      "inputs": [
        {
          "internalType": "address",
          "name": "account",
          "type": "address"
        }
      ],
      "name": "getCurrentVotes",
      "outputs": [
        {
          "internalType": "uint256",
          "name": "",
          "type": "uint256"
        }
      ],
      "stateMutability": "view",
      "type": "function"
    },
    {
      "inputs": [
        {
          "internalType": "address",
          "name": "account",
          "type": "address"
        },
        {
          "internalType": "uint256",
          "name": "blockNumber",
          "type": "uint256"
        }
      ],
      "name": "getPriorVotes",
      "outputs": [
        {
          "internalType": "uint256",
          "name": "",
          "type": "uint256"
        }
      ],
      "stateMutability": "view",
      "type": "function"
    },
    {
      "inputs": [
        {
          "internalType": "address",
          "name": "spender",
          "type": "address"
        },
        {
          "internalType": "uint256",
          "name": "addedValue",
          "type": "uint256"
        }
      ],
      "name": "increaseAllowance",
      "outputs": [
        {
          "internalType": "bool",
          "name": "",
          "type": "bool"
        }
      ],
      "stateMutability": "nonpayable",
      "type": "function"
    },
    {
      "inputs": [
        {
          "internalType": "address",
          "name": "account",
          "type": "address"
        }
      ],
      "name": "isMinter",
      "outputs": [
        {
          "internalType": "bool",
          "name": "",
          "type": "bool"
        }
      ],
      "stateMutability": "view",
      "type": "function"
    },
    {
      "inputs": [
        {
          "internalType": "address",
          "name": "account",
          "type": "address"
        },
        {
          "internalType": "uint256",
          "name": "amount",
          "type": "uint256"
        }
      ],
      "name": "mint",
      "outputs": [
        {
          "internalType": "bool",
          "name": "",
          "type": "bool"
        }
      ],
      "stateMutability": "nonpayable",
      "type": "function"
    },
    {
      "inputs": [],
      "name": "name",
      "outputs": [
        {
          "internalType": "string",
          "name": "",
          "type": "string"
        }
      ],
      "stateMutability": "view",
      "type": "function"
    },
    {
      "inputs": [
        {
          "internalType": "address",
          "name": "",
          "type": "address"
        }
      ],
      "name": "nonces",
      "outputs": [
        {
          "internalType": "uint256",
          "name": "",
          "type": "uint256"
        }
      ],
      "stateMutability": "view",
      "type": "function"
    },
    {
      "inputs": [
        {
          "internalType": "address",
          "name": "",
          "type": "address"
        }
      ],
      "name": "numCheckpoints",
      "outputs": [
        {
          "internalType": "uint32",
          "name": "",
          "type": "uint32"
        }
      ],
      "stateMutability": "view",
      "type": "function"
    },
    {
      "inputs": [],
      "name": "owner",
      "outputs": [
        {
          "internalType": "address",
          "name": "",
          "type": "address"
        }
      ],
      "stateMutability": "view",
      "type": "function"
    },
    {
      "inputs": [
        {
          "internalType": "address",
          "name": "account",
          "type": "address"
        }
      ],
      "name": "removeMinter",
      "outputs": [],
      "stateMutability": "nonpayable",
      "type": "function"
    },
    {
      "inputs": [],
      "name": "renounceMinter",
      "outputs": [],
      "stateMutability": "nonpayable",
      "type": "function"
    },
    {
      "inputs": [],
      "name": "renounceOwnership",
      "outputs": [],
      "stateMutability": "nonpayable",
      "type": "function"
    },
    {
      "inputs": [],
      "name": "symbol",
      "outputs": [
        {
          "internalType": "string",
          "name": "",
          "type": "string"
        }
      ],
      "stateMutability": "view",
      "type": "function"
    },
    {
      "inputs": [],
      "name": "totalSupply",
      "outputs": [
        {
          "internalType": "uint256",
          "name": "",
          "type": "uint256"
        }
      ],
      "stateMutability": "view",
      "type": "function"
    },
    {
      "inputs": [
        {
          "internalType": "address",
          "name": "recipient",
          "type": "address"
        },
        {
          "internalType": "uint256",
          "name": "amount",
          "type": "uint256"
        }
      ],
      "name": "transfer",
      "outputs": [
        {
          "internalType": "bool",
          "name": "",
          "type": "bool"
        }
      ],
      "stateMutability": "nonpayable",
      "type": "function"
    },
    {
      "inputs": [
        {
          "internalType": "address",
          "name": "sender",
          "type": "address"
        },
        {
          "internalType": "address",
          "name": "recipient",
          "type": "address"
        },
        {
          "internalType": "uint256",
          "name": "amount",
          "type": "uint256"
        }
      ],
      "name": "transferFrom",
      "outputs": [
        {
          "internalType": "bool",
          "name": "",
          "type": "bool"
        }
      ],
      "stateMutability": "nonpayable",
      "type": "function"
    },
    {
      "inputs": [
        {
          "internalType": "address",
          "name": "newOwner",
          "type": "address"
        }
      ],
      "name": "transferOwnership",
      "outputs": [],
      "stateMutability": "nonpayable",
      "type": "function"
    }
  ],
  "bytecode": "0x60806040523480156200001157600080fd5b5060408051808201825260058082526407856454d560dc1b60208084018281528551808701909652928552840152815191929162000052916003916200028d565b508051620000689060049060208401906200028d565b50506005805460ff191660121790555060006200008462000136565b600a80546001600160a01b0319166001600160a01b038316908117909155604051919250906000907f8be0079c531659141344cd1fd0a4f28419497f9722a3daafe3b4186f6b6457e0908290a35060408051600180825281830190925260609160208083019080368337019050509050620000fe62000136565b816000815181106200010c57fe5b6001600160a01b03909216602092830291909101909101526200012f816200013a565b50620003f1565b3390565b6200015581600b6200019160201b62000e701790919060201c565b7f9646091f1eb704614b3a57bcb787d8521f85c089d1fcd1c09bdf98886bdb08328160405162000186919062000329565b60405180910390a150565b60005b81518110156200023d57620001c483838381518110620001b057fe5b60200260200101516200024260201b60201c565b15620001ed5760405162461bcd60e51b8152600401620001e49062000378565b60405180910390fd5b60018360000160008484815181106200020257fe5b6020908102919091018101516001600160a01b03168252810191909152604001600020805460ff191691151591909117905560010162000194565b505050565b60006001600160a01b0382166200026d5760405162461bcd60e51b8152600401620001e490620003af565b506001600160a01b03166000908152602091909152604090205460ff1690565b828054600181600116156101000203166002900490600052602060002090601f016020900481019282601f10620002d057805160ff191683800117855562000300565b8280016001018555821562000300579182015b8281111562000300578251825591602001919060010190620002e3565b506200030e92915062000312565b5090565b5b808211156200030e576000815560010162000313565b6020808252825182820181905260009190848201906040850190845b818110156200036c5783516001600160a01b03168352928401929184019160010162000345565b50909695505050505050565b6020808252601f908201527f526f6c65733a206163636f756e7420616c72656164792068617320726f6c6500604082015260600190565b60208082526022908201527f526f6c65733a206163636f756e7420697320746865207a65726f206164647265604082015261737360f01b606082015260800190565b61224280620004016000396000f3fe608060405234801561001057600080fd5b50600436106101e55760003560e01c8063782d6fe11161010f578063aa271e1a116100a2578063e7a324dc11610071578063e7a324dc146103ec578063f1127ed8146103f4578063f18e33e114610415578063f2fde38b14610428576101e5565b8063aa271e1a146103a0578063b4b5ea57146103b3578063c3cda520146103c6578063dd62ed3e146103d9576101e5565b806395d89b41116100de57806395d89b411461036a5780639865027514610372578063a457c2d71461037a578063a9059cbb1461038d576101e5565b8063782d6fe11461032957806379cc67901461033c5780637ecebe001461034f5780638da5cb5b14610362576101e5565b806339509351116101875780635c19a95c116101565780635c19a95c146102db5780636fcfff45146102ee57806370a082311461030e578063715018a614610321576101e5565b8063395093511461028257806340c10f191461029557806342966c68146102a8578063587cde1e146102bb576101e5565b806320606b70116101c357806320606b701461023d57806323b872dd146102455780633092afd514610258578063313ce5671461026d576101e5565b806306fdde03146101ea578063095ea7b31461020857806318160ddd14610228575b600080fd5b6101f261043b565b6040516101ff9190611b49565b60405180910390f35b61021b6102163660046118d6565b6104d1565b6040516101ff9190611acf565b6102306104ef565b6040516101ff9190611ada565b6102306104f5565b61021b610253366004611896565b610519565b61026b610266366004611847565b6105a0565b005b6102756105f4565b6040516101ff9190612063565b61021b6102903660046118d6565b6105fd565b61021b6102a33660046118d6565b61064b565b61026b6102b6366004611a3b565b61067e565b6102ce6102c9366004611847565b61068f565b6040516101ff9190611a6e565b61026b6102e9366004611847565b6106aa565b6103016102fc366004611847565b6106b4565b6040516101ff919061203c565b61023061031c366004611847565b6106cc565b61026b6106e7565b6102306103373660046118d6565b610770565b61026b61034a3660046118d6565b610959565b61023061035d366004611847565b6109ae565b6102ce6109c0565b6101f26109cf565b61026b610a30565b61021b6103883660046118d6565b610a42565b61021b61039b3660046118d6565b610aaa565b61021b6103ae366004611847565b610abe565b6102306103c1366004611847565b610acb565b61026b6103d4366004611900565b610b2f565b6102306103e7366004611862565b610d03565b610230610d2e565b61040761040236600461195f565b610d52565b6040516101ff92919061204d565b61026b61042336600461199e565b610d7f565b61026b610436366004611847565b610daf565b60038054604080516020601f60026000196101006001881615020190951694909404938401819004810282018101909252828152606093909290918301828280156104c75780601f1061049c576101008083540402835291602001916104c7565b820191906000526020600020905b8154815290600101906020018083116104aa57829003601f168201915b5050505050905090565b60006104e56104de610f04565b8484610f08565b5060015b92915050565b60025490565b7f8cad95687ba82c2ce50e74f7b754645e5117c3a5bec8151c0726d5857980a86681565b6000610526848484610fbc565b61059684610532610f04565b6105918560405180606001604052806028815260200161214b602891396001600160a01b038a16600090815260016020526040812090610570610f04565b6001600160a01b03168152602081019190915260400160002054919061110b565b610f08565b5060019392505050565b6105a8610f04565b6001600160a01b03166105b96109c0565b6001600160a01b0316146105e85760405162461bcd60e51b81526004016105df90611e27565b60405180910390fd5b6105f181611137565b50565b60055460ff1690565b60006104e561060a610f04565b84610591856001600061061b610f04565b6001600160a01b03908116825260208083019390935260409182016000908120918c168152925290205490611179565b60006106586103ae610f04565b6106745760405162461bcd60e51b81526004016105df90611d0c565b6104e5838361119e565b6105f1610689610f04565b82611283565b6006602052600090815260409020546001600160a01b031681565b6105f13382611365565b60086020526000908152604090205463ffffffff1681565b6001600160a01b031660009081526020819052604090205490565b6106ef610f04565b6001600160a01b03166107006109c0565b6001600160a01b0316146107265760405162461bcd60e51b81526004016105df90611e27565b600a546040516000916001600160a01b0316907f8be0079c531659141344cd1fd0a4f28419497f9722a3daafe3b4186f6b6457e0908390a3600a80546001600160a01b0319169055565b60004382106107915760405162461bcd60e51b81526004016105df90611f68565b6001600160a01b03831660009081526008602052604090205463ffffffff16806107bf5760009150506104e9565b6001600160a01b038416600090815260076020908152604080832063ffffffff60001986018116855292529091205416831061082e576001600160a01b03841660009081526007602090815260408083206000199490940163ffffffff168352929052206001015490506104e9565b6001600160a01b038416600090815260076020908152604080832083805290915290205463ffffffff168310156108695760009150506104e9565b600060001982015b8163ffffffff168163ffffffff16111561092257600282820363ffffffff1604810361089b611819565b506001600160a01b038716600090815260076020908152604080832063ffffffff8086168552908352928190208151808301909252805490931680825260019093015491810191909152908714156108fd576020015194506104e99350505050565b805163ffffffff168711156109145781935061091b565b6001820392505b5050610871565b506001600160a01b038516600090815260076020908152604080832063ffffffff9094168352929052206001015491505092915050565b600061098b8260405180606001604052806024815260200161217360249139610984866103e7610f04565b919061110b565b905061099f83610999610f04565b83610f08565b6109a98383611283565b505050565b60096020526000908152604090205481565b600a546001600160a01b031690565b60048054604080516020601f60026000196101006001881615020190951694909404938401819004810282018101909252828152606093909290918301828280156104c75780601f1061049c576101008083540402835291602001916104c7565b610a40610a3b610f04565b611137565b565b60006104e5610a4f610f04565b84610591856040518060600160405280602581526020016121c06025913960016000610a79610f04565b6001600160a01b03908116825260208083019390935260409182016000908120918d1681529252902054919061110b565b60006104e5610ab7610f04565b8484610fbc565b60006104e9600b836113e4565b6001600160a01b03811660009081526008602052604081205463ffffffff1680610af6576000610b28565b6001600160a01b038316600090815260076020908152604080832063ffffffff60001986011684529091529020600101545b9392505050565b60007f8cad95687ba82c2ce50e74f7b754645e5117c3a5bec8151c0726d5857980a866610b5a61043b565b80519060200120610b6961142c565b30604051602001610b7d9493929190611b07565b60405160208183030381529060405280519060200120905060007fe48329057bfd03d55e49b547132e39cffd9c1820ad7b9d4c5307691425d15adf888888604051602001610bce9493929190611ae3565b60405160208183030381529060405280519060200120905060008282604051602001610bfb929190611a53565b604051602081830303815290604052805190602001209050600060018288888860405160008152602001604052604051610c389493929190611b2b565b6020604051602081039080840390855afa158015610c5a573d6000803e3d6000fd5b5050604051601f1901519150506001600160a01b038116610c8d5760405162461bcd60e51b81526004016105df90611de0565b6001600160a01b03811660009081526009602052604090208054600181019091558914610ccc5760405162461bcd60e51b81526004016105df90611d9d565b87421115610cec5760405162461bcd60e51b81526004016105df90611fe7565b610cf6818b611365565b505050505b505050505050565b6001600160a01b03918216600090815260016020908152604080832093909416825291909152205490565b7fe48329057bfd03d55e49b547132e39cffd9c1820ad7b9d4c5307691425d15adf81565b60076020908152600092835260408084209091529082529020805460019091015463ffffffff9091169082565b610d8a6103ae610f04565b610da65760405162461bcd60e51b81526004016105df90611d0c565b6105f181611430565b610db7610f04565b6001600160a01b0316610dc86109c0565b6001600160a01b031614610dee5760405162461bcd60e51b81526004016105df90611e27565b6001600160a01b038116610e145760405162461bcd60e51b81526004016105df90611c16565b600a546040516001600160a01b038084169216907f8be0079c531659141344cd1fd0a4f28419497f9722a3daafe3b4186f6b6457e090600090a3600a80546001600160a01b0319166001600160a01b0392909216919091179055565b60005b81518110156109a957610e9983838381518110610e8c57fe5b60200260200101516113e4565b15610eb65760405162461bcd60e51b81526004016105df90611bdf565b6001836000016000848481518110610eca57fe5b6020908102919091018101516001600160a01b03168252810191909152604001600020805460ff1916911515919091179055600101610e73565b3390565b6001600160a01b038316610f2e5760405162461bcd60e51b81526004016105df90611f24565b6001600160a01b038216610f545760405162461bcd60e51b81526004016105df90611c5c565b6001600160a01b0380841660008181526001602090815260408083209487168084529490915290819020849055517f8c5be1e5ebec7d5bd14f71427d1e84f3dd0314c0f7b2291e5b200ac8c7c3b92590610faf908590611ada565b60405180910390a3505050565b6001600160a01b038316610fe25760405162461bcd60e51b81526004016105df90611edf565b6001600160a01b0382166110085760405162461bcd60e51b81526004016105df90611b9c565b6110138383836109a9565b611050816040518060600160405280602681526020016120f0602691396001600160a01b038616600090815260208190526040902054919061110b565b6001600160a01b03808516600090815260208190526040808220939093559084168152205461107f9082611179565b6001600160a01b0380841660008181526020819052604090819020939093559151908516907fddf252ad1be2c89b69c2b068fc378daa952ba7f163c4a11628f55a4df523b3ef906110d1908590611ada565b60405180910390a36001600160a01b038084166000908152600660205260408082205485841683529120546109a992918216911683611475565b6000818484111561112f5760405162461bcd60e51b81526004016105df9190611b49565b505050900390565b611142600b826115e4565b6040516001600160a01b038216907fe94479a9f7e1952cc78f2d6baab678adc1b772d936c6583def489e524cb6669290600090a250565b600082820183811015610b285760405162461bcd60e51b81526004016105df90611c9e565b6001600160a01b0382166111c45760405162461bcd60e51b81526004016105df90611fb0565b6111d0600083836109a9565b6002546111dd9082611179565b6002556001600160a01b0382166000908152602081905260409020546112039082611179565b6001600160a01b0383166000818152602081905260408082209390935591519091907fddf252ad1be2c89b69c2b068fc378daa952ba7f163c4a11628f55a4df523b3ef90611252908590611ada565b60405180910390a36001600160a01b0380831660009081526006602052604081205461127f921683611475565b5050565b6001600160a01b0382166112a95760405162461bcd60e51b81526004016105df90611e9e565b6112b5826000836109a9565b6112f2816040518060600160405280602281526020016120ce602291396001600160a01b038516600090815260208190526040902054919061110b565b6001600160a01b038316600090815260208190526040902055600254611318908261162c565b6002556040516000906001600160a01b038416907fddf252ad1be2c89b69c2b068fc378daa952ba7f163c4a11628f55a4df523b3ef90611359908590611ada565b60405180910390a35050565b6001600160a01b038083166000818152600660208181526040808420805485845282862054949093528787166001600160a01b03198416811790915590519190951694919391928592917f3134e8a2e6d97e929a7e54011ea5485d7d196dd5f0ba4d4ef95803e8e3fc257f9190a46113de828483611475565b50505050565b60006001600160a01b03821661140c5760405162461bcd60e51b81526004016105df90611e5c565b506001600160a01b03166000908152602091909152604090205460ff1690565b4690565b61143b600b82610e70565b7f9646091f1eb704614b3a57bcb787d8521f85c089d1fcd1c09bdf98886bdb08328160405161146a9190611a82565b60405180910390a150565b816001600160a01b0316836001600160a01b0316141580156114975750600081115b156109a9576001600160a01b03831615611542576001600160a01b03831660009081526008602052604081205463ffffffff1690816114d7576000611509565b6001600160a01b038516600090815260076020908152604080832063ffffffff60001987011684529091529020600101545b9050600061153082856040518060600160405280602981526020016121976029913961110b565b905061153e86848484611654565b5050505b6001600160a01b038216156109a9576001600160a01b03821660009081526008602052604081205463ffffffff16908161157d5760006115af565b6001600160a01b038416600090815260076020908152604080832063ffffffff60001987011684529091529020600101545b905060006115d682856040518060600160405280602881526020016121e5602891396117b9565b9050610cfb85848484611654565b6115ee82826113e4565b61160a5760405162461bcd60e51b81526004016105df90611d5c565b6001600160a01b0316600090815260209190915260409020805460ff19169055565b60008282111561164e5760405162461bcd60e51b81526004016105df90611cd5565b50900390565b600061167843604051806060016040528060358152602001612116603591396117e9565b905060008463ffffffff161180156116c157506001600160a01b038516600090815260076020908152604080832063ffffffff6000198901811685529252909120548282169116145b156116fe576001600160a01b038516600090815260076020908152604080832063ffffffff6000198901168452909152902060010182905561176f565b60408051808201825263ffffffff808416825260208083018681526001600160a01b038a166000818152600784528681208b8616825284528681209551865490861663ffffffff19918216178755925160019687015590815260089092529390208054928801909116919092161790555b846001600160a01b03167fdec2bacdd2f05b59de34da9b523dff8be42e5e38e818c82fdb0bae774387a72484846040516117aa92919061202e565b60405180910390a25050505050565b600083830182858210156117e05760405162461bcd60e51b81526004016105df9190611b49565b50949350505050565b60008164010000000084106118115760405162461bcd60e51b81526004016105df9190611b49565b509192915050565b604080518082019091526000808252602082015290565b80356001600160a01b03811681146104e957600080fd5b600060208284031215611858578081fd5b610b288383611830565b60008060408385031215611874578081fd5b61187e8484611830565b915061188d8460208501611830565b90509250929050565b6000806000606084860312156118aa578081fd5b83356118b5816120b8565b925060208401356118c5816120b8565b929592945050506040919091013590565b600080604083850312156118e8578182fd5b6118f28484611830565b946020939093013593505050565b60008060008060008060c08789031215611918578182fd5b6119228888611830565b95506020870135945060408701359350606087013560ff81168114611945578283fd5b9598949750929560808101359460a0909101359350915050565b60008060408385031215611971578182fd5b61197b8484611830565b9150602083013563ffffffff81168114611993578182fd5b809150509250929050565b600060208083850312156119b0578182fd5b823567ffffffffffffffff8111156119c6578283fd5b8301601f810185136119d6578283fd5b80356119e96119e482612098565b612071565b8181528381019083850185840285018601891015611a05578687fd5b8694505b83851015611a2f57611a1b8982611830565b835260019490940193918501918501611a09565b50979650505050505050565b600060208284031215611a4c578081fd5b5035919050565b61190160f01b81526002810192909252602282015260420190565b6001600160a01b0391909116815260200190565b6020808252825182820181905260009190848201906040850190845b81811015611ac35783516001600160a01b031683529284019291840191600101611a9e565b50909695505050505050565b901515815260200190565b90815260200190565b9384526001600160a01b039290921660208401526040830152606082015260800190565b938452602084019290925260408301526001600160a01b0316606082015260800190565b93845260ff9290921660208401526040830152606082015260800190565b6000602080835283518082850152825b81811015611b7557858101830151858201604001528201611b59565b81811115611b865783604083870101525b50601f01601f1916929092016040019392505050565b60208082526023908201527f45524332303a207472616e7366657220746f20746865207a65726f206164647260408201526265737360e81b606082015260800190565b6020808252601f908201527f526f6c65733a206163636f756e7420616c72656164792068617320726f6c6500604082015260600190565b60208082526026908201527f4f776e61626c653a206e6577206f776e657220697320746865207a65726f206160408201526564647265737360d01b606082015260800190565b60208082526022908201527f45524332303a20617070726f766520746f20746865207a65726f206164647265604082015261737360f01b606082015260800190565b6020808252601b908201527f536166654d6174683a206164646974696f6e206f766572666c6f770000000000604082015260600190565b6020808252601e908201527f536166654d6174683a207375627472616374696f6e206f766572666c6f770000604082015260600190565b60208082526030908201527f4d696e746572526f6c653a2063616c6c657220646f6573206e6f74206861766560408201526f20746865204d696e74657220726f6c6560801b606082015260800190565b60208082526021908201527f526f6c65733a206163636f756e7420646f6573206e6f74206861766520726f6c6040820152606560f81b606082015260800190565b60208082526023908201527f7856656d703a3a64656c656761746542795369673a20696e76616c6964206e6f6040820152626e636560e81b606082015260800190565b60208082526027908201527f7856656d703a3a64656c656761746542795369673a20696e76616c6964207369604082015266676e617475726560c81b606082015260800190565b6020808252818101527f4f776e61626c653a2063616c6c6572206973206e6f7420746865206f776e6572604082015260600190565b60208082526022908201527f526f6c65733a206163636f756e7420697320746865207a65726f206164647265604082015261737360f01b606082015260800190565b60208082526021908201527f45524332303a206275726e2066726f6d20746865207a65726f206164647265736040820152607360f81b606082015260800190565b60208082526025908201527f45524332303a207472616e736665722066726f6d20746865207a65726f206164604082015264647265737360d81b606082015260800190565b60208082526024908201527f45524332303a20617070726f76652066726f6d20746865207a65726f206164646040820152637265737360e01b606082015260800190565b60208082526028908201527f7856656d703a3a6765745072696f72566f7465733a206e6f74207965742064656040820152671d195c9b5a5b995960c21b606082015260800190565b6020808252601f908201527f45524332303a206d696e7420746f20746865207a65726f206164647265737300604082015260600190565b60208082526027908201527f7856656d703a3a64656c656761746542795369673a207369676e617475726520604082015266195e1c1a5c995960ca1b606082015260800190565b918252602082015260400190565b63ffffffff91909116815260200190565b63ffffffff929092168252602082015260400190565b60ff91909116815260200190565b60405181810167ffffffffffffffff8111828210171561209057600080fd5b604052919050565b600067ffffffffffffffff8211156120ae578081fd5b5060209081020190565b6001600160a01b03811681146105f157600080fdfe45524332303a206275726e20616d6f756e7420657863656564732062616c616e636545524332303a207472616e7366657220616d6f756e7420657863656564732062616c616e63657856656d703a3a5f7772697465436865636b706f696e743a20626c6f636b206e756d6265722065786365656473203332206269747345524332303a207472616e7366657220616d6f756e74206578636565647320616c6c6f77616e636545524332303a206275726e20616d6f756e74206578636565647320616c6c6f77616e63657856656d703a3a5f6d6f7665566f7465733a20766f746520616d6f756e7420756e646572666c6f777345524332303a2064656372656173656420616c6c6f77616e63652062656c6f77207a65726f7856656d703a3a5f6d6f7665566f7465733a20766f746520616d6f756e74206f766572666c6f7773a2646970667358221220f269a0035125cd4387d2b9f88564fdc0fa99abafef3c959a428f8aae37b70a1d64736f6c634300060c0033",
  "immutableReferences": {},
  "source": "// SPDX-License-Identifier: Unlicensed\n\npragma solidity ^0.6.12;\npragma experimental ABIEncoderV2;\n\nimport \"../common/ERC20Mintable.sol\";\nimport \"../common/ERC20Burnable.sol\";\n\ncontract xVEMPToken is ERC20, ERC20Mintable, ERC20Burnable {\n    \n    constructor() public ERC20(\"xVEMP\", \"xVEMP\"){\n    }\n}",
  "sourcePath": "/home/jagveer/Videos/Paresh/VEMPIRE/vempire/smart-contract/contracts/governancedao/xVEMPToken.sol",
  "compiler": {
    "name": "solc",
    "version": "0.6.12+commit.27d51765.Emscripten.clang"
  },
  "schemaVersion": "3.4.2",
  "updatedAt": "2021-08-24T13:34:06.062Z",
  "devdoc": {
    "kind": "dev",
    "methods": {
      "allowance(address,address)": {
        "details": "See {IERC20-allowance}."
      },
      "approve(address,uint256)": {
        "details": "See {IERC20-approve}. Requirements: - `spender` cannot be the zero address."
      },
      "balanceOf(address)": {
        "details": "See {IERC20-balanceOf}."
      },
      "burn(uint256)": {
        "details": "Destroys `amount` tokens from the caller. See {ERC20-_burn}."
      },
      "burnFrom(address,uint256)": {
        "details": "Destroys `amount` tokens from `account`, deducting from the caller's allowance. See {ERC20-_burn} and {ERC20-allowance}. Requirements: - the caller must have allowance for ``accounts``'s tokens of at least `amount`."
      },
      "decimals()": {
        "details": "Returns the number of decimals used to get its user representation. For example, if `decimals` equals `2`, a balance of `505` tokens should be displayed to a user as `5,05` (`505 / 10 ** 2`). Tokens usually opt for a value of 18, imitating the relationship between Ether and Wei. This is the value {ERC20} uses, unless {_setupDecimals} is called. NOTE: This information is only used for _display_ purposes: it in no way affects any of the arithmetic of the contract, including {IERC20-balanceOf} and {IERC20-transfer}."
      },
      "decreaseAllowance(address,uint256)": {
        "details": "Atomically decreases the allowance granted to `spender` by the caller. This is an alternative to {approve} that can be used as a mitigation for problems described in {IERC20-approve}. Emits an {Approval} event indicating the updated allowance. Requirements: - `spender` cannot be the zero address. - `spender` must have allowance for the caller of at least `subtractedValue`."
      },
      "delegate(address)": {
        "params": {
          "delegatee": "The address to delegate votes to"
        }
      },
      "delegateBySig(address,uint256,uint256,uint8,bytes32,bytes32)": {
        "params": {
          "delegatee": "The address to delegate votes to",
          "expiry": "The time at which to expire the signature",
          "nonce": "The contract state required to match the signature",
          "r": "Half of the ECDSA signature pair",
          "s": "Half of the ECDSA signature pair",
          "v": "The recovery byte of the signature"
        }
      },
      "getCurrentVotes(address)": {
        "params": {
          "account": "The address to get votes balance"
        },
        "returns": {
          "_0": "The number of current votes for `account`"
        }
      },
      "getPriorVotes(address,uint256)": {
        "details": "Block number must be a finalized block or else this function will revert to prevent misinformation.",
        "params": {
          "account": "The address of the account to check",
          "blockNumber": "The block number to get the vote balance at"
        },
        "returns": {
          "_0": "The number of votes the account had as of the given block"
        }
      },
      "increaseAllowance(address,uint256)": {
        "details": "Atomically increases the allowance granted to `spender` by the caller. This is an alternative to {approve} that can be used as a mitigation for problems described in {IERC20-approve}. Emits an {Approval} event indicating the updated allowance. Requirements: - `spender` cannot be the zero address."
      },
      "mint(address,uint256)": {
        "details": "See {ERC20-_mint}. Requirements: - the caller must have the {MinterRole}."
      },
      "name()": {
        "details": "Returns the name of the token."
      },
      "owner()": {
        "details": "Returns the address of the current owner."
      },
      "renounceOwnership()": {
        "details": "Leaves the contract without owner. It will not be possible to call `onlyOwner` functions anymore. Can only be called by the current owner. NOTE: Renouncing ownership will leave the contract without an owner, thereby removing any functionality that is only available to the owner."
      },
      "symbol()": {
        "details": "Returns the symbol of the token, usually a shorter version of the name."
      },
      "totalSupply()": {
        "details": "See {IERC20-totalSupply}."
      },
      "transfer(address,uint256)": {
        "details": "See {IERC20-transfer}. Requirements: - `recipient` cannot be the zero address. - the caller must have a balance of at least `amount`."
      },
      "transferFrom(address,address,uint256)": {
        "details": "See {IERC20-transferFrom}. Emits an {Approval} event indicating the updated allowance. This is not required by the EIP. See the note at the beginning of {ERC20}; Requirements: - `sender` and `recipient` cannot be the zero address. - `sender` must have a balance of at least `amount`. - the caller must have allowance for ``sender``'s tokens of at least `amount`."
      },
      "transferOwnership(address)": {
        "details": "Transfers ownership of the contract to a new account (`newOwner`). Can only be called by the current owner."
      }
    },
    "version": 1
  },
  "userdoc": {
    "events": {
      "DelegateChanged(address,address,address)": {
        "notice": "An event thats emitted when an account changes its delegate"
      },
      "DelegateVotesChanged(address,uint256,uint256)": {
        "notice": "An event thats emitted when a delegate account's vote balance changes"
      }
    },
    "kind": "user",
    "methods": {
      "DELEGATION_TYPEHASH()": {
        "notice": "The EIP-712 typehash for the delegation struct used by the contract"
      },
      "DOMAIN_TYPEHASH()": {
        "notice": "The EIP-712 typehash for the contract's domain"
      },
      "checkpoints(address,uint32)": {
        "notice": "A record of votes checkpoints for each account, by index"
      },
      "delegate(address)": {
        "notice": "Delegate votes from `msg.sender` to `delegatee`"
      },
      "delegateBySig(address,uint256,uint256,uint8,bytes32,bytes32)": {
        "notice": "Delegates votes from signatory to `delegatee`"
      },
      "delegates(address)": {
        "notice": "A record of each accounts delegate"
      },
      "getCurrentVotes(address)": {
        "notice": "Gets the current votes balance for `account`"
      },
      "getPriorVotes(address,uint256)": {
        "notice": "Determine the prior number of votes for an account as of a block number"
      },
      "nonces(address)": {
        "notice": "A record of states for signing / validating signatures"
      },
      "numCheckpoints(address)": {
        "notice": "The number of checkpoints for each account"
      }
    },
    "version": 1
  }
}