{
  "_format": "hh-sol-artifact-1",
  "contractName": "SampleToken",
  "sourceName": "contracts/mock/SampleToken.sol",
  "abi": [
    {
      "inputs": [],
      "stateMutability": "nonpayable",
      "type": "constructor"
    },
    {
      "anonymous": false,
      "inputs": [
        {
          "indexed": false,
          "internalType": "address",
          "name": "previousAdmin",
          "type": "address"
        },
        {
          "indexed": false,
          "internalType": "address",
          "name": "newAdmin",
          "type": "address"
        }
      ],
      "name": "AdminChanged",
      "type": "event"
    },
    {
      "anonymous": false,
      "inputs": [
        {
          "indexed": true,
          "internalType": "address",
          "name": "owner",
          "type": "address"
        },
        {
          "indexed": true,
          "internalType": "address",
          "name": "spender",
          "type": "address"
        },
        {
          "indexed": false,
          "internalType": "uint256",
          "name": "value",
          "type": "uint256"
        }
      ],
      "name": "Approval",
      "type": "event"
    },
    {
      "anonymous": false,
      "inputs": [
        {
          "indexed": true,
          "internalType": "address",
          "name": "beacon",
          "type": "address"
        }
      ],
      "name": "BeaconUpgraded",
      "type": "event"
    },
    {
      "anonymous": false,
      "inputs": [
        {
          "indexed": true,
          "internalType": "address",
          "name": "previousOwner",
          "type": "address"
        },
        {
          "indexed": true,
          "internalType": "address",
          "name": "newOwner",
          "type": "address"
        }
      ],
      "name": "OwnershipTransferred",
      "type": "event"
    },
    {
      "anonymous": false,
      "inputs": [
        {
          "indexed": true,
          "internalType": "address",
          "name": "from",
          "type": "address"
        },
        {
          "indexed": true,
          "internalType": "address",
          "name": "to",
          "type": "address"
        },
        {
          "indexed": false,
          "internalType": "uint256",
          "name": "value",
          "type": "uint256"
        }
      ],
      "name": "Transfer",
      "type": "event"
    },
    {
      "anonymous": false,
      "inputs": [
        {
          "indexed": true,
          "internalType": "address",
          "name": "implementation",
          "type": "address"
        }
      ],
      "name": "Upgraded",
      "type": "event"
    },
    {
      "inputs": [
        {
          "internalType": "address",
          "name": "owner",
          "type": "address"
        },
        {
          "internalType": "address",
          "name": "spender",
          "type": "address"
        }
      ],
      "name": "allowance",
      "outputs": [
        {
          "internalType": "uint256",
          "name": "",
          "type": "uint256"
        }
      ],
      "stateMutability": "view",
      "type": "function"
    },
    {
      "inputs": [
        {
          "internalType": "address",
          "name": "spender",
          "type": "address"
        },
        {
          "internalType": "uint256",
          "name": "amount",
          "type": "uint256"
        }
      ],
      "name": "approve",
      "outputs": [
        {
          "internalType": "bool",
          "name": "",
          "type": "bool"
        }
      ],
      "stateMutability": "nonpayable",
      "type": "function"
    },
    {
      "inputs": [
        {
          "internalType": "address",
          "name": "account",
          "type": "address"
        }
      ],
      "name": "balanceOf",
      "outputs": [
        {
          "internalType": "uint256",
          "name": "",
          "type": "uint256"
        }
      ],
      "stateMutability": "view",
      "type": "function"
    },
    {
      "inputs": [],
      "name": "decimals",
      "outputs": [
        {
          "internalType": "uint8",
          "name": "",
          "type": "uint8"
        }
      ],
      "stateMutability": "view",
      "type": "function"
    },
    {
      "inputs": [
        {
          "internalType": "address",
          "name": "spender",
          "type": "address"
        },
        {
          "internalType": "uint256",
          "name": "subtractedValue",
          "type": "uint256"
        }
      ],
      "name": "decreaseAllowance",
      "outputs": [
        {
          "internalType": "bool",
          "name": "",
          "type": "bool"
        }
      ],
      "stateMutability": "nonpayable",
      "type": "function"
    },
    {
      "inputs": [
        {
          "internalType": "address",
          "name": "spender",
          "type": "address"
        },
        {
          "internalType": "uint256",
          "name": "addedValue",
          "type": "uint256"
        }
      ],
      "name": "increaseAllowance",
      "outputs": [
        {
          "internalType": "bool",
          "name": "",
          "type": "bool"
        }
      ],
      "stateMutability": "nonpayable",
      "type": "function"
    },
    {
      "inputs": [],
      "name": "initialize",
      "outputs": [],
      "stateMutability": "nonpayable",
      "type": "function"
    },
    {
      "inputs": [],
      "name": "name",
      "outputs": [
        {
          "internalType": "string",
          "name": "",
          "type": "string"
        }
      ],
      "stateMutability": "view",
      "type": "function"
    },
    {
      "inputs": [],
      "name": "owner",
      "outputs": [
        {
          "internalType": "address",
          "name": "",
          "type": "address"
        }
      ],
      "stateMutability": "view",
      "type": "function"
    },
    {
      "inputs": [],
      "name": "proxiableUUID",
      "outputs": [
        {
          "internalType": "bytes32",
          "name": "",
          "type": "bytes32"
        }
      ],
      "stateMutability": "view",
      "type": "function"
    },
    {
      "inputs": [],
      "name": "renounceOwnership",
      "outputs": [],
      "stateMutability": "nonpayable",
      "type": "function"
    },
    {
      "inputs": [],
      "name": "symbol",
      "outputs": [
        {
          "internalType": "string",
          "name": "",
          "type": "string"
        }
      ],
      "stateMutability": "view",
      "type": "function"
    },
    {
      "inputs": [],
      "name": "totalSupply",
      "outputs": [
        {
          "internalType": "uint256",
          "name": "",
          "type": "uint256"
        }
      ],
      "stateMutability": "view",
      "type": "function"
    },
    {
      "inputs": [
        {
          "internalType": "address",
          "name": "to",
          "type": "address"
        },
        {
          "internalType": "uint256",
          "name": "amount",
          "type": "uint256"
        }
      ],
      "name": "transfer",
      "outputs": [
        {
          "internalType": "bool",
          "name": "",
          "type": "bool"
        }
      ],
      "stateMutability": "nonpayable",
      "type": "function"
    },
    {
      "inputs": [
        {
          "internalType": "address",
          "name": "from",
          "type": "address"
        },
        {
          "internalType": "address",
          "name": "to",
          "type": "address"
        },
        {
          "internalType": "uint256",
          "name": "amount",
          "type": "uint256"
        }
      ],
      "name": "transferFrom",
      "outputs": [
        {
          "internalType": "bool",
          "name": "",
          "type": "bool"
        }
      ],
      "stateMutability": "nonpayable",
      "type": "function"
    },
    {
      "inputs": [
        {
          "internalType": "address",
          "name": "newOwner",
          "type": "address"
        }
      ],
      "name": "transferOwnership",
      "outputs": [],
      "stateMutability": "nonpayable",
      "type": "function"
    },
    {
      "inputs": [
        {
          "internalType": "address",
          "name": "newImplementation",
          "type": "address"
        }
      ],
      "name": "upgradeTo",
      "outputs": [],
      "stateMutability": "nonpayable",
      "type": "function"
    },
    {
      "inputs": [
        {
          "internalType": "address",
          "name": "newImplementation",
          "type": "address"
        },
        {
          "internalType": "bytes",
          "name": "data",
          "type": "bytes"
        }
      ],
      "name": "upgradeToAndCall",
      "outputs": [],
      "stateMutability": "payable",
      "type": "function"
    }
  ],
  "bytecode": "0x60a06040523060601b6080523480156200001857600080fd5b50600054610100900460ff16620000365760005460ff161562000040565b62000040620000e5565b620000a85760405162461bcd60e51b815260206004820152602e60248201527f496e697469616c697a61626c653a20636f6e747261637420697320616c72656160448201526d191e481a5b9a5d1a585b1a5e995960921b606482015260840160405180910390fd5b600054610100900460ff16158015620000cb576000805461ffff19166101011790555b8015620000de576000805461ff00191690555b5062000112565b6000620000fd306200010360201b62000bda1760201c565b15905090565b6001600160a01b03163b151590565b60805160601c611ca16200014d6000396000818161046e015281816104f80152818161062e015281816106b3015261079d0152611ca16000f3fe6080604052600436106101295760003560e01c806370a08231116100a557806395d89b4111610074578063a9059cbb11610059578063a9059cbb1461030b578063dd62ed3e1461032b578063f2fde38b1461037157600080fd5b806395d89b41146102d6578063a457c2d7146102eb57600080fd5b806370a082311461024e578063715018a6146102845780638129fc1c146102995780638da5cb5b146102ae57600080fd5b8063313ce567116100fc57806339509351116100e157806339509351146102065780634f1ef2861461022657806352d1902d1461023957600080fd5b8063313ce567146101c85780633659cfe6146101e457600080fd5b806306fdde031461012e578063095ea7b31461015957806318160ddd1461018957806323b872dd146101a8575b600080fd5b34801561013a57600080fd5b50610143610391565b6040516101509190611a59565b60405180910390f35b34801561016557600080fd5b506101796101743660046119fc565b610423565b6040519015158152602001610150565b34801561019557600080fd5b506035545b604051908152602001610150565b3480156101b457600080fd5b506101796101c3366004611904565b61043d565b3480156101d457600080fd5b5060405160128152602001610150565b3480156101f057600080fd5b506102046101ff3660046118b8565b610463565b005b34801561021257600080fd5b506101796102213660046119fc565b6105e4565b61020461023436600461193f565b610623565b34801561024557600080fd5b5061019a610790565b34801561025a57600080fd5b5061019a6102693660046118b8565b6001600160a01b031660009081526033602052604090205490565b34801561029057600080fd5b50610204610855565b3480156102a557600080fd5b506102046108bb565b3480156102ba57600080fd5b506065546040516001600160a01b039091168152602001610150565b3480156102e257600080fd5b50610143610a29565b3480156102f757600080fd5b506101796103063660046119fc565b610a38565b34801561031757600080fd5b506101796103263660046119fc565b610aed565b34801561033757600080fd5b5061019a6103463660046118d2565b6001600160a01b03918216600090815260346020908152604080832093909416825291909152205490565b34801561037d57600080fd5b5061020461038c3660046118b8565b610afb565b6060603680546103a090611bdd565b80601f01602080910402602001604051908101604052809291908181526020018280546103cc90611bdd565b80156104195780601f106103ee57610100808354040283529160200191610419565b820191906000526020600020905b8154815290600101906020018083116103fc57829003601f168201915b5050505050905090565b600033610431818585610be9565b60019150505b92915050565b60003361044b858285610d41565b610456858585610dd3565b60019150505b9392505050565b306001600160a01b037f00000000000000000000000000000000000000000000000000000000000000001614156104f65760405162461bcd60e51b815260206004820152602c60248201527f46756e6374696f6e206d7573742062652063616c6c6564207468726f7567682060448201526b19195b1959d85d1958d85b1b60a21b60648201526084015b60405180910390fd5b7f00000000000000000000000000000000000000000000000000000000000000006001600160a01b03166105517f360894a13ba1a3210667c828492db98dca3e2076cc3735a920a3ca505d382bbc546001600160a01b031690565b6001600160a01b0316146105bc5760405162461bcd60e51b815260206004820152602c60248201527f46756e6374696f6e206d7573742062652063616c6c6564207468726f7567682060448201526b6163746976652070726f787960a01b60648201526084016104ed565b6105c581610fea565b604080516000808252602082019092526105e191839190611044565b50565b3360008181526034602090815260408083206001600160a01b0387168452909152812054909190610431908290869061061e908790611a8c565b610be9565b306001600160a01b037f00000000000000000000000000000000000000000000000000000000000000001614156106b15760405162461bcd60e51b815260206004820152602c60248201527f46756e6374696f6e206d7573742062652063616c6c6564207468726f7567682060448201526b19195b1959d85d1958d85b1b60a21b60648201526084016104ed565b7f00000000000000000000000000000000000000000000000000000000000000006001600160a01b031661070c7f360894a13ba1a3210667c828492db98dca3e2076cc3735a920a3ca505d382bbc546001600160a01b031690565b6001600160a01b0316146107775760405162461bcd60e51b815260206004820152602c60248201527f46756e6374696f6e206d7573742062652063616c6c6564207468726f7567682060448201526b6163746976652070726f787960a01b60648201526084016104ed565b61078082610fea565b61078c82826001611044565b5050565b6000306001600160a01b037f000000000000000000000000000000000000000000000000000000000000000016146108305760405162461bcd60e51b815260206004820152603860248201527f555550535570677261646561626c653a206d757374206e6f742062652063616c60448201527f6c6564207468726f7567682064656c656761746563616c6c000000000000000060648201526084016104ed565b507f360894a13ba1a3210667c828492db98dca3e2076cc3735a920a3ca505d382bbc90565b6065546001600160a01b031633146108af5760405162461bcd60e51b815260206004820181905260248201527f4f776e61626c653a2063616c6c6572206973206e6f7420746865206f776e657260448201526064016104ed565b6108b960006111f8565b565b600054610100900460ff166108d65760005460ff16156108da565b303b155b61094c5760405162461bcd60e51b815260206004820152602e60248201527f496e697469616c697a61626c653a20636f6e747261637420697320616c72656160448201527f647920696e697469616c697a656400000000000000000000000000000000000060648201526084016104ed565b600054610100900460ff1615801561096e576000805461ffff19166101011790555b6109e26040518060400160405280600b81526020017f53616d706c65546f6b656e0000000000000000000000000000000000000000008152506040518060400160405280600481526020017f534d504c00000000000000000000000000000000000000000000000000000000815250611257565b6109ea6112cc565b6109f261133f565b610a1533610a026012600a611ae7565b610a10906305f5e100611b92565b6113aa565b80156105e1576000805461ff001916905550565b6060603780546103a090611bdd565b3360008181526034602090815260408083206001600160a01b038716845290915281205490919083811015610ad55760405162461bcd60e51b815260206004820152602560248201527f45524332303a2064656372656173656420616c6c6f77616e63652062656c6f7760448201527f207a65726f00000000000000000000000000000000000000000000000000000060648201526084016104ed565b610ae28286868403610be9565b506001949350505050565b600033610431818585610dd3565b6065546001600160a01b03163314610b555760405162461bcd60e51b815260206004820181905260248201527f4f776e61626c653a2063616c6c6572206973206e6f7420746865206f776e657260448201526064016104ed565b6001600160a01b038116610bd15760405162461bcd60e51b815260206004820152602660248201527f4f776e61626c653a206e6577206f776e657220697320746865207a65726f206160448201527f646472657373000000000000000000000000000000000000000000000000000060648201526084016104ed565b6105e1816111f8565b6001600160a01b03163b151590565b6001600160a01b038316610c645760405162461bcd60e51b8152602060048201526024808201527f45524332303a20617070726f76652066726f6d20746865207a65726f2061646460448201527f726573730000000000000000000000000000000000000000000000000000000060648201526084016104ed565b6001600160a01b038216610ce05760405162461bcd60e51b815260206004820152602260248201527f45524332303a20617070726f766520746f20746865207a65726f20616464726560448201527f737300000000000000000000000000000000000000000000000000000000000060648201526084016104ed565b6001600160a01b0383811660008181526034602090815260408083209487168084529482529182902085905590518481527f8c5be1e5ebec7d5bd14f71427d1e84f3dd0314c0f7b2291e5b200ac8c7c3b925910160405180910390a3505050565b6001600160a01b038381166000908152603460209081526040808320938616835292905220546000198114610dcd5781811015610dc05760405162461bcd60e51b815260206004820152601d60248201527f45524332303a20696e73756666696369656e7420616c6c6f77616e636500000060448201526064016104ed565b610dcd8484848403610be9565b50505050565b6001600160a01b038316610e4f5760405162461bcd60e51b815260206004820152602560248201527f45524332303a207472616e736665722066726f6d20746865207a65726f20616460448201527f647265737300000000000000000000000000000000000000000000000000000060648201526084016104ed565b6001600160a01b038216610ecb5760405162461bcd60e51b815260206004820152602360248201527f45524332303a207472616e7366657220746f20746865207a65726f206164647260448201527f657373000000000000000000000000000000000000000000000000000000000060648201526084016104ed565b6001600160a01b03831660009081526033602052604090205481811015610f5a5760405162461bcd60e51b815260206004820152602660248201527f45524332303a207472616e7366657220616d6f756e742065786365656473206260448201527f616c616e6365000000000000000000000000000000000000000000000000000060648201526084016104ed565b6001600160a01b03808516600090815260336020526040808220858503905591851681529081208054849290610f91908490611a8c565b92505081905550826001600160a01b0316846001600160a01b03167fddf252ad1be2c89b69c2b068fc378daa952ba7f163c4a11628f55a4df523b3ef84604051610fdd91815260200190565b60405180910390a3610dcd565b6065546001600160a01b031633146105e15760405162461bcd60e51b815260206004820181905260248201527f4f776e61626c653a2063616c6c6572206973206e6f7420746865206f776e657260448201526064016104ed565b7f4910fdfa16fed3260ed0e7147f7cc6da11a60208b5b9406d12a635614ffd91435460ff161561107c5761107783611489565b505050565b826001600160a01b03166352d1902d6040518163ffffffff1660e01b815260040160206040518083038186803b1580156110b557600080fd5b505afa9250505080156110e5575060408051601f3d908101601f191682019092526110e291810190611a25565b60015b6111575760405162461bcd60e51b815260206004820152602e60248201527f45524331393637557067726164653a206e657720696d706c656d656e7461746960448201527f6f6e206973206e6f74205555505300000000000000000000000000000000000060648201526084016104ed565b7f360894a13ba1a3210667c828492db98dca3e2076cc3735a920a3ca505d382bbc81146111ec5760405162461bcd60e51b815260206004820152602960248201527f45524331393637557067726164653a20756e737570706f727465642070726f7860448201527f6961626c6555554944000000000000000000000000000000000000000000000060648201526084016104ed565b50611077838383611554565b606580546001600160a01b0383811673ffffffffffffffffffffffffffffffffffffffff19831681179093556040519116919082907f8be0079c531659141344cd1fd0a4f28419497f9722a3daafe3b4186f6b6457e090600090a35050565b600054610100900460ff166112c25760405162461bcd60e51b815260206004820152602b60248201527f496e697469616c697a61626c653a20636f6e7472616374206973206e6f74206960448201526a6e697469616c697a696e6760a81b60648201526084016104ed565b61078c8282611579565b600054610100900460ff166113375760405162461bcd60e51b815260206004820152602b60248201527f496e697469616c697a61626c653a20636f6e7472616374206973206e6f74206960448201526a6e697469616c697a696e6760a81b60648201526084016104ed565b6108b961160b565b600054610100900460ff166108b95760405162461bcd60e51b815260206004820152602b60248201527f496e697469616c697a61626c653a20636f6e7472616374206973206e6f74206960448201526a6e697469616c697a696e6760a81b60648201526084016104ed565b6001600160a01b0382166114005760405162461bcd60e51b815260206004820152601f60248201527f45524332303a206d696e7420746f20746865207a65726f20616464726573730060448201526064016104ed565b80603560008282546114129190611a8c565b90915550506001600160a01b0382166000908152603360205260408120805483929061143f908490611a8c565b90915550506040518181526001600160a01b038316906000907fddf252ad1be2c89b69c2b068fc378daa952ba7f163c4a11628f55a4df523b3ef9060200160405180910390a35050565b6001600160a01b0381163b6115065760405162461bcd60e51b815260206004820152602d60248201527f455243313936373a206e657720696d706c656d656e746174696f6e206973206e60448201527f6f74206120636f6e74726163740000000000000000000000000000000000000060648201526084016104ed565b7f360894a13ba1a3210667c828492db98dca3e2076cc3735a920a3ca505d382bbc805473ffffffffffffffffffffffffffffffffffffffff19166001600160a01b0392909216919091179055565b61155d8361167f565b60008251118061156a5750805b1561107757610dcd83836116bf565b600054610100900460ff166115e45760405162461bcd60e51b815260206004820152602b60248201527f496e697469616c697a61626c653a20636f6e7472616374206973206e6f74206960448201526a6e697469616c697a696e6760a81b60648201526084016104ed565b81516115f7906036906020850190611803565b508051611077906037906020840190611803565b600054610100900460ff166116765760405162461bcd60e51b815260206004820152602b60248201527f496e697469616c697a61626c653a20636f6e7472616374206973206e6f74206960448201526a6e697469616c697a696e6760a81b60648201526084016104ed565b6108b9336111f8565b61168881611489565b6040516001600160a01b038216907fbc7cd75a20ee27fd9adebab32041f755214dbc6bffa90cc0225b39da2e5c2d3b90600090a250565b60606001600160a01b0383163b61173e5760405162461bcd60e51b815260206004820152602660248201527f416464726573733a2064656c65676174652063616c6c20746f206e6f6e2d636f60448201527f6e7472616374000000000000000000000000000000000000000000000000000060648201526084016104ed565b600080846001600160a01b0316846040516117599190611a3d565b600060405180830381855af49150503d8060008114611794576040519150601f19603f3d011682016040523d82523d6000602084013e611799565b606091505b50915091506117c18282604051806060016040528060278152602001611c45602791396117ca565b95945050505050565b606083156117d957508161045c565b8251156117e95782518084602001fd5b8160405162461bcd60e51b81526004016104ed9190611a59565b82805461180f90611bdd565b90600052602060002090601f0160209004810192826118315760008555611877565b82601f1061184a57805160ff1916838001178555611877565b82800160010185558215611877579182015b8281111561187757825182559160200191906001019061185c565b50611883929150611887565b5090565b5b808211156118835760008155600101611888565b80356001600160a01b03811681146118b357600080fd5b919050565b6000602082840312156118c9578081fd5b61045c8261189c565b600080604083850312156118e4578081fd5b6118ed8361189c565b91506118fb6020840161189c565b90509250929050565b600080600060608486031215611918578081fd5b6119218461189c565b925061192f6020850161189c565b9150604084013590509250925092565b60008060408385031215611951578182fd5b61195a8361189c565b9150602083013567ffffffffffffffff80821115611976578283fd5b818501915085601f830112611989578283fd5b81358181111561199b5761199b611c2e565b604051601f8201601f19908116603f011681019083821181831017156119c3576119c3611c2e565b816040528281528860208487010111156119db578586fd5b82602086016020830137856020848301015280955050505050509250929050565b60008060408385031215611a0e578182fd5b611a178361189c565b946020939093013593505050565b600060208284031215611a36578081fd5b5051919050565b60008251611a4f818460208701611bb1565b9190910192915050565b6020815260008251806020840152611a78816040850160208701611bb1565b601f01601f19169190910160400192915050565b60008219821115611a9f57611a9f611c18565b500190565b600181815b80851115611adf578160001904821115611ac557611ac5611c18565b80851615611ad257918102915b93841c9390800290611aa9565b509250929050565b600061045c60ff841683600082611b0057506001610437565b81611b0d57506000610437565b8160018114611b235760028114611b2d57611b49565b6001915050610437565b60ff841115611b3e57611b3e611c18565b50506001821b610437565b5060208310610133831016604e8410600b8410161715611b6c575081810a610437565b611b768383611aa4565b8060001904821115611b8a57611b8a611c18565b029392505050565b6000816000190483118215151615611bac57611bac611c18565b500290565b60005b83811015611bcc578181015183820152602001611bb4565b83811115610dcd5750506000910152565b600181811c90821680611bf157607f821691505b60208210811415611c1257634e487b7160e01b600052602260045260246000fd5b50919050565b634e487b7160e01b600052601160045260246000fd5b634e487b7160e01b600052604160045260246000fdfe416464726573733a206c6f772d6c6576656c2064656c65676174652063616c6c206661696c6564a26469706673582212204f55be6f624a8c7d9fb44a750050b48fcf3daa00d3dbfa8a8680680edc83f61564736f6c63430008040033",
  "linkReferences": {},
  "deployedLinkReferences": {}
}